:100000000C9415260C9446260C9446260C944626F1
:100010000C9446260C9446260C9446260C94DC9FA1
:100020000C9446260C9446260C9446260C944626A0
:100030000C9446260C9446260C9446260C9471B2D9
:100040000C9446260C9446260C9446260C94462680
:100050000C9446260C9446260C9446260C94462670
:100060000C9446260C9486A00C94B5A00C944626BD
:100070000C9446260C9446260C9446260C94462650
:100080000C9446260C9446260C9446260C94462640
:100090000C94F0A00C941FA10C9446260C94BFA4C1
:1000A0000C9446260C949EB20C9446260C9446263C
:1000B0000C9446260C9446260C94CBB20C944626FF
:1000C0000C9446260C9446260C941AAB0C945AA118
:1000D0000C9489A10C9446260C9446260C94462632
:1000E0000C944626ED34F234F234F034F234ED342C
:1000F000ED34ED34ED34F234ED34F234ED34ED34EE
:10010000F234F234F234F234F234F234ED34CA4CD4
:100110001C4D274DEE4C094D324DD34D834D784D3E
:10012000634D8E4DA54DBA4D3D4D4E4D414EF14D59
:10013000DE4D0F4E1A4E414E244E414E384E414E2A
:10014000044E9555A855B155BD55AA590256AA5900
:1001500057565D566656AA59AE557156AA598456D9
:100160008E565759AA59AA59AA59AA59AA5966592D
:100170006E5975597E598E59375B185E835B505B9B
:10018000615B945BC75B185E185E675C185E0B5C16
:10019000185EB65B185E185E9A5CB35CCC5C185E49
:1001A000725B1C5C4E5C185E785CA55B185E355C0F
:1001B000185EE55CF65C185E185ED85BE95BFA5B7E
:1001C000185E075D375D895C505D185E185E185ECD
:1001D000615D6C5D7D5D8E5D9F5DB05DC15D99A76C
:1001E00099A79EA79EA79EA7A3A7A3A7A3A7B5A7C6
:1001F000A8A7A8A7C2A7C6A7CCA7D0A7D4A7DAA7A5
:10020000DEA7E2A7F1A7E8A7ECA7FBA7FFA705A831
:1002100009A80DA813A817A81BA82AA821A825A8D3
:1002200043A848A84DA852A857A85CA861A866A8EA
:1002300074A86BA870A8A2A8A7A8ACA8B1A8B6A8D3
:10024000BBA8C0A8C5A8D4A8CAA8CFA89EB6C3B644
:10025000C7B6CBB6CFB6F4B6D3B6F4B6F4B6F4B6EA
:10026000D7B6DBB6DFB6C4C3C4C3D4C3F6C3EAC3D0
:10027000FDC304C414C42CC469C495D390D39CD3C7
:10028000A0D3ABD3C5D3EAD3F3D3E1D7DAD7EAD738
:10029000F5D706D818D83BD85DD866D825D91ED949
:1002A0002DD937D94BD961D978D996D9A2D9B4E605
:1002B00057E742E895E742E842E8DCE605E742E82E
:1002C00042E8C2E723E8EAE742E842E842E842E8D7
:1002D00042E842E842E842E842E842E842E805E80B
:1002E00042E842E842E842E842E842E842E8A8E65A
:1002F0003AE742E87CE716E742E8CFE6F4E642E870
:1003000042E842E842E8CFE70A24BC23A625482574
:1003100026247824E22506258C25FE236424D82370
:100320001825C823D2237024BC2554242A25FA2456
:100330001E25C6244C24F625F223E423A425C0243C
:10034000C62304259E2370252E24C223D0256C2588
:10035000A424CE24C423C4235624FC24FC24FC243B
:10036000FC24FC24FC24C423FC24FC24FC24FC24C6
:10037000562456245624562456245624FC24FC2461
:10038000C423C423562486240424862404248624D7
:1003900004248624E424E424E424E424E424E4245B
:1003A000E424E424E424A2238624042486240424CC
:1003B00086240424862404248624A2238624E42478
:1003C000E42404248624E4240424862404248624A7
:1003D000A22338244A2438244A2438244A2438249E
:1003E0004A2438244A24E625E625E625EC23EC2396
:1003F000E625E625E625EC23EC232C242C242C24CE
:10040000282428242C242C242C2428242824F023B9
:100410003C25F0233C25F0233C25F0233C25F0230C
:10042000DA25036EDB363D9A9999993DABAAAA2A43
:100430003E000000803F084AD73B3BCE016E84BCA3
:10044000BFFDC12F3D6C74319ABD56833DDA3D002E
:10045000C77F11BED9E4BB4C3E916BAAAABE000077
:1004600000803F072C7AA5BA6CC590DA3B9365FCF7
:100470008BBC53F810FD3C5692834DBD879D3AB618
:100480003DCBC9BF5BBE73DA0FC93F05A84CCDB2E7
:10049000D44EB93836A9020C50B9918688083CA6CA
:1004A000AAAA2ABE000000803F08000000BE9224D5
:1004B00049123EABAAAA2ABECDCCCC4C3E000000CD
:1004C00080BEABAAAAAA3E00000000BF00000080C8
:1004D0003F0000000000084178D3BB4387D1133DA3
:1004E000190E3CC3BD4282AD2B3E68EC8276BED96C
:1004F0008FE1A93E4C80EFFFBE01C4FF7F3F0000AB
:100500000000000253595349445F53575F4D524511
:10051000560000000000CA090000000001535953B2
:1005200049445F53575F545950450000000001CCC7
:1005300009000020410253595349445F544849532C
:100540004D41560000000070CD090000803F02536D
:10055000595349445F4D5947435300000000000080
:1005600071CF0900007F430253455249414C305F2F
:1005700042415544000000000031D1090000E6422C
:100580000253455249414C315F42415544000000FD
:10059000000032D309000064420154454C454D5FD0
:1005A00044454C415900000000000073D50900008B
:1005B00000000252544C5F414C5400000000000007
:1005C00000000000A0D6090080BB4404524E4746FC
:1005D0004E445F4741494E0000000000001ED8090C
:1005E000CDCC4C3F0146535F424154545F454E4190
:1005F000424C45000000C1DC0900000000044653E5
:100600005F424154545F564F4C5441474500009758
:10061000DD09000028410446535F424154545F4DB8
:10062000414800000000000025E109000000000131
:1006300046535F4750535F454E41424C45000000D2
:1006400000C3E5090000803F0146535F4743535F05
:10065000454E41424C4500000000C6E609000080BE
:100660003F024750535F48444F505F474F4F44004D
:1006700000000023E70900006643014D41475F4544
:100680004E41424C450000000000000092E9090084
:1006900000803F01464C4F575F454E41424C45005C
:1006A000000000000096EA090000000001535550C8
:1006B00045525F53494D504C4500000000009BEBF4
:1006C00009000000000252544C5F414C545F4649FF
:1006D0004E414C00000000A3EC0900000000015254
:1006E0005353495F50494E000000000000000000D5
:1006F00018EE09000080BF04525353495F52414E27
:1007000047450000000000000027EF090000A0405E
:100710000157505F5941575F4245484156494F5232
:1007200000001AF309000000400352544C5F4C4F84
:1007300049545F54494D4500000000A2F9090040AA
:100740009C45024C414E445F5350454544000000D7
:1007500000000000D9FD09000048420250494C4FFA
:10076000545F56454C5A5F4D41580000001CFF092C
:1007700000007A430250494C4F545F414343454C7B
:100780005F5A0000000030010A00007A430254481A
:10079000525F4D494E00000000000000000000B410
:1007A000030A00000243025448525F4D41580000C2
:1007B0000000000000000000B5050A00007A4401B6
:1007C00046535F5448525F454E41424C450000003D
:1007D00000B6070A000000000246535F5448525F0B
:1007E00056414C55450000000000B8080A00C0738F
:1007F00044025452494D5F5448524F54544C4500A2
:10080000000000B90A0A0000E143025448525F4D5B
:10081000494400000000000000000000C20C0A0073
:1008200000FA43025448525F445A0000000000009E
:100830000000000000390E0A0000C84201464C5476
:100840004D4F444531000000000000000000C8107A
:100850000A0000000001464C544D4F444532000050
:1008600000000000000000C9110A0000000001465D
:100870004C544D4F44453300000000000000000080
:10088000CA120A0000000001464C544D4F44453442
:10089000000000000000000000CB130A0000000070
:1008A00001464C544D4F4445350000000000000007
:1008B0000000CC140A0000000001464C544D4F4487
:1008C0004536000000000000000000CD150A0000C1
:1008D00000000153494D504C45000000000000004D
:1008E00000000000CE160A00000000034C4F475FD6
:1008F0004249544D41534B0000000000003C170A90
:1009000000805F44014553430000000000000000E8
:10091000000000000000BA1B0A000000000154554E
:100920004E4500000000000000000000000000BB79
:100930001C0A000000000254554E455F4C4F570002
:100940000000000000000000BD1F0A0000000002BF
:1009500054554E455F4849474800000000000000DC
:1009600000BC1D0A00007A44014652414D4500007A
:100970000000000000000000000095210A00008037
:100980003F014348375F4F50540000000000000013
:1009900000000098220A00000000014348385F4F21
:1009A0005054000000000000000000001F230A0057
:1009B0000000000141524D494E475F434845434BBB
:1009C000000000000020240A0000803F02414E4742
:1009D0004C455F4D4158000000000000000022A07F
:1009E0001200A08C450152435F4645454C5F525072
:1009F0000000000000000028F4090000C842025076
:100A0000484C445F4252414B455F524154450000BF
:100A10002EF509000000410250484C445F4252410B
:100A20004B455F414E474C45002FF70900803B4541
:100A3000014C414E445F5245504F534954494F4E2B
:100A4000000034250A0000803F04454B465F4348C0
:100A500045434B5F5448524553480036260ACDCC97
:100A60004C3F0444434D5F434845434B5F54485219
:100A7000455348003B2A0ACDCC4C3F085243315FD6
:100A800000000000000000000000000000AA2E0A84
:100A9000F1350000085243325F0000000000000002
:100AA000000000000000AB4B0AF135000008524383
:100AB000335F00000000000000000000000000ACF8
:100AC000680AF1350000085243345F00000000005E
:100AD0000000000000000000AD850AF135000008AC
:100AE0005243355F000000000000000000000000DD
:100AF00000AEA20A87360000085243365F000000AD
:100B000000000000000000000000AFC00A873600AF
:100B100000085243375F00000000000000000000A2
:100B2000000000B0DE0A87360000085243385F003C
:100B3000000000000000000000000000B1FC0A8777
:100B400036000008524331305F0000000000000012
:100B50000000000000B21A0B873600000852433133
:100B6000315F000000000000000000000000B3380A
:100B70000B873600000252435F5350454544000046
:100B800000000000000000C0560B0000F5430441C7
:100B900043524F5F52505F500000000000000000C1
:100BA000DD580B00009040044143524F5F594157BC
:100BB0005F5000000000000000F45C0B000090405B
:100BC000044143524F5F42414C5F524F4C4C000036
:100BD0000000F2600B0000803F044143524F5F422F
:100BE000414C5F5049544348000000F3640B00003F
:100BF000803F014143524F5F545241494E4552009C
:100C0000000000001B680B00000040044143524FED
:100C10005F4558504F000000000000000038690B8D
:100C20009A99993E08524154455F524C4C5F0000DE
:100C3000000000000000DF6D0B93340000085241FB
:100C400054455F5049545F0000000000000000E080
:100C50008B0B9334000008524154455F5941575F54
:100C60000000000000000000E1A90B933400000820
:100C70004C4F495445525F4C41545F000000000006
:100C800000E7C70B93340000084C4F495445525FAE
:100C90004C4F4E5F000000000000E8E50B9334006D
:100CA00000085448525F524154455F000000000064
:100CB000000000EC030C61340000085448525F410E
:100CC0004343454C5F00000000000000F1070C9317
:100CD000340000084F465F524C4C5F00000000009B
:100CE0000000000000ED250C93340000084F465F23
:100CF0005049545F00000000000000000000EE4377
:100D00000C93340000085354425F524C4C5F000077
:100D100000000000000000E2650C61340000085390
:100D200054425F5049545F00000000000000000082
:100D3000E3690C61340000085354425F5941575F26
:100D4000000000000000000000E46D0C61340000B1
:100D5000085448525F414C545F00000000000000FE
:100D60000000EB710C6134000008484C445F4C41BA
:100D7000545F000000000000000000E5610C6134D9
:100D800000000843414D5F0000000000000000002B
:100D900000000000A5A10EE03800000852454C41BB
:100DA000595F00000000000000000000000DC913A2
:100DB0009538000008434F4D504153535F000000E9
:100DC00000000000000093B811682F000008494E91
:100DD000535F00000000000000000000000000035E
:100DE0004B096E30000008494E41565F000000007C
:100DF0000000000000000000644A0D383B000008BD
:100E000057504E41565F00000000000000000000F7
:100E10000065F012CE3B000008434952434C455F49
:100E20000000000000000000000068CB13833B00BE
:100E300000084154435F0000000000000000000073
:100E400000000066BD061035000008504F53434FA8
:100E50004E5F0000000000000000000067DA05BFE0
:100E6000350000085352305F000000000000000011
:100E700000000000006EBA0E0C1000000853523142
:100E80005F000000000000000000000000006F9103
:100E90000F0C10000008414852535F000000000092
:100EA000000000000000009F85071C330000084D73
:100EB0004E545F0000000000000000000000000031
:100EC000A63B0E7639000008424154545F000000F2
:100ED000000000000000000000246C102546000007
:100EE000084252445F0000000000000000000000C3
:100EF00000000F02141F47000008474E445F000027
:100F000000000000000000000000000B2F11262C44
:100F10000000084750535F00000000000000000080
:100F20000000000010C210F027000008534348459D
:100F3000445F00000000000000000000000CB30946
:100F40002E4500000846454E43455F000000000066
:100F500000000000000045AA057F4400000847503B
:100F600053474C495443485F0000000000000046CE
:100F7000A2105F280000084241524F474C5443489A
:100F80005F00000000000000470314802D000008EF
:100F90004D4F545F00000000000000000000000002
:100FA000005A760CD23600000852434D41505F0083
:100FB00000000000000000000000C71B14A845004E
:100FC00000084D49535F00000000000000000000D1
:100FD0000000002A43071634000008524E47464ED0
:100FE000440000000000000000000000351F1482D3
:100FF00037000000000000000000000000000000BA
:10100000000000000000000000000000020052414B
:10101000575F53454E53000000000000000000667B
:10102000000000000002014558545F535441540031
:101030000000000000000000680000000000020244
:1010400052435F4348414E00000000000000000092
:10105000006A000000000002035241575F435452EF
:101060004C0000000000000000006C0000000000C8
:101070000204504F534954494F4E000000000000F5
:101080000000006E00000000000205455854524167
:1010900031000000000000000000000070000000AF
:1010A0000000020645585452413200000000000082
:1010B00000000000007200000000000207455854C4
:1010C00052413300000000000000000000007400E6
:1010D000000000000208504152414D530000000042
:1010E0000000000000000076000000000000FF008B
:1010F00000000000000000000000000000000000F0
:101100000000000000006B4601006400DC470200A4
:10111000C201B94002008403F7460A00D002AE596A
:101120000A003200D16E0A000A00D72C0A008C0097
:101130000B3C0A00E8033B6D04002003243101004E
:101140003200BD5A21005A0072290200A40149262A
:101150000200FA00092C02006400464B6400A4015E
:10116000512D0A00140041440A001400C22C020050
:10117000260246286400960043280200D002C94F88
:101180000200B603BA2C0200C20159320A002C0137
:1011900066330200DC002E5EE803C800C22E0A009F
:1011A00032004A2601006400C12602006400812644
:1011B00064006400504552463A2025752F2575205D
:1011C000256C750A0041726475436F7074657220F6
:1011D00056332E322E31004672616D653A205155DC
:1011E00041440050726541726D3A205243206E6F47
:1011F000742063616C696272617465640050726529
:1012000041726D3A2047505320476C6974636800FF
:1012100050726541726D3A204E65656420334420FA
:101220004669780050726541726D3A2042616420CF
:1012300056656C6F636974790050726541726D3ADE
:101240002048696768204750532048444F50005059
:10125000726541726D3A204261726F206E6F742028
:101260006865616C7468790050726541726D3A20EE
:10127000416C742064697370617269747900507292
:101280006541726D3A20436F6D70617373206E6FAC
:1012900074206865616C7468790050726541726D84
:1012A0003A20436F6D70617373206E6F74206361B9
:1012B0006C696272617465640050726541726D3A66
:1012C00020436F6D70617373206F6666736574730E
:1012D00020746F6F20686967680050726541726D95
:1012E0003A20436865636B206D6167206669656CB1
:1012F000640050726541726D3A20636865636B20CB
:1013000066656E63650050726541726D3A20494EA4
:1013100053206E6F742063616C69627261746564DE
:101320000050726541726D3A20416363656C7320B1
:101330006E6F74206865616C7468790050726541E5
:10134000726D3A204779726F73206E6F74206865F2
:10135000616C7468790050726541726D3A2047790A
:10136000726F2063616C206661696C656400507205
:101370006541726D3A20436865636B20426F61720C
:101380006420566F6C746167650050726541726DC0
:101390003A2043683726436838204F7074206361D1
:1013A0006E6E6F742062652073616D6500507265AA
:1013B00041726D3A20436865636B2046535F544821
:1013C000525F56414C55450050726541726D3A204E
:1013D000436865636B20414E474C455F4D41580063
:1013E00050726541726D3A204143524F5F42414C09
:1013F0005F524F4C4C2F50495443480041726D3A54
:10140000204779726F2063616C206661696C656446
:101410000043616C6962726174696E672062617217
:101420006F6D65746572006261726F6D657465726F
:101430002063616C6962726174696F6E20636F6DA5
:10144000706C6574650047524F554E4420535441AB
:1014500052540041726D3A204D6F6465206E6F7476
:101460002061726D61626C650041726D3A20416C61
:1014700074206469737061726974790041726D3AA5
:10148000205468722062656C6F7720465300417269
:101490006D3A204C65616E696E670041726D3A204D
:1014A0005361666574792053776974636800547278
:1014B000696D207361766564004175746F54756E53
:1014C000653A2053746F70706564004175746F5491
:1014D000756E653A20537563636573730041757467
:1014E0006F54756E653A204661696C65640041759C
:1014F000746F54756E653A2053746172746564003C
:101500004C6F77204261747465727921004C6F735F
:10151000742047505321000A0A496E6974204172B1
:101520006475436F707465722056332E322E310A03
:101530000A467265652052414D3A2025750A0080A1
:1015400059464D54000042426E4E5A0000000000C1
:10155000000000000000547970652C4C656E6774C3
:10156000682C4E616D652C466F726D61742C436FF3
:101570006C756D6E7300000000000000000000003C
:10158000000000000000000000000000000000005B
:1015900000000000000081175041524D004E6600CF
:1015A000000000000000000000000000004E616D1F
:1015B000652C56616C75650000000000000000009D
:1015C000000000000000000000000000000000001B
:1015D000000000000000000000000000000000000B
:1015E00000000000000000000000000000822D4705
:1015F0005053000042494842634C4C65654565665E
:10160000490000005374617475732C54696D654D05
:10161000532C5765656B2C4E536174732C48446F83
:10162000702C4C61742C4C6E672C52656C416C7440
:101630002C416C742C5370642C474372732C565A93
:101640002C540000831F494D5500004966666666AC
:10165000666600000000000000000054696D654DE2
:10166000532C477972582C477972592C4779725A02
:101670002C416363582C416363592C4163635A00C6
:10168000000000000000000000000000000000005A
:10169000000000000000000000000084434D53479C
:1016A00000005A00000000000000000000000000E0
:1016B00000004D6573736167650000000000000065
:1016C000000000000000000000000000000000001A
:1016D000000000000000000000000000000000000A
:1016E00000000000000000000000000000000000FA
:1016F000000085235243494E00496868686868685D
:1017000068686868686868680054696D654D532C3E
:1017100043312C43322C43332C43342C43352C435C
:10172000362C43372C43382C43392C4331302C434F
:1017300031312C4331322C4331332C4331340000CE
:10174000000000000000000000861752434F5500C3
:101750004968686868686868680000000000000000
:1017600054696D654D532C4368616E312C4368613B
:101770006E322C4368616E332C4368616E342C43A7
:1017800068616E352C4368616E362C4368616E3734
:101790002C4368616E38000000000000000000006B
:1017A00088154241524F004966666366000000009A
:1017B0000000000000000054696D654D532C416C21
:1017C000742C50726573732C54656D702C43527475
:1017D0000000000000000000000000000000000009
:1017E00000000000000000000000000000000000F9
:1017F00000000000000000890D504F57520049437F
:101800004348000000000000000000000000546990
:101810006D654D532C5663632C56536572766F2C51
:10182000466C6167730000000000000000000000CB
:1018300000000000000000000000000000000000A8
:1018400000000000000000000000000000009129DE
:10185000434D4400004948484866666666666666C9
:10186000000000000054696D654D532C43546F74A3
:101870002C434E756D2C4349642C50726D312C50A5
:10188000726D322C50726D332C50726D342C4C6151
:10189000742C4C6E672C416C74000000000000003A
:1018A00000000000009210524144000049424242B0
:1018B00042424848000000000000000054696D6585
:1018C0004D532C525353492C52656D525353492C4E
:1018D00054784275662C4E6F6973652C52656D4E57
:1018E0006F6973652C52784572726F72732C4669FA
:1018F000786564000000000000000000941F434170
:101900004D000049484C4C6565636343000000008E
:1019100000000047505354696D652C47505357657C
:10192000656B2C4C61742C4C6E672C416C742C5282
:10193000656C416C742C526F6C6C2C5069746368CC
:101940002C5961770000000000000000000000003A
:1019500000000019194154554E0042426666666601
:1019600066000000000000000000417869732C54FC
:10197000756E65537465702C526174654D696E2C7B
:10198000526174654D61782C52504761696E2C52DA
:10199000444761696E2C53504761696E0000000036
:1019A000000000000000000000001A0941544445F6
:1019B000006366000000000000000000000000005E
:1019C00000416E676C652C52617465000000000078
:1019D0000000000000000000000000000000000007
:1019E00000000000000000000000000000000000F7
:1019F00000000000000000000000000000000000E7
:101A000000091743555252004968496868686600E2
:101A1000000000000000000054696D654D532C5417
:101A200068724F75742C546872496E742C566F6CC2
:101A3000742C437572722C5663632C437572725406
:101A40006F740000000000000000000000000000B3
:101A500000000000000000000C144F460000006869
:101A600068426363656500000000000000000044F8
:101A7000782C44792C535175616C2C582C592C526C
:101A80006F6C6C2C506974636800000000000000EB
:101A90000000000000000000000000000000000046
:101AA0000000000000000000000000000000000531
:101AB0002F4E54554E0049666666666666666666D3
:101AC00066000000000054696D654D532C44506F52
:101AD00073582C44506F73592C506F73582C506F9F
:101AE00073592C4456656C582C4456656C592C56C9
:101AF000656C582C56656C592C44416363582C44D2
:101B000041636359000004214354554E00496868FD
:101B10006866666563636868000000000054696D6C
:101B2000654D532C546872496E2C416E6742737434
:101B30002C5468724F75742C44416C742C416C7435
:101B40002C426172416C742C4453416C742C53418F
:101B50006C742C444352742C43527400000F194D82
:101B600041470000496868686868686868680000FC
:101B70000000000054696D654D532C4D6167582C71
:101B80004D6167592C4D61675A2C4F6673582C4F25
:101B90006673592C4F66735A2C4D4F6673582C4DF3
:101BA0004F6673592C4D4F66735A000000000000B9
:101BB000000000000611504D0000004848496842EE
:101BC00048420000000000000000004E4C6F6E2CE8
:101BD0004E4C6F6F702C4D6178542C504D542C49E5
:101BE00032434572722C494E534572722C494E4114
:101BF0005645727200000000000000000000000066
:101C000000000000000000000000000117415454D3
:101C100000004963636363434343430000000000E3
:101C2000000054696D654D532C446573526F6C6CA4
:101C30002C526F6C6C2C44657350697463682C5023
:101C4000697463682C4465735961772C5961772CEA
:101C500045727252502C4572725961770000000033
:101C6000000003064D4F4445004D68000000000091
:101C70000000000000000000004D6F64652C5468F7
:101C800072437273000000000000000000000000BA
:101C90000000000000000000000000000000000044
:101CA0000000000000000000000000000000000034
:101CB0000000000000000000000A035354525400CA
:101CC0000000000000000000000000000000000014
:101CD0000000000000000000000000000000000004
:101CE00000000000000000000000000000000000F4
:101CF00000000000000000000000000000000000E4
:101D000000000000000000000000000000000000D3
:101D10000D044556000000420000000000000000D5
:101D20000000000000000049640000000000000006
:101D300000000000000000000000000000000000A3
:101D40000000000000000000000000000000000093
:101D50000000000000000000000000000000000083
:101D60000000000000000014064431360000426804
:101D700000000000000000000000000000004964B6
:101D80002C56616C7565000000000000000000002A
:101D90000000000000000000000000000000000043
:101DA0000000000000000000000000000000000033
:101DB0000000000000000000000000000000150608
:101DC0004455313600424800000000000000000089
:101DD000000000000049642C56616C75650000002D
:101DE00000000000000000000000000000000000F3
:101DF00000000000000000000000000000000000E3
:101E000000000000000000000000000000000000D2
:101E10000000000000160844333200004269000050
:101E200000000000000000000000000049642C5683
:101E3000616C7565000000000000000000000000FB
:101E40000000000000000000000000000000000092
:101E50000000000000000000000000000000000082
:101E600000000000000000000000000017084455BA
:101E70003332004249000000000000000000000072
:101E800000000049642C56616C756500000000007C
:101E90000000000000000000000000000000000042
:101EA0000000000000000000000000000000000032
:101EB0000000000000000000000000000000000022
:101EC000000000180844464C540042660000000020
:101ED0000000000000000000000049642C56616C06
:101EE0007565000000000000000000000000000018
:101EF00000000000000000000000000000000000E2
:101F000000000000000000000000000000000000D1
:101F100000000000000000000000130545525200C0
:101F2000004242000000000000000000000000002D
:101F3000005375627379732C45436F64650000002C
:101F40000000000000000000000000000000000091
:101F50000000000000000000000000000000000081
:101F60000000000000000000000000000000000071
:101F7000004E6F2064617461666C61736820696EE5
:101F80007365727465640045524153494E47204C55
:101F90004F4753000A526561647920746F20464CA4
:101FA000592000496E697469616C6973696E6720B4
:101FB00041504D2E2E2E004657205665723A202550
:101FC000640A002D004261642076617220746162AF
:101FD0006C650A0042616420766172207461626CF3
:101FE00065004669726D77617265206368616E672E
:101FF000653A2065726173696E6720454550524F9E
:102000004D2E2E2E0A00646F6E652E008D0001008D
:10201000424154545F4D4F4E49544F52000000000E
:1020200000A8000100424154545F564F4C545F5089
:10203000494E00000000A9000100424154545F4392
:102040005552525F50494E000000008E000400427D
:102050004154545F564F4C545F4D554C5400000052
:102060008F000400424154545F414D505F5045522F
:10207000564F4C540091000300424154545F434179
:1020800050414349545900000000140002004C4FD5
:10209000475F4249544D41534B0000000000006C23
:1020A0006F61645F616C6C20746F6F6B20256C7561
:1020B00075730A0045726173696E67206C6F677390
:1020C0000A004C6F6720657261736520636F6D70E5
:1020D0006C6574650A00456E746572696E672045AB
:1020E00053432043616C3A207265737461727420AB
:1020F00041504D2E0A004553432043616C3A2070F5
:10210000617373696E67207468726F74746C652094
:102110007468726F75676820746F20455343732E1F
:102120000A004553432063616C20696E7075743AF0
:1021300020257520257520257520257520206F7593
:10214000747075743A202575202575202575202515
:10215000750A00434F4D5041535320494E49542076
:102160004552524F520041726475436F70746572EC
:102170002056332E322E31004672616D653A205161
:1021800055414400636F6D706173732064697361BE
:10219000626C65640A00636865636B20636F6D70D1
:1021A000617373005243206E6F742063616C6962C7
:1021B000726174656400746872206E6F74207A6551
:1021C000726F004E6F74206C616E646564005354CE
:1021D000415254494E472043414C4942524154498F
:1021E0004F4E0043555252454E54005448524F549E
:1021F000544C450043616C6962726174696F6E2072
:102200005375636365737366756C21004661696C11
:1022100065642100436F6D706173730A004D6167DF
:10222000204465633A2025342E34660A004D6167E8
:102230002564206F66663A2025342E34662C2025CE
:10224000342E34662C2025342E34660A004D6F74EB
:102250006F7220436F6D703A20004F66660A00541B
:1022600068726F74746C650043757272656E740089
:102270000A436F6D4D6F7425643A2025342E326603
:102280002C2025342E32662C2025342E32660A006E
:10229000656E006469730061626C65640A004D6F6D
:1022A000746F7220546573743A205243206E6F74B9
:1022B0002063616C69627261746564004D6F746F54
:1022C0007220546573743A2076656869636C652082
:1022D0006E6F74206C616E646564004D6F746F7214
:1022E00020546573743A205361666574792053777E
:1022F000697463680043726173683A20446973616A
:10230000726D696E670044434D20626164206865A8
:102310006164696E67005265616368656420436F3C
:102320006D6D616E64202325690052656163686587
:102330006420436F6D6D616E6420232569004545FF
:1023400050524F4D2066756C6C0025733A20256401
:102350000A0025733A2025640A0025733A20256C6B
:10236000640A0025733A2025660A00556E6B6E6F6D
:10237000776E20636F6E76657273696F6E202725A6
:1023800053270A0042616420636F6E766572736939
:102390006F6E207479706520272553270A0000008E
:1023A000000000060300000676090200760F5A00BE
:1023B0000100D00F30000000000000050300000500
:1023C000CA090200CA0E96000100600FA000DCDFFF
:1023D000E1E3E6E8EBEDEFF2F4F7F9FCFE000305CC
:1023E000080A0C0F111416181B1D202224272C7606
:1023F000D888674F0823C1DFAE59B1B796E5E453DB
:10240000C63A51997696E6C28426898C9B62407CB6
:102410006FFCBC9C9F40BAA56FA590055A2A5C939F
:102420006B6C676DC11BE0E40D47F520E6B5D0EDA0
:10243000902E009435770080841E0000204E00000E
:1024400000C833333333986E128341EF8D21893BBB
:10245000E655CFFEE6DBD1844B38F77C1D90A4BB5C
:10246000E4243284725E8100C9F1ECA1E53D6E6125
:102470006E00696E66004572726F723A2041505F5D
:1024800048414C5F4156523A3A415652416E616C56
:102490006F67496E206F7574206F66206368616E88
:1024A0006E656C730D0A0050414E49433A207363C8
:1024B000686564756C65723A3A73797374656D5FBB
:1024C000696E697469616C697A65642063616C6CBA
:1024D00065646D6F7265207468616E206F6E6365F0
:1024E00000474F494E4720444F574E20464F5220F9
:1024F00041205245424F4F540D0A0050414E49432E
:102500003A2041565253656D6170686F72653A3A70
:1025100074616B6520757365642066726F6D2069E8
:102520006E736964652074696D65722070726F6383
:102530006573730050414E49433A2053504930204F
:102540007472616E7366657220636F6C6C69736917
:102550006F6E0050414E49433A2053504930207726
:102560007269746520636F6C6C6973696F6E0001CA
:102570000210202008081020401020408002010294
:10258000010804020101020408102040808040205C
:102590001008040201800402018040201008040297
:1025A0000108040201010204081020408001020415
:1025B00008102040804005050505070508080808A3
:1025C000020202020A0A08080404040401010101CB
:1025D00001010101030303030303030304070707C6
:1025E0000C0C0C0C0C0C0C0C02020202060606066B
:1025F000060606060B0B0B0B0B0B0B0B0500002046
:10260000002300260029002C002F003200000100CA
:102610000003010601090100002200250028002B0B
:10262000002E003100340002010000050108010BFA
:102630000100002100240027002A002D0030003373
:102640000001010000040107010A01666C69676866
:102650007420706C616E20757064617465207265A1
:102660006A656374656400666C6967687420706C81
:10267000616E20726563656976656400327C8900ED
:10268000EDD968770000005900000000000000004C
:10269000D69FDCA81817AA90437327F6B968EDF403
:1026A000DED409FEE61C1C84DDE80B992927000016
:1026B00000000F03000000000099B7335276941514
:1026C00000F37C000026149E988F0000006A3116EB
:1026D0001D0CF1E900E7B73F3600000000000000E4
:1026E000AF669ED0385DD36C20B95400007C77046F
:1026F0004C80387486EDCBFA57CBDC19E2001DDF35
:102700005506E5CB01000000000000000000002A93
:10271000310086DBD0BC5416131586004E44BD7FB5
:102720009A15159001EA49B51653A78AEAF02FBD0C
:1027300034AE0000000000000000000000000000B7
:102740000000000000000000000000000000000089
:102750000000000000000000000000000000000079
:102760000000000000000000000000000000000069
:102770000000000008CC31AA2C532E00B5620601DF
:102780000300010601124F24505542582C34312CBD
:10279000312C303030332C303030312C3338343031
:1027A000302C302A32360D0A245047434D442C3108
:1027B000362C302C302C302C302C302A36410D0A5F
:1027C00024505352463130302C302C333834303092
:1027D0002C382C312C302A33430D0A00C012000053
:1027E0000096000000C2010000E10000802500000A
:1027F0000100545950450000000000000000000096
:1028000000000002000000803F01024E4156464990
:102810004C5445520000000000000000030000007E
:10282000004100FF00000000000000000000000068
:1028300000000000000000000000002075626C6FC6
:10284000782000204D544B31392000204D544B202E
:102850000020534952462000204E4D4541200001A2
:1028600000454E41424C45000000000000000000C1
:10287000000003000000803F0401524144495553C9
:1028800000000000000000000000000400000048FC
:10289000430402414343454C000000000000000097
:1028A00000000000080000007A4400FF0000000063
:1028B0000000000000000000000000000000000018
:1028C00000000024504D544B3232302C3230302A2C
:1028D00032430D0A24504D544B3331332C312A32BC
:1028E000450D0A24504D544B3330312C322A324599
:1028F0000D0A24504D544B3339372C302A32330DC6
:102900000A00475056544700475047474100475038
:10291000524D430024505352463130332C302C302A
:102920002C312C312A32350D0A2450535246313085
:10293000332C312C302C302C312A32350D0A2450D6
:102940005352463130332C322C302C302C312A3239
:10295000360D0A24505352463130332C332C302C50
:10296000302C312A32370D0A24505352463130333D
:102970002C342C302C312C312A32300D0A24505377
:1029800052463130332C352C302C312C312A323018
:102990000D0A24505352463130332C362C302C3013
:1029A0002C312A32320D0A24505352463130332C06
:1029B000382C302C302C312A32430D0A24505352FB
:1029C000463135312C312A33460D0A2450535246B4
:1029D0003130362C32312A30460D0A24504D544BBA
:1029E0003331342C302C302C312C312C302C302CF9
:1029F000302C302C302C302C302C302C302C302CF7
:102A0000302C302C302A32380D0A24504D544B33A0
:102A100033302C302A32450D0A24504D544B33317B
:102A2000332C312A32450D0A24504D544B3330316A
:102A30002C322A32450D0A24505542582C34302C61
:102A40006767612C302C312C302C302C302C302A04
:102A500037420D0A24505542582C34302C76746776
:102A60002C302C312C302C302C302C302A37460D89
:102A70000A24505542582C34302C726D632C302C63
:102A8000302C302C302C302C302A36370D0A00A058
:102A9000A20008A60200000000000000A8B0B3A039
:102AA000A20008A60029010000000000D0B0B35029
:102AB000414E49433A2044617461466C6173682019
:102AC000535049446576696365447269766572203E
:102AD0006E6F7420666F756E640050414E49433AC4
:102AE0002044617461466C617368205350494465A9
:102AF000766963654472697665722073656D61708D
:102B0000686F7265206973206E756C6C00554E4B52
:102B10004E2C2025750A0025532C20002564002505
:102B20007500256400257500256C6400256C750012
:102B3000256600252E326600252E326600252E32AF
:102B40006600252E3266002573002573002573006C
:102B50002C2000464D542C2025752C2025752C202A
:102B600025532C2025532C2025530A004446207041
:102B70006167652C206C6F672066696C6520232C6B
:102B8000206C6F6720706167653A2025752C0900FD
:102B900025752C090025750A004E6F20646174614B
:102BA000666C61736820696E736572746564004D4C
:102BB000616E7566616374757265723A203078254E
:102BC0003032782020204465766963653A20307879
:102BD000253034780A004E756D50616765733A2070
:102BE000257520205061676553697A653A202575FF
:102BF0000A000A4E6F206C6F67730A0A000A257577
:102C0000206C6F67730A004C6F672025752C20209D
:102C1000202073746172742025752C202020656E2D
:102C2000642025750A0004024142535F5052455307
:102C30005300000000000000000C00000000000431
:102C40000354454D5000000000000000000000004B
:102C500000000800000000000104414C545F4F4692
:102C60004653455400000000000000100000000022
:102C70000000FF0000000000000000000000000055
:102C80000000000000000000000050414E49433A9F
:102C90002041505F4261726F3A3A726561642075FB
:102CA0006E7375636365737366756C20666F7220EF
:102CB0006D6F7265207468616E203530306D7320E1
:102CC000696E2041505F4261726F3A3A63616C698C
:102CD0006272617465205B315D0D0A0050414E499E
:102CE000433A2041505F4261726F3A3A72656164C3
:102CF00020756E7375636365737366756C20666F9C
:102D000072206D6F7265207468616E203530306D91
:102D10007320696E2041505F4261726F3A3A63617D
:102D20006C696272617465205B325D0D0A0050410E
:102D30004E49433A2041505F4261726F3A3A7265A0
:102D4000616420756E7375636365737366756C205B
:102D5000666F72206D6F7265207468616E20353009
:102D6000306D7320696E2041505F4261726F3A3A54
:102D700063616C696272617465205B335D0D0A008A
:102D80000100454E41424C4500000000000000009B
:102D900000000003000000803F0401444953540038
:102DA000000000000000000000000000040000001F
:102DB000FA430402414343454C0000000000000078
:102DC000000000000008000080BB4400FF0000007D
:102DD00000000000000000000000000000000000F3
:102DE0000000000050414E49433A2041505F42618B
:102DF000726F5F4D533536313120646964206E6FD8
:102E000074206765742076616C6964205350492092
:102E10006465766963652064726976657221005025
:102E2000414E49433A2041505F4261726F5F4D53BA
:102E30003536313120646964206E6F7420676574A3
:102E40002076616C6964205350492073656D617010
:102E500068726F65210050414E49433A20666169AE
:102E60006C656420746F2074616B65205F7370699A
:102E70005F73656D203130302074696D6573206932
:102E80006E206120726F772C20696E2041505F4266
:102E900061726F5F4D53353631313A3A5F75706408
:102EA0006174650050414E49433A2041505F426190
:102EB000726F5F4D53353631313A204E554C4C20B0
:102EC00073657269616C2064726976657200504145
:102ED0004E49433A2041505F4261726F5F4D533516
:102EE0003631313A206661696C656420746F2074F4
:102EF000616B652073657269616C2073656D6170CB
:102F0000686F726520666F7220696E697400504147
:102F10004E49433A2041505F4261726F5F4D5335D5
:102F200036313120746F6F6B206D6F72652074685D
:102F3000616E20313030306D7320746F20696E699E
:102F40007469616C697A65004661696C65642074B6
:102F50006F2067657420484D4335383433207365DE
:102F60006D6170686F72650005014F465300000087
:102F7000000000000000000000000017000000003A
:102F8000000402444543000000000000000000006F
:102F90000000000023000000000001034C454152E6
:102FA0004E000000000000000000000000080000CB
:102FB00000803F0104555345000000000000000060
:102FC00000000000000027000000803F010541557F
:102FD000544F44454300000000000000000000285A
:102FE000000000803F01064D4F5443540000000094
:102FF0000000000000000000A40000000000050721
:103000004D4F5400000000000000000000000000D0
:1030100000A5000000000001084F5249454E540031
:10302000000000000000000000001600000000008A
:10303000010945585445524E414C00000000000023
:1030400000000029000000000000FF000000000058
:103050000000000000000000000000000000000070
:1030600000002D00256C642E2530376C64000200B2
:1030700050524F445543545F494400000000000043
:10308000001F000000000005014143435343414C31
:10309000000000000000000000002100000000000F
:1030A00005024143434F4646530000000000000024
:1030B0000000002D000000000005034759524F4654
:1030C000465300000000000000000000390000002E
:1030D000000001044D5055364B5F46494C54455253
:1030E000000000000045000000000000FF0000009C
:1030F00000000000000000000000000000000000D0
:1031000000000000546F6F206D616E792067797246
:103110006F7300546F6F206D616E7920616363651A
:103120006C7300546F6F206D616E7920494E53208F
:103130006261636B656E6473004E6F20494E53206D
:103140006261636B656E647320617661696C616254
:103150006C65006F6E20697473204241434B0050D0
:103160006C6163652076656869636C652025532012
:10317000616E6420707265737320616E79206B6577
:10318000792E0A004F6666736574735B25755D3A28
:1031900020252E326620252E326620252E32660A04
:1031A000005363616C696E675B25755D3A20252E5F
:1031B000326620252E326620252E32660A004361B3
:1031C0006C6962726174696F6E2073756363657395
:1031D0007366756C0A0043616C6962726174696F31
:1031E0006E204641494C45440A00496E69742041AD
:1031F0006363656C002A002000496E69742047797A
:10320000726F002A006779726F5B25755D206469B3
:1032100064206E6F7420636F6E76657267653A2006
:10322000646966663D2566206470730A006C657685
:10323000656C006F6E20697473204C454654207392
:10324000696465006F6E2069747320524947485461
:103250002073696465006E6F736520444F574E009C
:103260006E6F7365205550006661696C65642074EB
:103270006F20626F6F74204D5055363030302035DE
:103280002074696D65730056616C75657320646F99
:1032900065736E2774206D617463683B2077726973
:1032A0007474656E3A20253032783B207265616413
:1032B0003A202530327820004D5055363030303AA3
:1032C00020556E61626C6520746F20676574207391
:1032D000656D6170686F7265004661696C65642038
:1032E000746F20626F6F74204D505536303030202F
:1032F000352074696D65730054696D6564206F7560
:10330000742077616974696E6720666F72207573C7
:10331000657220726573706F6E73650004024750AA
:10332000535F4741494E00000000000000000022AA
:10333000000000803F01034750535F555345000094
:1033400000000000000000002C000000803F04048A
:103350005941575F500000000000000000000000CD
:10336000001A00CDCC4C3E040552505F50000000C6
:10337000000000000000000000001E00CDCC4C3E0C
:10338000010657494E445F4D4158000000000000BF
:103390000000002D000000000005085452494D00B7
:1033A00000000000000000000000000041000000DC
:1033B000000001094F5249454E544154494F4E00B7
:1033C00000000000002E0000000000040A434F4DE2
:1033D000505F4245544100000000000000002800FA
:1033E000CDCCCC3D010B4750535F4D494E5341541A
:1033F000530000000000002F000000C04000FF004C
:1034000000000000000000000000000000000000BC
:103410000000000000000200544F54414C00000026
:103420000000000000000000000500000000000196
:103430000152455354415254000000000000000066
:10344000000007000000000000FF00000000000076
:10345000000000000000000000000000000000006C
:103460000004005000000000000000000000000008
:103470000000000000000000000000FF000000004D
:10348000000000000000000000000000000000003C
:1034900000000004005000000000000000000000D8
:1034A00000000000000000000000000004014900CE
:1034B0000000000000000000000000000000000408
:1034C00000000000000402440000000000000000B2
:1034D00000000000000000000800000000000203DF
:1034E000494D4158000000000000000000000000AD
:1034F000000C000000000000FF00000000000000C1
:1035000000000000000000000000000000000000BB
:103510000400524154455F52505F4D415800000035
:10352000000000260000A08C460401524154455F73
:10353000595F4D4158000000000000002A0000A023
:103540000C460402534C45575F5941570000000098
:1035500000000000002E0000007A440403414343B1
:10356000454C5F52505F4D41580000000000320052
:10357000000000000404414343454C5F595F4D4146
:103580005800000000000036000000000001055255
:103590004154455F46465F454E41420000000000F1
:1035A0003A000000000000FF0000000000000000E2
:1035B0000000000000000000000000000000000407
:1035C000005448525F484F5645520000000000002A
:1035D000000017000000E14300FF000000000000B1
:1035E00000000000000000000000000000000000DB
:1035F0000002004D494E00000000000000000000E5
:10360000000000000A000080894402015452494D24
:10361000000000000000000000000000000C00009E
:1036200080BB4402024D4158000000000000000031
:103630000000000000000E000080ED440103524530
:103640005600000000000000000000000000001014
:10365000000000803F0205445A0000000000000006
:10366000000000000000000011000000000000FF4A
:10367000000000000000000000000000000000004A
:103680000000000000000008000000000000000032
:10369000000000000000000000000000F135000004
:1036A000010146554E4354494F4E000000000000B2
:1036B0000000001D000000000000FF0000000000EE
:1036C00000000000000000000000000000000000FA
:1036D00000000101544352565F454E41424C4500A3
:1036E00000000000002E000000803F010254435201
:1036F000565F4D49445043540000000000002F0025
:10370000000050420103544352565F4D415850430C
:103710005400000000000030000000BA42020553CF
:1037200050494E5F41524D454400000000000000EA
:10373000310000008C4200FF00000000000000008B
:103740000000000000000000000000000000000079
:103750000102030405060741505F4D6F746F7273D9
:103760003A206661696C656420746F2063726561DC
:103770007465207468726F74746C652063757276FA
:10378000650001005F545950450000000000000032
:10379000000000000000000000000001015F50492F
:1037A0004E000000000000000000000000000100CA
:1037B000000080BF04025F5343414C494E47000064
:1037C0000000000000000006000000404004035F0D
:1037D0004F46465345540000000000000000000022
:1037E0000A000000000001045F46554E4354494F53
:1037F0004E00000000000000000E0000000000026B
:10380000055F4D494E5F434D000000000000000081
:1038100000000F000000A04102065F4D41585F43C9
:103820004D00000000000000000000110000002F0B
:103830004401075F53544F505F50494E0000000051
:10384000000000000300000080BF02085F534554E1
:10385000544C455F4D530000000000000004000080
:1038600000000001095F524D4554524943000000D9
:1038700000000000000002000000803F00FF000088
:103880000000000000000000000000000000000038
:103890000000000000010050494E00000000000040
:1038A0000000000000000000000000005041010185
:1038B00050494E32000000000000000000000000EF
:1038C000000100000080BF00FF00000000000000B9
:1038D00000000000000000000000000000000000E8
:1038E000010054524947475F5459504500000000B9
:1038F0000000000000000000000101445552415446
:10390000494F4E00000000000000000001000000D0
:1039100020410202534552564F5F4F4E00000000B7
:10392000000000000002000080A244020353455240
:10393000564F5F4F464600000000000000000400A4
:1039400000808944040454524947475F4449535412
:103950000000000000000009000000000000FF005F
:103960000000000000000000000000000000000057
:1039700000000000000001004D4F44450000000021
:103980000000000000000000003100000000000501
:103990000152455452414354000000000000000011
:1039A000000042000000000005024E4555545241FF
:1039B0004C000000000000000000004E000000006D
:1039C000000503434F4E54524F4C000000000000CE
:1039D000000000005A00000000000104535441425E
:1039E0005F524F4C4C00000000000000002E000011
:1039F0000000000105535441425F54494C540000FB
:103A00000000000000002F000000000001065354D9
:103A100041425F50414E00000000000000000030B5
:103A20000000000000010752435F494E5F524F4CB7
:103A30004C000000000000003200000000000208FE
:103A4000414E474D494E5F524F4C00000000000070
:103A500000350000A08CC50209414E474D41585F1A
:103A6000524F4C00000000000000370000A08C45C1
:103A7000010A52435F494E5F54494C540000000014
:103A8000000000330000000000020B414E474D498A
:103A90004E5F54494C00000000000000390000A0B7
:103AA0008CC5020C414E474D41585F54494C0000B3
:103AB00000000000003B0000A08C45010D52435F58
:103AC000494E5F50414E00000000000000003400ED
:103AD00000000000020E414E474D494E5F50414EDE
:103AE000000000000000003D0000A08CC5020F4156
:103AF0004E474D41585F50414E000000000000000D
:103B00003F0000A08C4501104A535449434B5F537A
:103B100050440000000000000041000000000000D0
:103B2000FF00000000000000000000000000000096
:103B30000000000000000000040154435F585900D9
:103B40000000000000000000000000130000002042
:103B500040040254435F5A000000000000000000CF
:103B60000000000017000000A04000FF000000005F
:103B70000000000000000000000000000000000045
:103B80000000000400524144495553000000000069
:103B9000000000000000070000007A4404015241C8
:103BA0005445000000000000000000000000000B71
:103BB000000000A04100FF00000000000000000025
:103BC00000000000000000000000000000000400F1
:103BD0005350454544000000000000000000000074
:103BE000000F000000FA43040152414449555300BC
:103BF000000000000000000000001B00000048431F
:103C0000040253504545445F555000000000000039
:103C1000000000130000007A43040353504545445C
:103C20005F444E000000000000000000170000008C
:103C3000164304044C4F49545F535045454400001B
:103C4000000000000007000000FA43040541434360
:103C5000454C0000000000000000000000001F00B4
:103C60000000C8420406414343454C5F5A0000002F
:103C70000000000000000023000000C84204074CC0
:103C80004F49545F4A45524B0000000000000000BD
:103C90000B0000007A4400FF00000000000000005C
:103CA000000000000000000000000000000000967E
:103CB000918C87827D78736E69645F5A55504B464C
:103CC000413C37322D28231E19140F0A0500040920
:103CD0000E13181D22272C31363B40454A4F5459AC
:103CE0005E63686D72777C81868B90959A9FA4A99C
:103CF000AEB3AFAAA5A09B968F89837E78736E69B9
:103D0000645F5A55504B47423E3935302C27231FAC
:103D10001B16120E09050103070B1014191D22268C
:103D20002B2F34393D42474C51565B60656B7075A3
:103D30007B80868C92979DA3A9AFB2ACA6A09A94E3
:103D40008F827C76706B65605C57524E4A46413D6F
:103D50003936322E2A26221F1B1713100C08040195
:103D600002060A0E12161A1E22262B2F33383D4148
:103D7000464B4F54595E64696F747A80878D949B6B
:103D8000A2AAB1AEA69F979089826F68635E5955CB
:103D9000514D4946423F3C3835322E2B2824211EB6
:103DA0001A1714100D0A0603000306090D10141843
:103DB0001C2024282C3034393D41464A4F54585D4C
:103DC00062676D737980878F98A2ACB0A59A908650
:103DD0007D766F55514D4A4744413F3C3A38353323
:103DE000312E2B292623201D1A1713100D0A070424
:103DF00001010306090D1013171A1E22262A2E325E
:103E0000363A3E42464A4E53575B5F64696E757C54
:103E100085909FB2A08D7D7067605A553E3C3A39BF
:103E20003736343332302F2E2C2A292724221F1CD8
:103E3000191613100D0A070402000305080A0D10D5
:103E400013161A1D2125292D3135383C4043464A89
:103E50004D505356595B5E6165696F826D544D4A92
:103E6000474442403E2E2E2D2C2C2B2A2A2929282D
:103E70002726252423211F1C1A1714100D0A0704B6
:103E80000101030507090C0E1013161A1D21242821
:103E90002C3033373A3D40424447484A4A4B4A481F
:103EA000443D3019021621282B2D2E2F2E2E0609C7
:103EB0000C0F121517191B1C1B1811040E22313878
:103EC0003C3C3C3A3835322F2B2824201C19151144
:103ED0000D09050102060A0E1115181C1F222527BF
:103EE000292A2B2B2926211911080004080A0A0A5D
:103EF0000807040200030616181A1C1E20211F17AB
:103F000012516063625F5D5956524E4A46423E39D5
:103F100035312C2824201B17130E0A060102060A2D
:103F20000F13171B1F23262A2D313437393C3D3FF1
:103F30003F3E3D39352F28211C1715131313141636
:103F4000A8ADB2B0ABA6A19C97928D88837E797400
:103F50006F6A65605B56514C47423D38332E2924C9
:103F60001F1A15100B060103080D12171C21262B12
:103F700030353A3F44494E53585D62676C71767BE9
:103F800080858A8F94999EA3A800000001FFFFE01E
:103F900000000000000001FFFFF000000000000032
:103FA00001FFFFF800000000000001FFFFFE00001D
:103FB0000000000003FFFFFF00000000000003FFFF
:103FC000FFFFF000000000000FFFFFFFFE000000F9
:103FD00003FFFFFC000007FC00007FFFFFFC000068
:103FE00000000000001FFFFE0000000000241E195A
:103FF0001512100E0C0B0A09090908080807060615
:104000000504040403040404000000000000000090
:10401000000027262123252325242722292A2A1C9C
:1040200027282B33322725222C333130370000004C
:104030000000000000000080114011407132733414
:1040400033321312113211129334131453523100BC
:1040500021030406080B2D0A090705040241C011BB
:10406000C0511253547312111251527314733231DE
:1040700000210204050607080908060706240302B2
:104080000102000120012011C0011100313213741E
:1040900013143312F112D312510001022325060723
:1040A00046442342210001E0A0313213B4331112FF
:1040B0001100112011005233121332112001222459
:1040C00085042304020342410001E0A051121413AD
:1040D000151315341332514001201152133231009F
:1040E000012223040504050423010382612001E069
:1040F0001180113213541514333231402102010062
:104100003172314102234423020122012201026162
:104110004001A01180511214133415143312314090
:104120000102010302012052111220212243042224
:1041300041022102A10001E02011405153741332C9
:104140001140210203020302010011121132001179
:104150004122232221004102A1800160116011004F
:104160001132337413121140016203020321311220
:104170001112114001020102030201000100E121BC
:10418000E0A0112012117334333120016203624028
:10419000121112110011010001020122000120017F
:1041A00000E1C00100118011001211131214133428
:1041B000522001E2022120311211001100010021E0
:1041C0000201000140210002410001E060114011A4
:1041D000121113121413141332110021220342017D
:1041E00002210001001100121100112001004160A4
:1041F0000100C10001401120016011405112131251
:104200001314331231000142032201022100014044
:104210001100310011000100010001A0E10001A026
:104220000180112031529312110021C2210021403E
:10423000310011201100010001E0E16001E01100F6
:104240001172731231002142030102010220214048
:1042500011001120116001401160010001022102D2
:10426000000120014001A0513213125332112001EC
:10427000020182210021000100110031E000110043
:104280001160210001020102010100212001000151
:1042900060110011521312141352110041820102D5
:1042A00000010021401100110011A0110031001186
:1042B0002081220101000201002100016011005251
:1042C00013121314133231010002012201420100C2
:1042D0002100010001112011001120114071001175
:1042E000400102210201020100210221000100011E
:1042F0000011001211123312341332112001020185
:104300004201220100410001601120110011001141
:1043100000511231206102012202000201028120BB
:104320001100121173341332110041020182010095
:1043300061000180110011009132314021420102DF
:104340000200626140115214135433310041820162
:10435000220001020041000160911211525120011E
:10436000220103010202008261005133541514330B
:1043700031002102012203424102A1803192133215
:104380003100412203020103002203220102014005
:1043900011123395333101002201034203222122FD
:1043A0000102610001110011521312531231004138
:1043B00022032203002302030201022120321314EC
:1043C000161517161533112001620302030203228A
:1043D00001A24140111253141314133211010002AF
:1043E00001020302030202000223020322212032FF
:1043F0001416371817151312110021220302430255
:1044000043010302038221201112131415341514E1
:104410003211000162230203004302034201201211
:10442000131518193A17151311002102030263041A
:10443000E3020302030201024012131415171516BA
:10444000341220212243020300A32201001112157D
:10445000181C1E1D19161311000201030203042368
:10446000040324030443042304030203422011121F
:104470001415171836151331210203022302030104
:1044800000454E41424C4500000000000000000085
:1044900000000200000000000101545950450000D6
:1044A00000000000000000000000000300000040C9
:1044B000400102414354494F4E00000000000000FB
:1044C0000000000004000000803F0403414C545FE2
:1044D0004D415800000000000000000000050000F1
:1044E00000C84204045241444955530000000000F2
:1044F00000000000000009000000964304054D4143
:104500005247494E00000000000000000000000D6E
:10451000000000004000FF0000000000000000005C
:10452000000000000000000000000000000001008A
:104530004445425547000000000000000000000014
:104540000000000000000000FF000000000000006C
:10455000000000000000000000000000000000005B
:104560005363686564756C657220736C6970207440
:1045700061736B5B25755D202825752F25752F25AB
:1045800075290A005363686564756C6572206F76DF
:10459000657272756E207461736B5B25755D202882
:1045A00025752F2575290A000100524F4C4C00003B
:1045B000000000000000000000000000000000807B
:1045C0003F01015049544348000000000000000032
:1045D0000000000001000000004001025448524F5A
:1045E00054544C450000000000000000000300008F
:1045F0000040400103594157000000000000000046
:1046000000000000000002000000804000FF0000E9
:10461000000000000000000000000000000000009A
:10462000000000000001004D4F4E49544F52000061
:104630000000000000000000000000000000010178
:10464000564F4C545F50494E0000000000000000DF
:10465000000100000050410102435552525F504991
:104660004E00000000000000000002000000404179
:104670000403564F4C545F4D554C5400000000004D
:1046800000000003009A9921410404414D505F50FD
:104690004552564F4C540000000000000700000037
:1046A00088410405414D505F4F4646534554000034
:1046B00000000000000B0000000000030643415012
:1046C00041434954590000000000000000000F0061
:1046D00000404E450107564F4C54325F50494E0042
:1046E000000000000000001300000080BF04085616
:1046F0004F4C54325F4D554C5400000000000000F8
:1047000014000000803F00FF0000000000000000D7
:104710000000000000000000000000000000000099
:10472000FF0000000000000000000000000000008A
:1047300000000000000000000D94664E0D9403156B
:104740000D94033E0D9437B60D942F7A0D94EB7CA7
:104750000D94BC900D944A700D94DE080D94257C48
:104760000D9412360D94BD930D94C9070D940B0151
:104770000D9473680D94DE520D946C120D9406170F
:104780000D9487A90D944F150D949E740D94DF140C
:104790000D9476130D94259E0D9447AE0D9495912E
:1047A0000D9423340D948A130D9471330D941223B8
:1047B0000D9446130D94A37A0D9455560D94F33829
:1047C0000D941D340D9421680D94AD140D94F88949
:1047D0000D9422630D94BE570D94B3B70D945732C8
:1047E0000D94EEB70D94A7140D94FF640D94DB594E
:1047F0000D9412520D94B05D0D941A370D9424133C
:104800000D9411610D946D550D94E7B50D943D0D0A
:104810000D943D000D9458120D9418360D94491EB8
:104820000D949A800D9491950D94A8540D945F3336
:104830000D94842E0D945F020D9481510D94B2A2BB
:104840000D94CA4E0D9498530D94AD410D94AD1234
:104850000D94D2B70D947F800D94D0B70D94371579
:104860000D9446760D940A7E0D9455110D949D2855
:104870000D949AB70D94E47B0D9402AF0D9400044F
:104880000D947A900D941DA40D945D330D942CA974
:104890000D94F1090D949FB70D946D140D945A9BCE
:1048A0000D94550E0D9473810D94E8130D94A4741A
:1048B0000D94E77E0D94B73E0D945B900D94608946
:1048C0000D946F750D9421870D9432130D949E39BC
:1048D0000D943E330D94EE900D94A0800D947301D1
:1048E0000D94BA130D94621C0D9489790D94E3A371
:1048F0000D94CE120D94747C0D9470850D94442CFF
:104900000D940DA20D94FC630D94AE580D9435B624
:104910000D9419800D945D9E0D94A4360D94410361
:104920000D94D2520D94F04E0D943E4F0D941041C3
:104930000D94371D0D9461600D94C1710D9436383E
:104940000D94F7230D9414950D9493150D942D2C1F
:104950000D94037E0D94A7600D94FD8A0D9444334D
:104960000D94F1390D94DE320D94EA7B0D94E1B192
:104970000D94195F0D9464930D94105F0D949253F0
:104980000D94D4140D945DB20D94AC920D94591401
:104990000D94122D0D94F77D0D94072D0D94AF15E8
:1049A0000D946B380D943B380D94473C0D94AA360A
:1049B0000D9461180D940C390D945A3D0D94C87FD7
:1049C0000D94B9750D94F7390D94A6B60D94BA7976
:1049D0000D94155D0D94C5A90D94C8110D948B3BD4
:1049E0000D94E42E0D946D800D94E87B0D94AA2E09
:1049F0000D9462900D941A140D94A7740D94A71F32
:104A00000D94FD7D0D94E4320D94EF140D94FD1280
:104A10000D9487740D9449290D94EC1A0D94201867
:104A20000D94BF0D0D94D7100D946C0F0D943F8411
:104A30000D9451130D94E68C0D9471710D942914FD
:104A40000D94E86A0D9412390D94731A0D94D85E82
:104A50000D94D8520D94FA130D94E97B0D94FF3800
:104A60000D94943A0D948EB80D94A57C0D94220962
:104A70000D94D2540D945D050D94F0B70D94826D94
:104A80000D9499990D94CB6F0D94502E0D942C3854
:104A90000D949E120D941B760D941C620D94EF18CC
:104AA0000D9403420D945A510D947F330D9458A3E5
:104AB0000D94272C0D9456900D9493900D94068D83
:104AC0000D949D360D9437480D9450A70D94B07FEA
:104AD0000D9449920D94232D0D9478150D94A418DE
:104AE0000D941C150D9416BF0D9438760D94AA7F65
:104AF0000D9492490D9471310D9460510D940539C6
:104B00000D9487730D945F2D0D94CA560D948C11DE
:104B10000D94A00E0D9431380D9403130D94CF66AF
:104B20000D9445380D947D900D9460900D94937D77
:104B30000D94999A0D945A000D9461330D94FD3D96
:104B40000D94E5750D94E0550D94C1140D947212F9
:104B50000D94AF380D940A500D9443750D9479332C
:104B60000D9479A20D9497950D946E900D946EB955
:104B70000D94BE390D9477750D94C8130D947788F4
:104B80000D9461810D9473330D9483790D94508A43
:104B90000D94B8250D9431540D945E6E0D940281E0
:104BA0000D945E150D9475330D9404030D94ED7EF4
:104BB0000D94455E0D94F2B70D9485A10D94741675
:104BC0000D946C070D94D8120D9440760D94B1B7E6
:104BD0000D94699D0D94832C0D9477330D940006EC
:104BE0000D940F750D94AC900D944C120D94A1146E
:104BF0000D941D2D0D94C00A0D94DE820D946C79D8
:104C00000D94AA050D947F700D94E4A50D94363291
:104C10000D94103B0483859200A2BDAAD7AEDAAEF4
:104C2000AFAF64FA52257C25878611241FBECFEFD3
:104C3000D1E2DEBFCDBF00E00CBF15E0A0E0B2E0E6
:104C4000E0EBF5E803E00BBF02C007900D92AE3930
:104C5000B107D9F718E1AEE9B5E001C01D92AF3058
:104C6000B107E1F71CE4C8E2DCE400E006C02297EB
:104C70000109FE010BBF0F9488C0C431D10780E049
:104C80000807A9F70E949D740D94C7C20C940000F8
:104C9000089508958091C6149091C71481309105AC
:104CA00001F52091310E3091320E4091330E50912A
:104CB000340E60E070E088E493E40F94FFB920E0E4
:104CC00030E048E452E40F94DDBA1816CCF080913D
:104CD000E3149091E41401969093E4148093E31408
:104CE0000895029769F48091F01280FF09C08091C5
:104CF000E5149091E61401969093E6148093E514E0
:104D000008950895A0917515B0917615ED91FC91D7
:104D100011970280F381E02DCD01199508958091BE
:104D2000751590917615DC01ED91FC910480F5816B
:104D3000E02D199508958091751590917615DC01F7
:104D4000ED91FC910680F781E02D199508958091F1
:104D5000A20A9091A30A2091C00A3091C10A2D3D68
:104D600035404CF4853325E092073CF0833896407B
:104D700034F081E0089583E0089580E0089582E0B2
:104D80000895E5DF2091EB1490912502821308C06D
:104D90009F5F90932502943168F08093C51407C0FB
:104DA0009150909325029A3028F48093EB148AE076
:104DB0008093250208958091450D80FF18C0809151
:104DC000CF109091D010039794F08091A41081FDA2
:104DD0000EC08091231183FD0AC090912A1190FD8D
:104DE00006C085FB882780F991E08927089580E037
:104DF0000895FC0112821382148215821682178292
:104E000010861186128613861486158616861786D6
:104E1000108A118A128A138A148A158A168A178AA6
:104E2000108E118E128E138E148E158E168E08957E
:104E3000FF920F931F93CF93DF93FC01868DDF01C9
:104E400094E0899FA00DB11D1124F42E042F152F7D
:104E5000262F372F12960D931D932D933C93159764
:104E60008F5F873010F4868F01C0168E362F272F64
:104E7000642F752F832F922FCDB7DEB7E5E00D9409
:104E80001DC0A0E0B0E0E7E4F7E20D94FABF8B01AB
:104E90007A01E90144E951E16CE67EEE0F94520497
:104EA0006C0144E951E16CE67EEEC8010F945204B6
:104EB0008C016091A0127091A112643981E1780790
:104EC00031F4F701D182C0821983088346C08091F2
:104ED000CA149091CB1468177907C1F07093CB1462
:104EE0006093CA14882777FD8095982F0F947FBB15
:104EF00020E030EA4CE855E40F94E4BA60932002D5
:104F000070932102809322029093230280902002CA
:104F100090902102A0902202B0902302B60188272F
:104F200077FD8095982F0F947FBBA50194010F9476
:104F3000AABD0F944CBBF70171836083B801882729
:104F400077FD8095982F0F947FBBA50194010F9456
:104F5000AABD0F944CBB79836883CDB7DEB7ECE074
:104F60000D9416C0A5E0B0E0E8EBF7E20D9404C0A4
:104F7000FE01319695E0DF011D929A95E9F793EADB
:104F8000998395E99A8393E19B838C836D8345E0B4
:104F900050E0BF0183E29DE00E947EE12596E2E0C1
:104FA0000D9420C0A6E0B0E0E8EDF7E20D9404C057
:104FB000BE016F5F7F4F96E0FB0111929A95E9F772
:104FC00093EA998395E99A8393E09B838C838091FC
:104FD0000A0A90910B0A9E838D8346E050E083E29B
:104FE0009DE00E947EE12696E2E00D9420C0A0E0C4
:104FF000B0E0EDEFF7E20D9402C0FE01389621918A
:10500000319181E08093BD0E8F0142E350E06EEB61
:105010007EE080917715909178150E948A9462E1E4
:1050200070E08AEB9EE00E946DB98091910F882319
:1050300079F083E3EDEBFEE0A4E9BFE001900D928F
:105040008A95E1F762E170E081E99FE00E946DB925
:10505000E4E00D941EC0CF93DF93EC018091BA0E73
:10506000882329F0BE018AEB9EE00E946DB98091F1
:10507000910F882329F0BE0181E99FE00E946DB95C
:10508000DF91CF9108958CE190E0E5CF80E090E052
:10509000E2CFA5E2B0E0EFE4F8E20D9402C08E01A9
:1050A0000F5F1F4F25E2F80111922A95E9F7B80129
:1050B0000F94994B6091480770914907A80183E2CA
:1050C0009DE00E942BEFA596E4E00D941EC0A0E0A9
:1050D000B0E0EDE6F8E20D94FEBF80915814909197
:1050E0005914A0915A146091D6097091D7099B0167
:1050F000442737FD4095281739074A0744F49C0197
:105100004A2F552747FD5095CA01B90104C0882789
:1051100077FD8095982F0F947FBB8B01D82FC92FD7
:105120008AEA95E00F947BB080FF2BC02091B705F1
:105130003091B8054091B9055091BA056091AF051D
:105140007091B0058091B1059091B2050F94FFB9AF
:1051500020E030E048EC52E40F94AABD6B017C01E2
:10516000762F272F3D2D4E2D5F2DFE01602F712FA5
:105170008F2F9E2F0F94DDBA87FD03C08601DE2D91
:10518000CF2D9E01602F712F832F9C2FCDB7DEB7BF
:10519000E8E00D941AC0CF92DF92EF92FF920F9346
:1051A0001F938091751590917615DC01ED91FC911E
:1051B0000680F781E02D19952091B7143091B8142D
:1051C0004091FF14509100152417350779F0309362
:1051D00000152093FF146093FB147093FC148093CC
:1051E000FD149093FE14109201153FC02091080207
:1051F0002223D9F10091FB141091FC142091FD148D
:105200003091FE146B017C01C01AD10AE20AF30A44
:105210009701860141E8C41644E8D4064EE1E4064D
:10522000F104F8F041E0409301151BC00134124431
:105230002F403105D0F06093FB147093FC148093E1
:10524000FD149093FE148091810C80FF0EC060E0ED
:1052500086E79CE00F945E7C86E79CE00F94E27DFD
:1052600004C0409101154111E1CF1F910F91FF90B2
:10527000EF90DF90CF9008950F931F93CF93DF931C
:10528000EC018B018091BA0E882331F0AB01BE0195
:105290008AEB9EE00E942DBA8091910F882331F015
:1052A000A801BE0181E99FE00E942DBADF91CF9154
:1052B0001F910F910895CF93C82F61E174E181E0B0
:1052C00090E0DADF8FE291E1CC2319F00E948AF0BE
:1052D00002C00E9462F267E274E181E090E0CCDFFC
:1052E000CF9108958091E909882321F088EB91E11D
:1052F0000C94F0FA08952F923F924F925F926F9222
:105300007F928F929F92AF92BF92CF92DF92EF9255
:10531000FF920F93CF93DF93CDB7DEB7A8970FB669
:10532000F894DEBF0FBECDBF1C01E09194098CE064
:10533000E89FF0011124E25AF64F80859185A285FD
:10534000B3858D8F9E8FAF8FB8A384819581A68101
:10535000B78189A39AA3ABA3BCA3C080D180E2800C
:10536000F38080908F0790909007A0909107B09065
:10537000920740908B0750908C0760908D0770903B
:105380008E078091870790918807A0918907B09137
:105390008A078DA39EA3AFA3B8A7C1DC69837A83D4
:1053A0008B839C838DA19EA1AFA1B8A58D839E8385
:1053B000AF83B88749865A866B867C868D869E86A3
:1053C000AF86B88AC98ADA8AEB8AFC8A89A19AA14F
:1053D000ABA1BCA18D8B9E8BAF8BB88F8D8D9E8D1D
:1053E000AF8DB8A1898F9A8FAB8FBC8F07E22CE16C
:1053F000AE014F5F5F4F6EE1C1010E9473C5A89679
:105400000FB6F894DEBF0FBECDBFDF91CF910F91E5
:10541000FF90EF90DF90CF90BF90AF909F908F90D4
:105420007F906F905F904F903F902F900895AAE2E9
:10543000B0E0EDE1FAE20D94F4BF1C018091CF10D1
:105440009091D01002974CF08090C6109090C710A9
:10545000A090C810B090C91003C061DC4B015C0182
:1054600000919B0710919C07C090EE10D090EF1018
:10547000E090F010F090F11020E030E048EC52E4C1
:105480006091F2107091F3108091F4109091F510EA
:105490000F94AABD0F944CBB6BA37CA38DA39EA3BA
:1054A000209158143091591440915A14552747FDB2
:1054B0005095AAE0B0E00F947BBE2B013C012091F7
:1054C000D8103091D9104091DA10552747FD5095EA
:1054D0000F947BBE20915F14309160144091611451
:1054E000509162142FA338A749A75AA720915B14A3
:1054F00030915C1440915D1450915E1489829A82BF
:10550000AB82BC822D833E834F8358872FA138A561
:1055100049A55AA529873A874B875C876D877E877F
:105520008F87988B498A5A8A6B8A7C8A20E030E080
:1055300048EC52E4C701B6010F94AABD0F944CBBCE
:105540007E8B6D8B4BA15CA1588F4F8B20E030E0A0
:1055500048EC52ECC701B6010F94AABD0F944CBBA6
:105560007A8F698F1C8F0B8F08E62CE1AE014F5F9D
:105570005F4F61E2C1010E9473C5AA96E2E10D94FA
:1055800010C0A4E1B0E0E7ECFAE20D94F6BF7C01B4
:105590006091551470915614882777FD8095982F47
:1055A0000F947FBB20E030E048EC52E40F94E4BA63
:1055B0005B016C018091581490915914A0915A1478
:1055C0009C014A2F552747FD5095CA01B9010F94F8
:1055D0007FBB20E030E048EC52E40F94E4BA3B019A
:1055E0004C0180916C0A90916D0A6AE070E00F9412
:1055F000BABE8B0160919B0770919C0780919D07BB
:1056000090919E0724E630E040E050E00F94EFBE1A
:10561000CA01B90128E631E040E050E00F94EFBE46
:105620002091E3103091E4104091E5105091E61084
:1056300029833A834B835C832D833E834F83588732
:10564000462C572C682C792C49865A866B867C868A
:105650008A2C9B2CAC2CBD2C8D869E86AF86B88A5E
:105660007A8B698B0B8B1C8B04E124E1AE014F5FBD
:105670005F4F6AE4C7010E9473C56496E0E10D9430
:1056800012C00F93CF93DF931F921F92CDB7DEB757
:1056900020915107309152072F3F4FEF340711F4FB
:1056A00020E030E03A8329830CE122E0AE014F5F35
:1056B0005F4F6AE20E9473C50F900F90DF91CF9108
:1056C0000F9108950F93CF93DF93CDB7DEB728974F
:1056D0000FB6F894DEBF0FBECDBF2091AC052223DC
:1056E00049F1F091CF05F0FF02C0E2E001C0E0E037
:1056F000F1FDE3E02091D4053091D5054091D0052E
:105700005091D1056091D2057091D30549835A8398
:105710006B837C833E832D8321E0F11101C020E067
:105720002F83E8870DEB28E0AE014F5F5F4F62EA01
:105730000E9473C528960FB6F894DEBF0FBECDBF8A
:10574000DF91CF910F910895A3E0B0E0EAEAFBE288
:105750000D9400C07C018091651590916615DC0167
:10576000ED91FC910488F589E02D1995182F809111
:10577000691590916A15DC01ED91FC910480F58129
:10578000E02D199520E030E04AE754E40F94AABDDB
:105790000F9451BB7A8369831B8305E123E0AE013B
:1057A0004F5F5F4F65EAC7010E9473C52396E6E02D
:1057B0000D941CC0CF93DF93C8E2D0E08091B10973
:1057C0009091B209DC01ED91FC910284F385E02D0A
:1057D00063EC7FE11995219789F78091B109909148
:1057E000B2090E942496DF91CF910895CF93DF9361
:1057F000EC0109C0219767E372E08091B1099091B3
:10580000B2090E9438961C161D06A4F3DF91CF91B1
:1058100008958BED92E10D945DB58091490D982F1F
:105820009B5F923028F480EF92E10F94C0A310C0E8
:10583000893F51F0853F41F0863F99F480916B1488
:1058400090916C14019769F480EF92E10F94A9A3F1
:1058500060936714709368148093691490936A142A
:10586000089510926714109268141092691410929F
:105870006A140895A7E1B0E0E0E4FCE20D9402C0F0
:105880008E010F5F1F4F87E1D8011D928A95E9F7BE
:1058900083EA898385E98A8381E08B83809175150A
:1058A00090917615DC01ED91FC910480F581E02D5D
:1058B00019956C837D838E839F836091FC06709124
:1058C000FD068091FE069091FF060F944CBB7987F0
:1058D000688780919307909194079B878A8760914E
:1058E00000077091010780910207909103070F94C0
:1058F0004CBB7D876C8780919707909198079F8715
:105900008E8760910407709105078091060790913A
:1059100007070F9451BB798B688B80919B079091FF
:105920009C079B8B8A8B85E897E00F946B3820E06F
:1059300030E048EC52E40F94AABD0F9451BB7D8B2C
:105940006C8B85E897E00F94AF3820E030E048ECAE
:1059500052E40F94AABD0F9451BB7F8B6E8B47E12D
:1059600050E0B80183E29DE00E947EE16796E4E0AA
:105970000D941EC08BE39EE00F94008D81EA9EE0A3
:105980000D9487868091BA0E882331F060E070E034
:105990008AEB9EE00E9496BB8091910F882331F0A4
:1059A00060E070E081E99FE00C9496BB08958F92CF
:1059B0009F92AF92BF92EF920F931F9380917E14AC
:1059C000882309F44FC0815080937E148091091878
:1059D0008260809309186091300A7091310A88279B
:1059E00077FD8095982F0F947FBB20E030E04AE749
:1059F00055E40F94E4BA0F9475044B015C01609177
:105A00004D0A70914E0A882777FD8095982F0F9444
:105A10007FBB20E030E04AE755E40F94E4BA0F94EE
:105A200075048B019C018091B70782608093B70752
:105A3000EE24E39480917E148111E12CB501A40140
:105A400085E897E00F94123680917E1481110AC088
:105A50008091B7078D7F8093B707809109188D7F5C
:105A6000809309181F910F91EF90BF90AF909F9076
:105A70008F9008958091450D87FD06C08091470D58
:105A800082FB882780F9089581E008958091231191
:105A900085FF06C08F7D8093231160E081E162CA9B
:105AA00008950F931F93CF93DF9360912A0A70910B
:105AB0002B0A80912C0A90912D0A2091810C20FFB5
:105AC00080C02091460D25FD7CC0C1E020E030E083
:105AD000A9010F945ABD18160CF0C0E0CC2309F4AC
