:100000000C947F240C94B0240C94B0240C94B02451
:100010000C94B0240C94B0240C94B0240C9445900F
:100020000C94B0240C94B0240C94B0240C94B02400
:100030000C94B0240C94B0240C94B0240C94DAA248
:100040000C94B0240C94B0240C94B0240C94B024E0
:100050000C94B0240C94B0240C94B0240C94B024D0
:100060000C94B0240C94EF900C941E910C94B0243A
:100070000C94B0240C94B0240C94B0240C94B024B0
:100080000C94B0240C94B0240C94B0240C94B024A0
:100090000C9459910C9488910C94B0240C9428954C
:1000A0000C94B0240C9407A30C94B0240C94B024AA
:1000B0000C94B0240C94B0240C9434A30C94B0246D
:1000C0000C94B0240C94B0240C94839B0C94C39196
:1000D0000C94F2910C94B0240C94B0240C94B024A1
:1000E0000C94B024E732EC32EC32EA32EC32E732F4
:1000F000E732E732E732EC32E732EC32E732E7322E
:10010000EC32EC32EC32EC32EC32EC32E732064AD2
:10011000584A634A2A4A454A6E4A0F4BBF4AB44A74
:100120009F4ACA4AE14AF64A794A8A4A7B4B2D4B92
:100130001A4B4A4B544B7B4B5E4B7B4B724B7B4B6E
:10014000404B2654395442544E543B5893543B58D8
:10015000E854EE54F7543B583F5402553B5815555C
:100160001F55E8573B583B583B583B583B58F757AF
:10017000FF5706580F581F588B596C5CD759A45914
:10018000B559E8591B5A6C5C6C5CBB5A6C5C5F5A85
:100190006C5C0A5A6C5C6C5CEE5A075B205B6C5CB6
:1001A000C659705AA25A6C5CCC5AF9596C5C895A7F
:1001B0006C5C395B4A5B6C5C6C5C2C5A3D5A4E5AE9
:1001C0006C5C5B5B8B5BDD5AA45B6C5C6C5C6C5C3D
:1001D000B55BC05BD15BE25BF35B045C155C2E67D7
:1001E0003767556767677C679167A667BB67CD67A9
:1001F000DF67029802980798079807980C980C9860
:100200000C981E98119811982B982F98359839981A
:100210003D98439847984B985A98519855986498A8
:1002200068986E98729876987C988098849893983D
:100230008A988E98AC98B198B698BB98C098C59893
:10024000CA98CF98DD98D498D9980B991099159998
:100250001A991F99249929992E993D99339938997A
:10026000A9ACA9ACB9ACDBACCFACE2ACE9ACF9ACB5
:1002700011AD4EAD72BC6DBC79BC7DBC88BCA2BC5E
:10028000C7BCD0BCBEC0B7C0C7C0D2C0E3C0F5C0F9
:1002900018C13AC143C102C2FBC10AC214C228C27A
:1002A0003EC255C273C27FC291CF34D01FD172D02B
:1002B0001FD11FD1B9CFE2CF1FD11FD19FD000D105
:1002C000C7D01FD11FD11FD11FD11FD11FD11FD107
:1002D0001FD11FD11FD11FD1E2D01FD11FD11FD1DC
:1002E0001FD11FD11FD11FD185CF17D01FD159D0FA
:1002F000F3CF1FD1ACCFD1CF1FD11FD11FD11FD171
:10030000ACD0BEFAD2FAD8FA04FB13FB34FB3EFBA6
:1003100063FB69FB8AFB98FBACFBB7FBDCFBF0FBE8
:1003200020FC2EFC4EFC60FC80FC8FFCBFFCD3FC50
:1003300007FD0DFD13FD27FD3AFD45FD55FD69FD4A
:1003400082FD9DFDB5FDC4FDDEFDF9FD15FEBA2360
:10035000BA235624AE23AE23AE23AE23AE23AE2360
:10036000BA23AE23AE23AE23AE23562456245624FE
:10037000562456245624AE23AE23BA23BA23562439
:100380009C235C239C235C239C235C239C230823C9
:100390000823082308230823082308230823082305
:1003A00070249C235C239C235C239C235C239C2340
:1003B0005C239C2370249C23082308235C239C2318
:1003C00008235C239C235C239C2370244224C423A5
:1003D0004224C4234224C4234224C4234224C423E9
:1003E000CC22CC22CC22BE23BE23CC22CC22CC22B7
:1003F000BE23BE230424042404241424142404242B
:100400000424042414241424E423AA22E423AA2286
:10041000E423AA22E423AA22E423B823036EDB36D2
:100420003D9A9999993DABAAAA2A3E000000803FC7
:10043000084AD73B3BCE016E84BCBFFDC12F3D6C4B
:1004400074319ABD56833DDA3D00C77F11BED9E4B1
:10045000BB4C3E916BAAAABE000000803F072C7ADD
:10046000A5BA6CC590DA3B9365FC8BBC53F810FDC4
:100470003C5692834DBD879D3AB63DCBC9BF5BBE0E
:1004800073DA0FC93F05A84CCDB2D44EB93836A99E
:10049000020C50B9918688083CA6AAAA2ABE000080
:1004A00000803F08000000BE922449123EABAAAA79
:1004B0002ABECDCCCC4C3E00000080BEABAAAAAA7E
:1004C0003E00000000BF000000803F000000000070
:1004D000084178D3BB4387D1133D190E3CC3BD42BD
:1004E00082AD2B3E68EC8276BED98FE1A93E4C806E
:1004F000EFFFBE01C4FF7F3F000000000002535920
:100500005349445F53575F4D524556000000000069
:10051000B809000000000153595349445F53575F25
:10052000545950450000000001BA09000020410262
:1005300053595349445F544849534D4156000000B4
:100540000070BB090000803F0253595349445F4D7E
:100550005947435300000000000071BD0900007FAF
:10056000430253455249414C305F424155440000DB
:1005700000000031BF090000E642025345524941E4
:100580004C315F42415544000000000032C1090077
:100590000064420154454C454D5F44454C4159006F
:1005A000000000000073C309000000000252544C18
:1005B0005F414C5400000000000000000000A0C497
:1005C000090080BB4404524E47464E445F474149B0
:1005D0004E0000000000001EC609CDCC4C3F014675
:1005E000535F424154545F454E41424C4500000028
:1005F000C1CA09000000000446535F424154545FE1
:10060000564F4C54414745000097CB090000284104
:100610000446535F424154545F4D4148000000007E
:10062000000025CF09000000000146535F475053EA
:100630005F454E41424C4500000000C3D309000015
:10064000803F0146535F4743535F454E41424C450F
:1006500000000000C6D4090000803F024750535FED
:1006600048444F505F474F4F440000000023D509D6
:1006700000006643014D41475F454E41424C4500F5
:1006800000000000000092D7090000803F01464CA6
:100690004F575F454E41424C450000000000009618
:1006A000D809000000000153555045525F53494D91
:1006B000504C4500000000009BD9090000000002DA
:1006C00052544C5F414C545F46494E414C0000002F
:1006D00000A3DA090000000001525353495F50495A
:1006E0004E00000000000000000018DC090000803F
:1006F000BF04525353495F52414E4745000000002A
:1007000000000027DD090000A0400157505F59415B
:10071000575F4245484156494F5200001AE10900CF
:100720000000400352544C5F4C4F49545F54494DB4
:100730004500000000A2E70900409C45024C414EE4
:10074000445F535045454400000000000000D9EBD1
:1007500009000048420250494C4F545F56454C5ADC
:100760005F4D41580000001CED0900007A43025023
:10077000494C4F545F414343454C5F5A00000000D1
:1007800030EF0900007A43025448525F4D494E0051
:10079000000000000000000000B4F1090000024366
:1007A000025448525F4D4158000000000000000014
:1007B0000000B5F30900007A440146535F544852E3
:1007C0005F454E41424C4500000000B6F50900006F
:1007D00000000246535F5448525F56414C55450055
:1007E00000000000B8F60900C07344025452494D9D
:1007F0005F5448524F54544C4500000000B9F8096A
:100800000000E143025448525F4D4944000000009B
:10081000000000000000C2FA090000FA4302544838
:10082000525F445A00000000000000000000003940
:10083000FC090000C84201464C544D4F444531006C
:100840000000000000000000C8FE090000000001D8
:10085000464C544D4F44453200000000000000005B
:1008600000C9FF090000000001464C544D4F4445AB
:1008700033000000000000000000CA000A00000071
:100880000001464C544D4F44453400000000000028
:10089000000000CB010A0000000001464C544D4FFF
:1008A000444535000000000000000000CC020A00B2
:1008B00000000001464C544D4F44453600000000F6
:1008C0000000000000CD030A000000000153494D64
:1008D000504C450000000000000000000000CE0465
:1008E0000A00000000034C4F475F4249544D4153FA
:1008F0004B0000000000003C050A00805F440145F9
:100900005343000000000000000000000000000051
:10091000BA090A000000000154554E4500000000CD
:10092000000000000000000000BB0A0A00000000F8
:100930000254554E455F4C4F570000000000000028
:100940000000BD0D0A000000000254554E455F48EE
:100950004947480000000000000000BC0B0A0000EE
:100960007A44014652414D4500000000000000005D
:1009700000000000950F0A0000803F014348375FE8
:100980004F50540000000000000000000098100AC2
:1009900000000000014348385F4F50540000000041
:1009A0000000000000001F110A0000000001415279
:1009B0004D494E475F434845434B0000000000202F
:1009C000120A0000803F02414E474C455F4D41589E
:1009D0000000000000000000228D1200A08C4501E4
:1009E00052435F4645454C5F5250000000000000F6
:1009F0000028E2090000C8420250484C445F4252BD
:100A0000414B455F5241544500002EE30900000070
:100A1000410250484C445F4252414B455F414E4772
:100A20004C45002FE50900803B45014C414E445F99
:100A30005245504F534954494F4E000034130A0059
:100A400000803F04454B465F434845434B5F544855
:100A5000524553480036140ACDCC4C3F0444434D14
:100A60005F434845434B5F544852455348003B1849
:100A70000ACDCC4C3F085243315F0000000000001B
:100A800000000000000000AA1C0A01340000085207
:100A900043325F0000000000000000000000000082
:100AA000AB390A01340000085243335F00000000F4
:100AB000000000000000000000AC560A01340000F5
:100AC000085243345F0000000000000000000000F6
:100AD0000000AD730A01340000085243355F000086
:100AE0000000000000000000000000AE900A9734F3
:100AF0000000085243365F000000000000000000C4
:100B000000000000AFAE0A97340000085243375F80
:100B100000000000000000000000000000B0CC0A4F
:100B200097340000085243385F00000000000000C6
:100B3000000000000000B1EA0A97340000085243A8
:100B400031305F000000000000000000000000B233
:100B5000080B9734000008524331315F0000000059
:100B60000000000000000000B3260B9734000002D4
:100B700052435F5350454544000000000000000010
:100B800000C0440B0000F543044143524F5F5250F4
:100B90005F500000000000000000DD460B000090E8
:100BA00040044143524F5F5941575F5000000000DD
:100BB000000000F44A0B00009040044143524F5F94
:100BC00042414C5F524F4C4C00000000F24E0B0073
:100BD00000803F044143524F5F42414C5F504954B3
:100BE0004348000000F3520B0000803F0141435294
:100BF0004F5F545241494E455200000000001B56C1
:100C00000B00000040044143524F5F4558504F00D5
:100C10000000000000000038570B9A99993E0852D6
:100C20004154455F524C4C5F000000000000000042
:100C3000DF5B0BA332000008524154455F5049541A
:100C40005F0000000000000000E0790BA33200000C
:100C500008524154455F5941575F000000000000B1
:100C60000000E1970BA3320000084C4F4954455255
:100C70005F4C41545F000000000000E7B50BA33259
:100C80000000084C4F495445525F4C4F4E5F0000E6
:100C900000000000E8D30BA3320000085448525F64
:100CA000524154455F0000000000000000ECF10BD1
:100CB00071320000085448525F414343454C5F0085
:100CC000000000000000F1F50BA3320000084F46C1
:100CD0005F524C4C5F00000000000000000000ED7F
:100CE000130CA3320000084F465F5049545F0000C8
:100CF0000000000000000000EE310CA332000008EC
:100D00005354425F524C4C5F000000000000000052
:100D100000E2530C71320000085354425F504954B2
:100D20005F000000000000000000E3570C7132007B
:100D300000085354425F5941575F00000000000013
:100D4000000000E45B0C71320000085448525F411F
:100D50004C545F000000000000000000EB5F0C71CD
:100D600032000008484C445F4C41545F00000000D2
:100D70000000000000E54F0C713200000843414DB7
:100D80005F00000000000000000000000000A58ED1
:100D90000EF03600000852454C41595F000000003B
:100DA000000000000000000DBB13A5360000084342
:100DB0004F4D504153535F00000000000000000001
:100DC00093A5119C2D000008494E535F00000000C0
:100DD000000000000000000000033909A22E0000FE
:100DE00008494E41565F000000000000000000006E
:100DF000000064370D483900000857504E41565FD7
:100E0000000000000000000000000065DD12DE3977
:100E1000000008434952434C455F000000000000B9
:100E20000000000068BD1393390000084154435F7F
:100E30000000000000000000000000000066AB069B
:100E40002033000008504F53434F4E5F0000000016
:100E500000000000000067C805CF330000085352AF
:100E6000305F000000000000000000000000006E85
:100E7000A70E06100000085352315F00000000006A
:100E800000000000000000006F7E0F061000000848
:100E9000414852535F0000000000000000000000C5
:100EA000009F73072C310000084D4E545F00000076
:100EB00000000000000000000000A6280E86370099
:100EC0000008424154545F00000000000000000090
:100ED00000000024591035440000084252445F00CD
:100EE0000000000000000000000000000FF4132FBD
:100EF00045000008474E445F00000000000000006D
:100F000000000000000B1C115A2A00000847505333
:100F10005F0000000000000000000000000010AFB3
:100F200010242600000853434845445F0000000099
:100F3000000000000000000CA1093E43000008462C
:100F4000454E43455F000000000000000000000027
:100F50004598058F42000008475053474C49544379
:100F6000485F00000000000000468F10932600003C
:100F7000084241524F474C5443485F000000000074
:100F8000000047F513B42B0000084D4F545F0000DC
:100F900000000000000000000000005A640CE23471
:100FA00000000852434D41505F0000000000000067
:100FB00000000000C70D14B8430000084D49535FFE
:100FC000000000000000000000000000002A3107BF
:100FD0002632000008524E47464E440000000000F2
:100FE00000000000000035111492350000000000E0
:100FF00000000000000000000000000000000000F1
:1010000000000000000002005241575F53454E535C
:101010000000000000000000006600000000000268
:10102000014558545F535441540000000000000033
:101030000000680000000000020252435F43484184
:101040004E000000000000000000006A00000000E8
:101050000002035241575F4354524C00000000000D
:10106000000000006C00000000000204504F5349D3
:1010700054494F4E0000000000000000006E0000C8
:1010800000000002054558545241310000000000A4
:10109000000000000000700000000000020645583B
:1010A00054524132000000000000000000000072B5
:1010B0000000000000020745585452413300000070
:1010C00000000000000000007400000000000208A2
:1010D000504152414D53000000000000000000004C
:1010E0000076000000000000FF000000000000008B
:1010F00000000000000000000000000000000000F0
:10110000724301006400DE440200C201C03D0200DF
:10111000840374430A00D0023F580A003200446B33
:101120000A000A00C22A0A008C0012390A00E803E9
:10113000106B04002003222F0100320011592100FE
:101140005A008C2A0200A401B3240200FA00882A63
:101150000200640048486400A4013C2B0A0014000B
:1011600048410A0014005D260200D002FC4C020037
:10117000B603802A0200C20153300A002C016031FC
:101180000200DC00825CE803C800C02C0A003200C8
:10119000B42401006400E6290200640046340A0019
:1011A0006400B52464006400504552463A20257519
:1011B0002F257520256C750A0041726475436F7088
:1011C0007465722056332E322E31004672616D6581
:1011D0003A20515541440050726541726D3A205297
:1011E00043206E6F742063616C6962726174656420
:1011F0000050726541726D3A2047505320476C6928
:101200007463680050726541726D3A204E65656482
:10121000203344204669780050726541726D3A204F
:101220004261642056656C6F636974790050726521
:1012300041726D3A204869676820475053204844FE
:101240004F500050726541726D3A204261726F20BA
:101250006E6F74206865616C7468790050726541C6
:10126000726D3A20416C74206469737061726974A4
:10127000790050726541726D3A20436F6D706173F1
:1012800073206E6F74206865616C746879005072A9
:101290006541726D3A20436F6D70617373206E6F9C
:1012A000742063616C696272617465640050726578
:1012B00041726D3A20436F6D70617373206F666683
:1012C0007365747320746F6F20686967680050726B
:1012D0006541726D3A20436865636B206D616720DC
:1012E0006669656C640050726541726D3A2063688E
:1012F00065636B2066656E63650050726541726D53
:101300003A20494E53206E6F742063616C6962729B
:10131000617465640050726541726D3A2041636387
:10132000656C73206E6F74206865616C74687900F9
:1013300050726541726D3A204779726F73206E6FFB
:1013400074206865616C7468790050726541726DD3
:101350003A204779726F2063616C206661696C6521
:10136000640050726541726D3A20436865636B207A
:10137000426F61726420566F6C74616765005072D1
:101380006541726D3A2043683726436838204F70B4
:10139000742063616E6E6F742062652073616D6589
:1013A0000050726541726D3A20436865636B204658
:1013B000535F5448525F56414C5545005072654149
:1013C000726D3A20436865636B20414E474C455F20
:1013D0004D41580050726541726D3A204143524F61
:1013E0005F42414C5F524F4C4C2F50495443480090
:1013F00041726D3A204779726F2063616C2066619B
:10140000696C65640047524F554E44205354415215
:10141000540043616C6962726174696E6720626135
:10142000726F6D65746572006261726F6D6574656F
:10143000722063616C6962726174696F6E20636FA0
:101440006D706C6574650041726D3A204D6F646516
:10145000206E6F742061726D61626C650041726D07
:101460003A20416C74206469737061726974790008
:1014700041726D3A205468722062656C6F77204625
:10148000530041726D3A204C65616E696E67004190
:10149000726D3A205361666574792053776974637D
:1014A00068005472696D20736176656400417574DB
:1014B0006F54756E653A2053746F707065640041A7
:1014C00075746F54756E653A2053756363657373F5
:1014D000004175746F54756E653A204661696C659C
:1014E00064004175746F54756E653A20537461726F
:1014F000746564004C6F7720426174746572792161
:10150000004C6F73742047505321000A0A496E69DA
:10151000742041726475436F707465722056332E67
:10152000322E310A0A467265652052414D3A202515
:10153000750A008059464D54000042426E4E5A00D2
:1015400000000000000000000000547970652C4C81
:10155000656E6774682C4E616D652C466F726D61A7
:10156000742C436F6C756D6E7300000000000000FA
:10157000000000000000000000000000000000006B
:101580000000000000000000000081175041524D93
:10159000004E660000000000000000000000000097
:1015A000004E616D652C56616C7565000000000091
:1015B000000000000000000000000000000000002B
:1015C000000000000000000000000000000000001B
:1015D000000000000000000000000000000000000B
:1015E00000822D475053000042494842634C4C65ED
:1015F00065456566490000005374617475732C5429
:10160000696D654D532C5765656B2C4E5361747332
:101610002C48446F702C4C61742C4C6E672C5265B6
:101620006C416C742C416C742C5370642C47437265
:10163000732C565A2C540000831F494D5500004905
:1016400066666666666600000000000000000054E2
:10165000696D654D532C477972582C477972592C16
:101660004779725A2C416363582C416363592C416A
:1016700063635A000000000000000000000000004A
:1016800000000000000000000000000000000084D6
:10169000434D534700005A000000000000000000C6
:1016A0000000000000004D65737361676500000075
:1016B000000000000000000000000000000000002A
:1016C000000000000000000000000000000000001A
:1016D000000000000000000000000000000000000A
:1016E00000000000000085235243494E004968680D
:1016F0006868686868686868686868680054696DE0
:10170000654D532C43312C43322C43332C43342C22
:1017100043352C43362C43372C43382C43392C4348
:1017200031302C4331312C4331322C4331332C4373
:101730003134000000000000000000000086175255
:10174000434F550049686868686868686800000029
:101750000000000054696D654D532C4368616E3183
:101760002C4368616E322C4368616E332C43686190
:101770006E342C4368616E352C4368616E362C43A1
:1017800068616E372C4368616E380000000000000D
:101790000000000088154241524F004966666366AA
:1017A000000000000000000000000054696D654D5D
:1017B000532C416C742C50726573732C54656D708E
:1017C0002C435274000000000000000000000000E4
:1017D0000000000000000000000000000000000009
:1017E0000000000000000000000000890D504F576D
:1017F0005200494343480000000000000000000080
:10180000000054696D654D532C5663632C56536527
:1018100072766F2C466C6167730000000000000058
:1018200000000000000000000000000000000000B8
:1018300000000000000000000000000000000000A8
:1018400000009129434D44000049484848666666B7
:1018500066666666000000000054696D654D532C95
:1018600043546F742C434E756D2C4349642C507255
:101870006D312C50726D322C50726D332C50726D54
:10188000342C4C61742C4C6E672C416C740000003D
:1018900000000000000000000092105241440000CF
:1018A0004942424242424848000000000000000015
:1018B00054696D654D532C525353492C52656D52EA
:1018C0005353492C54784275662C4E6F6973652CBE
:1018D00052656D4E6F6973652C52784572726F72E6
:1018E000732C466978656400000000000000000069
:1018F000941F43414D000049484C4C656563634368
:101900000000000000000047505354696D652C47EB
:1019100050535765656B2C4C61742C4C6E672C4191
:101920006C742C52656C416C742C526F6C6C2C5026
:10193000697463682C5961770000000000000000A2
:101940000000000000000019194154554E004242A9
:1019500066666666660000000000000000004178D0
:1019600069732C54756E65537465702C526174657F
:101970004D696E2C526174654D61782C52504761EF
:10198000696E2C52444761696E2C53504761696EF1
:1019900000000000000000000000000000001A0924
:1019A0004154444500636600000000000000000050
:1019B0000000000000416E676C652C526174650088
:1019C0000000000000000000000000000000000017
:1019D0000000000000000000000000000000000007
:1019E00000000000000000000000000000000000F7
:1019F0000000000000091743555252004968496829
:101A000068686600000000000000000054696D6511
:101A10004D532C5468724F75742C546872496E740F
:101A20002C566F6C742C437572722C5663632C4366
:101A3000757272546F740000000000000000000016
:101A40000000000000000000000000000C144F46E1
:101A500000000068684263636565000000000000E4
:101A600000000044782C44792C535175616C2C583B
:101A70002C592C526F6C6C2C5069746368000000F8
:101A80000000000000000000000000000000000056
:101A90000000000000000000000000000000000046
:101AA000000000052F4E54554E0049666666666676
:101AB0006666666666000000000054696D654D53F9
:101AC0002C44506F73582C44506F73592C506F73C3
:101AD000582C506F73592C4456656C582C445665DD
:101AE0006C592C56656C582C56656C592C444163C6
:101AF00063582C4441636359000004214354554EFC
:101B0000004968686866666563636868000000008D
:101B10000054696D654D532C546872496E2C416EAA
:101B2000674273742C5468724F75742C44416C7402
:101B30002C416C742C426172416C742C4453416C86
:101B4000742C53416C742C444352742C43527400D3
:101B5000000F194D41470000496868686868686867
:101B6000686800000000000054696D654D532C4DFD
:101B70006167582C4D6167592C4D61675A2C4F662F
:101B800073582C4F6673592C4F66735A2C4D4F6601
:101B900073582C4D4F6673592C4D4F66735A000085
:101BA00000000000000000000611504D0000004839
:101BB0004849684248420000000000000000004E12
:101BC0004C6F6E2C4E4C6F6F702C4D6178542C50B6
:101BD0004D542C4932434572722C494E5345727212
:101BE0002C494E4156457272000000000000000072
:101BF00000000000000000000000000000000001E4
:101C000017415454000049636363634343434300F3
:101C100000000000000054696D654D532C4465734D
:101C2000526F6C6C2C526F6C6C2C446573506974E1
:101C300063682C50697463682C4465735961772C10
:101C40005961772C45727252502C457272596177E6
:101C500000000000000003064D4F4445004D6800A1
:101C6000000000000000000000000000004D6F6454
:101C7000652C54687243727300000000000000007D
:101C80000000000000000000000000000000000054
:101C90000000000000000000000000000000000044
:101CA000000000000000000000000000000A0353D4
:101CB000545254000000000000000000000000002A
:101CC0000000000000000000000000000000000014
:101CD0000000000000000000000000000000000004
:101CE00000000000000000000000000000000000F4
:101CF00000000000000000000000000000000000E4
:101D0000000000000D0445560000004200000000E5
:101D10000000000000000000000000496400000016
:101D200000000000000000000000000000000000B3
:101D300000000000000000000000000000000000A3
:101D40000000000000000000000000000000000093
:101D500000000000000000000000001406443136BE
:101D600000004268000000000000000000000000C9
:101D7000000049642C56616C75650000000000008D
:101D80000000000000000000000000000000000053
:101D90000000000000000000000000000000000043
:101DA0000000000000000000000000000000000033
:101DB000000015064455313600424800000000007E
:101DC00000000000000000000049642C56616C75A2
:101DD000650000000000000000000000000000009E
:101DE00000000000000000000000000000000000F3
:101DF00000000000000000000000000000000000E3
:101E0000000000000000000000160844333200000B
:101E10004269000000000000000000000000000017
:101E200049642C56616C75650000000000000000DC
:101E300000000000000000000000000000000000A2
:101E40000000000000000000000000000000000092
:101E50000000000000000000000000000000000082
:101E600017084455333200424900000000000000CA
:101E70000000000000000049642C56616C7565008C
:101E80000000000000000000000000000000000052
:101E90000000000000000000000000000000000042
:101EA0000000000000000000000000000000000032
:101EB00000000000000000180844464C5400426630
:101EC0000000000000000000000000000000496465
:101ED0002C56616C756500000000000000000000D9
:101EE00000000000000000000000000000000000F2
:101EF00000000000000000000000000000000000E2
:101F000000000000000000000000000000001305B9
:101F10004552520000424200000000000000000054
:101F200000000000005375627379732C45436F64A1
:101F3000650000000000000000000000000000003C
:101F40000000000000000000000000000000000091
:101F50000000000000000000000000000000000081
:101F600000000000004E6F2064617461666C617354
:101F70006820696E73657274656400455241534907
:101F80004E47204C4F4753000A52656164792074D4
:101F90006F20464C592000496E697469616C697301
:101FA000696E672041504D2E2E2E004657205665F3
:101FB000723A2025640A002D004261642076617225
:101FC000207461626C650A0042616420766172204F
:101FD0007461626C65004669726D77617265206339
:101FE00068616E67653A2065726173696E67204546
:101FF0004550524F4D2E2E2E0A00646F6E652E00F6
:102000008D000100424154545F4D4F4E49544F5290
:102010000000000000A8000100424154545F564FE8
:102020004C545F50494E00000000A900010042419D
:1020300054545F435552525F50494E000000008E89
:10204000000400424154545F564F4C545F4D554C70
:10205000540000008F000400424154545F414D5031
:102060005F504552564F4C5400910003004241547A
:10207000545F43415041434954590000000014004B
:1020800002004C4F475F4249544D41534B00000002
:102090000000006C6F61645F616C6C20746F6F6B2B
:1020A00020256C7575730A0045726173696E67202F
:1020B0006C6F67730A004C6F6720657261736520EF
:1020C000636F6D706C6574650A00456E7465726946
:1020D0006E67204553432043616C3A2072657374E8
:1020E0006172742041504D2E0A00455343204361D4
:1020F0006C3A2070617373696E67207468726F74D4
:10210000746C65207468726F75676820746F204501
:102110005343732E0A004553432063616C20696E5C
:102120007075743A20257520257520257520257534
:1021300020206F75747075743A20257520257520E0
:1021400025752025750A00434F4D504153532049B2
:102150004E4954204552524F520043726173683ABF
:102160002044697361726D696E670044434D20625B
:1021700061642068656164696E67005265616368C7
:10218000656420436F6D6D616E6420232569005284
:1021900065616368656420436F6D6D616E642023C3
:1021A000256900454550524F4D2066756C6C0025E1
:1021B000733A2025640A0025733A2025640A002515
:1021C000733A20256C640A0025733A2025660A00BC
:1021D000556E6B6E6F776E20636F6E766572736986
:1021E0006F6E20272553270A0042616420636F6EBB
:1021F00076657273696F6E20747970652027255338
:10220000270A00000000000006030000067609020D
:1022100000760F5A000100D00F30000000000000CF
:102220000503000005CA090200CA0E9600010060FD
:102230000FA000DCDFE1E3E6E8EBEDEFF2F4F7F905
:10224000FCFE000305080A0C0F111416181B1D20B4
:102250002224272C76D888674F0823C1DFAE59B1D6
:10226000B796E5E453C63A51997696E6C284268934
:102270008C9B62407C6FFCBC9C9F40BAA56FA59074
:10228000055A2A5C936B6C676DC11BE0E40D47F542
:1022900020E6B5D0ED902E009435770080841E00A6
:1022A00000204E000000C833333333986E12834150
:1022B000EF8D21893BE655CFFEE6DBD1844B38F725
:1022C0007C1D90A4BBE4243284725E8100C9F1ECD1
:1022D000A1E53D6E616E00696E66004572726F72B7
:1022E0003A2041505F48414C5F4156523A3A41567C
:1022F00052416E616C6F67496E206F7574206F6616
:10230000206368616E6E656C730D0A0050414E4922
:10231000433A207363686564756C65723A3A737901
:102320007374656D5F696E697469616C697A6564FF
:102330002063616C6C65646D6F7265207468616E9A
:10234000206F6E636500474F494E4720444F574EFC
:1023500020464F522041205245424F4F540D0A0013
:1023600050414E49433A2041565253656D61706861
:102370006F72653A3A74616B6520757365642066A7
:10238000726F6D20696E736964652074696D657222
:102390002070726F636573730050414E49433A2059
:1023A00053504930207472616E7366657220636F9A
:1023B0006C6C6973696F6E0050414E49433A20530B
:1023C00050493020777269746520636F6C6C697353
:1023D000696F6E00010210202008081020401020B4
:1023E00040800201020108040201010204081020D9
:1023F00040808040201008040201800402018040D7
:10240000201008040201080402010102040810203F
:1024100040800102040810204080400505050507A2
:102420000508080808020202020A0A08080404044F
:10243000040101010101010101030303030303037B
:1024400003040707070C0C0C0C0C0C0C0C0202020A
:102450000206060606060606060B0B0B0B0B0B0BFD
:102460000B05000020002300260029002C002F006F
:1024700032000001000003010601090100002200F2
:10248000250028002B002E0031003400020100003E
:10249000050108010B0100002100240027002A008B
:1024A0002D003000330001010000040107010A0182
:1024B000327C8900EDD968770000005900000000E7
:1024C00000000000D69FDCA81817AA90437327F6D7
:1024D000B968EDF4DED409FEE61C1C84DDE80B9936
:1024E0002927000000000F03000000000099B73307
:1024F0005276941500F37C000026149E988F0000FD
:10250000006A31161D0CF1E900E7B73F3600000004
:1025100000000000AF669ED0385DD36C20B9540037
:10252000007C77044C80387486EDCBFA57CBDC19ED
:10253000E2001DDF5506E5CB0100000000000000B1
:102540000000002A310086DBD0BC5416131586002B
:102550004E44BD7F9A15159001EA49B51653A78AD6
:10256000EAF02FBD34AE00000000000000000000C3
:10257000000000000000000000000000000000005B
:10258000000000000000000000000000000000004B
:10259000000000000000000000000000000000003B
:1025A000000000000000000008CC31AA2C532E00CF
:1025B000B56206010300010601124F24505542582E
:1025C0002C34312C312C303030332C303030312C15
:1025D00033383430302C302A32360D0A24504743F9
:1025E0004D442C31362C302C302C302C302C302AD1
:1025F00036410D0A24505352463130302C302C33A2
:10260000383430302C382C312C302A33430D0A002A
:10261000C01200000096000000C2010000E10000AE
:1026200080250000010054595045000000000000C2
:102630000000000000000002000000803F01024E88
:10264000415646494C54455200000000000000002D
:1026500003000000004100FF000000000000000037
:10266000000000000000000000000000000000204A
:1026700075626C6F782000204D544B31392000205A
:102680004D544B200020534952462000204E4D45CA
:102690004120000100454E41424C45000000000031
:1026A00000000000000003000000803F04015241D0
:1026B00044495553000000000000000000000004E1
:1026C00000000048430402414343454C0000000021
:1026D0000000000000000000080000007A4400FF35
:1026E00000000000000000000000000000000000EA
:1026F0000000000000000024504D544B3232302CBA
:102700003230302A32430D0A24504D544B3331338A
:102710002C312A32450D0A24504D544B3330312C84
:10272000322A32450D0A24504D544B3339372C3060
:102730002A32330D0A004750565447004750474746
:1027400041004750524D43002450535246313033DC
:102750002C302C302C312C312A32350D0A24505398
:1027600052463130332C312C302C302C312A32353A
:102770000D0A24505352463130332C322C302C3039
:102780002C312A32360D0A24505352463130332C24
:10279000332C302C302C312A32370D0A245053522E
:1027A000463130332C342C302C312C312A32300D40
:1027B0000A24505352463130332C352C302C312CD6
:1027C000312A32300D0A24505352463130332C36E0
:1027D0002C302C302C312A32320D0A2450535246E0
:1027E0003130332C382C302C302C312A32430D0A26
:1027F00024505352463135312C312A33460D0A24A8
:10280000505352463130362C32312A30460D0A248C
:10281000504D544B3331342C302C302C312C312C46
:10282000302C302C302C302C302C302C302C302CC8
:10283000302C302C302C302C302A32380D0A2450D9
:102840004D544B3333302C302A32450D0A24504D31
:10285000544B3331332C312A32450D0A24504D5418
:102860004B3330312C322A32450D0A245055425810
:102870002C34302C6767612C302C312C302C302CD0
:10288000302C302A37420D0A24505542582C34300F
:102890002C7674672C302C312C302C302C302C3092
:1028A0002A37460D0A24505542582C34302C726D6C
:1028B000632C302C302C302C302C302C302A3637F6
:1028C0000D0A00A0A20008A60200000000000000FF
:1028D000A8B0B3A0A20008A60029010000000000D3
:1028E000D0B0B350414E49433A2044617461466CC4
:1028F0006173682053504944657669636544726921
:10290000766572206E6F7420666F756E640050413C
:102910004E49433A2044617461466C6173682053A8
:1029200050494465766963654472697665722073BF
:10293000656D6170686F7265206973206E756C6C6F
:1029400000554E4B4E2C2025750A0025532C200097
:10295000256400257500256400257500256C64003C
:10296000256C7500256600252E326600252E326600
:1029700000252E326600252E326600257300257351
:10298000002573002C2000464D542C2025752C204A
:1029900025752C2025532C2025532C2025530A0047
:1029A000444620706167652C206C6F672066696CF7
:1029B0006520232C206C6F6720706167653A2025A5
:1029C000752C090025752C090025750A004E6F200D
:1029D00064617461666C61736820696E736572749A
:1029E0006564004D616E7566616374757265723AF7
:1029F0002030782530327820202044657669636560
:102A00003A203078253034780A004E756D50616771
:102A100065733A20257520205061676553697A6592
:102A20003A2025750A000A4E6F206C6F67730A0AF8
:102A3000000A2575206C6F67730A004C6F672025AC
:102A4000752C2020202073746172742025752C2031
:102A50002020656E642025750A0004024142535F00
:102A6000505245535300000000000000000C0000CD
:102A7000000000040354454D500000000000000019
:102A80000000000000000800000000000104414CAC
:102A9000545F4F46465345540000000000000010AC
:102AA000000000000000FF00000000000000000027
:102AB0000000000000000000000000000000504185
:102AC0004E49433A2041505F4261726F3A3A726513
:102AD000616420756E7375636365737366756C20CE
:102AE000666F72206D6F7265207468616E2035307C
:102AF000306D7320696E2041505F4261726F3A3AC7
:102B000063616C696272617465205B315D0D0A00FE
:102B100050414E49433A2041505F4261726F3A3A08
:102B20007265616420756E73756363657373667532
:102B30006C20666F72206D6F7265207468616E2004
:102B40003530306D7320696E2041505F4261726F85
:102B50003A3A63616C696272617465205B325D0D43
:102B60000A0050414E49433A2041505F4261726F22
:102B70003A3A7265616420756E7375636365737349
:102B800066756C20666F72206D6F72652074686167
:102B90006E203530306D7320696E2041505F426188
:102BA000726F3A3A63616C696272617465205B337B
:102BB0005D0D0A000100454E41424C4500000000F9
:102BC0000000000000000003000000803F040144FA
:102BD0004953540000000000000000000000000005
:102BE00004000000FA430402414343454C00000046
:102BF00000000000000000000008000080BB44004E
:102C0000FF000000000000000000000000000000C5
:102C1000000000000000000050414E49433A2041AE
:102C2000505F4261726F5F4D5335363131206469B8
:102C300064206E6F74206765742076616C6964200F
:102C400053504920646576696365206472697665CE
:102C500072210050414E49433A2041505F42617217
:102C60006F5F4D533536313120646964206E6F7467
:102C7000206765742076616C696420535049207325
:102C8000656D617068726F65210050414E49433A2D
:102C9000206661696C656420746F2074616B6520C7
:102CA0005F7370695F73656D203130302074696DBA
:102CB000657320696E206120726F772C20696E2009
:102CC00041505F4261726F5F4D53353631313A3A50
:102CD0005F7570646174650050414E49433A20410C
:102CE000505F4261726F5F4D53353631313A204E3D
:102CF000554C4C2073657269616C2064726976650D
:102D0000720050414E49433A2041505F4261726F18
:102D10005F4D53353631313A206661696C65642008
:102D2000746F2074616B652073657269616C2073C8
:102D3000656D6170686F726520666F7220696E697B
:102D4000740050414E49433A2041505F4261726FD6
:102D50005F4D533536313120746F6F6B206D6F725C
:102D600065207468616E20313030306D7320746F6F
:102D700020696E697469616C697A65004661696C85
:102D8000656420746F2067657420484D433538347E
:102D9000332073656D6170686F72650005014F4681
:102DA00053000000000000000000000000000017B9
:102DB0000000000000040244454300000000000041
:102DC00000000000000000002300000000000103DC
:102DD0004C4541524E000000000000000000000081
:102DE0000008000000803F0104555345000000002A
:102DF0000000000000000000000027000000803FED
:102E000001054155544F44454300000000000000B7
:102E100000000028000000803F01064D4F5443543D
:102E2000000000000000000000000000A4000000FE
:102E3000000005074D4F5400000000000000000096
:102E40000000000000A5000000000001084F5249EA
:102E5000454E540000000000000000000000160075
:102E600000000000010945585445524E414C0000F5
:102E70000000000000000029000000000000FF002A
:102E80000000000000000000000000000000000042
:102E90000000000000002D00256C642E2530376CEA
:102EA0006400020050524F445543545F49440000AF
:102EB00000000000001F0000000000050141434326
:102EC0005343414C000000000000000000002100BE
:102ED0000000000005024143434F464653000000F6
:102EE000000000000000002D000000000005034766
:102EF00059524F46465300000000000000000000F9
:102F000039000000000001044D5055364B5F464922
:102F10004C54455200000000004500000000000035
:102F2000FF000000000000000000000000000000A2
:102F30000000000000000000546F6F206D616E798A
:102F4000206779726F7300546F6F206D616E792006
:102F5000616363656C7300546F6F206D616E7920DF
:102F6000494E53206261636B656E6473004E6F203F
:102F7000494E53206261636B656E647320617661B4
:102F8000696C61626C65006F6E20697473204241E8
:102F9000434B00506C6163652076656869636C65BE
:102FA00020255320616E6420707265737320616EFA
:102FB00079206B65792E0A004F6666736574735BC2
:102FC00025755D3A20252E326620252E3266202575
:102FD0002E32660A005363616C696E675B25755D0E
:102FE0003A20252E326620252E326620252E326686
:102FF0000A0043616C6962726174696F6E20737557
:10300000636365737366756C0A0043616C69627211
:103010006174696F6E204641494C45440A00496E0F
:10302000697420416363656C002A002000496E6961
:1030300074204779726F002A006779726F5B25757B
:103040005D20646964206E6F7420636F6E766572B4
:1030500067653A20646966663D2566206470730A78
:10306000006C6576656C006F6E20697473204C454A
:1030700046542073696465006F6E20697473205232
:10308000494748542073696465006E6F7365204436
:103090004F574E006E6F7365205550006661696C26
:1030A000656420746F20626F6F74204D5055363008
:1030B000303020352074696D65730056616C75651C
:1030C0007320646F65736E2774206D617463683B51
:1030D000207772697474656E3A20253032783B200F
:1030E000726561643A202530327820004D505536A3
:1030F0003030303A20556E61626C6520746F206705
:1031000065742073656D6170686F726500466169F2
:103110006C656420746F20626F6F74204D5055365B
:1031200030303020352074696D65730004024750DB
:10313000535F4741494E000000000000000000229C
:10314000000000803F01034750535F555345000086
:1031500000000000000000002C000000803F04047C
:103160005941575F500000000000000000000000BF
:10317000001A00CDCC4C3E040552505F50000000B8
:10318000000000000000000000001E00CDCC4C3EFE
:10319000010657494E445F4D4158000000000000B1
:1031A0000000002D000000000005085452494D00A9
:1031B00000000000000000000000000041000000CE
:1031C000000001094F5249454E544154494F4E00A9
:1031D00000000000002E0000000000040A434F4DD4
:1031E000505F4245544100000000000000002800EC
:1031F000CDCCCC3D010B4750535F4D494E5341540C
:10320000530000000000002F000000C04000FF003D
:1032100000000000000000000000000000000000AE
:103220000000000000000200544F54414C00000018
:103230000000000000000000000500000000000188
:103240000152455354415254000000000000000058
:10325000000007000000000000FF00000000000068
:10326000000000000000000000000000000000005E
:1032700000040050000000000000000000000000FA
:103280000000000000000000000000FF000000003F
:10329000000000000000000000000000000000002E
:1032A00000000004005000000000000000000000CA
:1032B00000000000000000000000000004014900C0
:1032C00000000000000000000000000000000004FA
:1032D00000000000000402440000000000000000A4
:1032E00000000000000000000800000000000203D1
:1032F000494D41580000000000000000000000009F
:10330000000C000000000000FF00000000000000B2
:1033100000000000000000000000000000000000AD
:103320000400524154455F52505F4D415800000027
:10333000000000260000A08C460401524154455F65
:10334000595F4D4158000000000000002A0000A015
:103350000C460402534C45575F594157000000008A
:1033600000000000002E0000007A440403414343A3
:10337000454C5F52505F4D41580000000000320044
:10338000000000000404414343454C5F595F4D4138
:103390005800000000000036000000000001055247
:1033A0004154455F46465F454E41420000000000E3
:1033B0003A000000000000FF0000000000000000D4
:1033C00000000000000000000000000000000004F9
:1033D000005448525F484F5645520000000000001C
:1033E000000017000000E14300FF000000000000A3
:1033F00000000000000000000000000000000000CD
:103400000002004D494E00000000000000000000D6
:10341000000000000A000080894402015452494D16
:10342000000000000000000000000000000C000090
:1034300080BB4402024D4158000000000000000023
:103440000000000000000E000080ED440103524522
:103450005600000000000000000000000000001006
:10346000000000803F0205445A00000000000000F8
:10347000000000000000000011000000000000FF3C
:10348000000000000000000000000000000000003C
:103490000000000000000008000000000000000024
:1034A00000000000000000000000000001340000E7
:1034B000010146554E4354494F4E000000000000A4
:1034C0000000001D000000000000FF0000000000E0
:1034D00000000000000000000000000000000000EC
:1034E00000000101544352565F454E41424C450095
:1034F00000000000002E000000803F0102544352F3
:10350000565F4D49445043540000000000002F0016
:10351000000050420103544352565F4D41585043FE
:103520005400000000000030000000BA42020553C1
:1035300050494E5F41524D454400000000000000DC
:10354000310000008C4200FF00000000000000007D
:10355000000000000000000000000000000000006B
:103560000102030405060741505F4D6F746F7273CB
:103570003A206661696C656420746F2063726561CE
:103580007465207468726F74746C652063757276EC
:10359000650001005F545950450000000000000024
:1035A000000000000000000000000001015F504921
:1035B0004E000000000000000000000000000100BC
:1035C000000080BF04025F5343414C494E47000056
:1035D0000000000000000006000000404004035FFF
:1035E0004F46465345540000000000000000000014
:1035F0000A000000000001045F46554E4354494F45
:103600004E00000000000000000E0000000000025C
:10361000055F4D494E5F434D000000000000000073
:1036200000000F000000A04102065F4D41585F43BB
:103630004D00000000000000000000110000002FFD
:103640004401075F53544F505F50494E0000000043
:10365000000000000300000080BF02085F534554D3
:10366000544C455F4D530000000000000004000072
:1036700000000001095F524D4554524943000000CB
:1036800000000000000002000000803F00FF00007A
:10369000000000000000000000000000000000002A
:1036A0000000000000010050494E00000000000032
:1036B0000000000000000000000000005041010177
:1036C00050494E32000000000000000000000000E1
:1036D000000100000080BF00FF00000000000000AB
:1036E00000000000000000000000000000000000DA
:1036F000010054524947475F5459504500000000AB
:103700000000000000000000000101445552415437
:10371000494F4E00000000000000000001000000C2
:1037200020410202534552564F5F4F4E00000000A9
:10373000000000000002000080A244020353455232
:10374000564F5F4F46460000000000000000040096
:1037500000808944040454524947475F4449535404
:103760000000000000000009000000000000FF0051
:103770000000000000000000000000000000000049
:1037800000000000000001004D4F44450000000013
:1037900000000000000000000031000000000005F3
:1037A0000152455452414354000000000000000003
:1037B000000042000000000005024E4555545241F1
:1037C0004C000000000000000000004E000000005F
:1037D000000503434F4E54524F4C000000000000C0
:1037E000000000005A000000000001045354414250
:1037F0005F524F4C4C00000000000000002E000003
:103800000000000105535441425F54494C540000EC
:103810000000000000002F000000000001065354CB
:1038200041425F50414E00000000000000000030A7
:103830000000000000010752435F494E5F524F4CA9
:103840004C000000000000003200000000000208F0
:10385000414E474D494E5F524F4C00000000000062
:1038600000350000A08CC50209414E474D41585F0C
:10387000524F4C00000000000000370000A08C45B3
:10388000010A52435F494E5F54494C540000000006
:10389000000000330000000000020B414E474D497C
:1038A0004E5F54494C00000000000000390000A0A9
:1038B0008CC5020C414E474D41585F54494C0000A5
:1038C00000000000003B0000A08C45010D52435F4A
:1038D000494E5F50414E00000000000000003400DF
:1038E00000000000020E414E474D494E5F50414ED0
:1038F000000000000000003D0000A08CC5020F4148
:103900004E474D41585F50414E00000000000000FE
:103910003F0000A08C4501104A535449434B5F536C
:1039200050440000000000000041000000000000C2
:10393000FF00000000000000000000000000000088
:103940000000000000000000040154435F585900CB
:103950000000000000000000000000130000002034
:1039600040040254435F5A000000000000000000C1
:103970000000000017000000A04000FF0000000051
:103980000000000000000000000000000000000037
:10399000000000040052414449555300000000005B
:1039A000000000000000070000007A4404015241BA
:1039B0005445000000000000000000000000000B63
:1039C000000000A04100FF00000000000000000017
:1039D00000000000000000000000000000000400E3
:1039E0005350454544000000000000000000000066
:1039F000000F000000FA43040152414449555300AE
:103A0000000000000000000000001B000000484310
:103A1000040253504545445F55500000000000002B
:103A2000000000130000007A43040353504545444E
:103A30005F444E000000000000000000170000007E
:103A4000164304044C4F49545F535045454400000D
:103A5000000000000007000000FA43040541434352
:103A6000454C0000000000000000000000001F00A6
:103A70000000C8420406414343454C5F5A00000021
:103A80000000000000000023000000C84204074CB2
:103A90004F49545F4A45524B0000000000000000AF
:103AA0000B0000007A4400FF00000000000000004E
:103AB0000000000000000000000000000000009670
:103AC000918C87827D78736E69645F5A55504B463E
:103AD000413C37322D28231E19140F0A0500040912
:103AE0000E13181D22272C31363B40454A4F54599E
:103AF0005E63686D72777C81868B90959A9FA4A98E
:103B0000AEB3AFAAA5A09B968F89837E78736E69AA
:103B1000645F5A55504B47423E3935302C27231F9E
:103B20001B16120E09050103070B1014191D22267E
:103B30002B2F34393D42474C51565B60656B707595
:103B40007B80868C92979DA3A9AFB2ACA6A09A94D5
:103B50008F827C76706B65605C57524E4A46413D61
:103B60003936322E2A26221F1B1713100C08040187
:103B700002060A0E12161A1E22262B2F33383D413A
:103B8000464B4F54595E64696F747A80878D949B5D
:103B9000A2AAB1AEA69F979089826F68635E5955BD
:103BA000514D4946423F3C3835322E2B2824211EA8
:103BB0001A1714100D0A0603000306090D10141835
:103BC0001C2024282C3034393D41464A4F54585D3E
:103BD00062676D737980878F98A2ACB0A59A908642
:103BE0007D766F55514D4A4744413F3C3A38353315
:103BF000312E2B292623201D1A1713100D0A070416
:103C000001010306090D1013171A1E22262A2E324F
:103C1000363A3E42464A4E53575B5F64696E757C46
:103C200085909FB2A08D7D7067605A553E3C3A39B1
:103C30003736343332302F2E2C2A292724221F1CCA
:103C4000191613100D0A070402000305080A0D10C7
:103C500013161A1D2125292D3135383C4043464A7B
:103C60004D505356595B5E6165696F826D544D4A84
:103C7000474442403E2E2E2D2C2C2B2A2A2929281F
:103C80002726252423211F1C1A1714100D0A0704A8
:103C90000101030507090C0E1013161A1D21242813
:103CA0002C3033373A3D40424447484A4A4B4A4811
:103CB000443D3019021621282B2D2E2F2E2E0609B9
:103CC0000C0F121517191B1C1B1811040E2231386A
:103CD0003C3C3C3A3835322F2B2824201C19151136
:103CE0000D09050102060A0E1115181C1F222527B1
:103CF000292A2B2B2926211911080004080A0A0A4F
:103D00000807040200030616181A1C1E20211F179C
:103D100012516063625F5D5956524E4A46423E39C7
:103D200035312C2824201B17130E0A060102060A1F
:103D30000F13171B1F23262A2D313437393C3D3FE3
:103D40003F3E3D39352F28211C1715131313141628
:103D5000A8ADB2B0ABA6A19C97928D88837E7974F2
:103D60006F6A65605B56514C47423D38332E2924BB
:103D70001F1A15100B060103080D12171C21262B04
:103D800030353A3F44494E53585D62676C71767BDB
:103D900080858A8F94999EA3A800000001FFFFE010
:103DA00000000000000001FFFFF000000000000024
:103DB00001FFFFF800000000000001FFFFFE00000F
:103DC0000000000003FFFFFF00000000000003FFF1
:103DD000FFFFF000000000000FFFFFFFFE000000EB
:103DE00003FFFFFC000007FC00007FFFFFFC00005A
:103DF00000000000001FFFFE0000000000241E194C
:103E00001512100E0C0B0A09090908080807060606
:103E10000504040403040404000000000000000082
:103E2000000027262123252325242722292A2A1C8E
:103E300027282B33322725222C333130370000003E
:103E40000000000000000080114011407132733406
:103E500033321312113211129334131453523100AE
:103E600021030406080B2D0A090705040241C011AD
:103E7000C0511253547312111251527314733231D0
:103E800000210204050607080908060706240302A4
:103E90000102000120012011C00111003132137410
:103EA00013143312F112D312510001022325060715
:103EB00046442342210001E0A0313213B4331112F1
:103EC000110011201100523312133211200122244B
:103ED00085042304020342410001E0A0511214139F
:103EE0001513153413325140012011521332310091
:103EF000012223040504050423010382612001E05B
:103F00001180113213541514333231402102010053
:103F10003172314102234423020122012201026154
:103F20004001A01180511214133415143312314082
:103F30000102010302012052111220212243042216
:103F400041022102A10001E02011405153741332BB
:103F5000114021020302030201001112113200116B
:103F60004122232221004102A18001601160110041
:103F70001132337413121140016203020321311212
:103F80001112114001020102030201000100E121AE
:103F9000E0A011201211733433312001620362401A
:103FA0001211121100110100010201220001200171
:103FB00000E1C0010011801100121113121413341A
:103FC000522001E2022120311211001100010021D2
:103FD0000201000140210002410001E06011401196
:103FE000121113121413141332110021220342016F
:103FF0000221000100110012110011200100416096
:104000000100C10001401120016011405112131242
:104010001314331231000142032201022100014036
:104020001100310011000100010001A0E10001A018
:104030000180112031529312110021C22100214030
:10404000310011201100010001E0E16001E01100E8
:10405000117273123100214203010201022021403A
:1040600011001120116001401160010001022102C4
:10407000000120014001A0513213125332112001DE
:10408000020182210021000100110031E000110035
:104090001160210001020102010100212001000143
:1040A00060110011521312141352110041820102C7
:1040B00000010021401100110011A0110031001178
:1040C0002081220101000201002100016011005243
:1040D00013121314133231010002012201420100B4
:1040E0002100010001112011001120114071001167
:1040F0004001022102010201002102210001000110
:104100000011001211123312341332112001020176
:104110004201220100410001601120110011001133
:1041200000511231206102012202000201028120AD
:104130001100121173341332110041020182010087
:1041400061000180110011009132314021420102D1
:104150000200626140115214135433310041820154
:104160002200010200410001609112115251200110
:1041700022010301020200826100513354151433FD
:1041800031002102012203424102A1803192133207
:1041900031004122030201030022032201020140F7
:1041A00011123395333101002201034203222122EF
:1041B000010261000111001152131253123100412A
:1041C00022032203002302030201022120321314DE
:1041D000161517161533112001620302030203227C
:1041E00001A24140111253141314133211010002A1
:1041F00001020302030202000223020322212032F1
:104200001416371817151312110021220302430246
:1042100043010302038221201112131415341514D3
:104220003211000162230203004302034201201203
:10423000131518193A17151311002102030263040C
:10424000E3020302030201024012131415171516AC
:10425000341220212243020300A32201001112156F
:10426000181C1E1D1916131100020103020304235A
:104270000403240304430423040302034220111211
:1042800014151718361513312102030223020301F6
:1042900000454E41424C4500000000000000000077
:1042A00000000200000000000101545950450000C8
:1042B00000000000000000000000000300000040BB
:1042C000400102414354494F4E00000000000000ED
:1042D0000000000004000000803F0403414C545FD4
:1042E0004D415800000000000000000000050000E3
:1042F00000C84204045241444955530000000000E4
:1043000000000000000009000000964304054D4134
:104310005247494E00000000000000000000000D60
:10432000000000004000FF0000000000000000004E
:10433000000000000000000000000000000001007C
:104340004445425547000000000000000000000006
:104350000000000000000000FF000000000000005E
:10436000000000000000000000000000000000004D
:104370005363686564756C657220736C6970207432
:1043800061736B5B25755D202825752F25752F259D
:1043900075290A005363686564756C6572206F76D1
:1043A000657272756E207461736B5B25755D202874
:1043B00025752F2575290A000100524F4C4C00002D
:1043C000000000000000000000000000000000806D
:1043D0003F01015049544348000000000000000024
:1043E0000000000001000000004001025448524F4C
:1043F00054544C4500000000000000000003000081
:104400000040400103594157000000000000000037
:1044100000000000000002000000804000FF0000DB
:10442000000000000000000000000000000000008C
:10443000000000000001004D4F4E49544F52000053
:10444000000000000000000000000000000001016A
:10445000564F4C545F50494E0000000000000000D1
:10446000000100000050410102435552525F504983
:104470004E0000000000000000000200000040416B
:104480000403564F4C545F4D554C5400000000003F
:1044900000000003009A9921410404414D505F50EF
:1044A0004552564F4C540000000000000700000029
:1044B00088410405414D505F4F4646534554000026
:1044C00000000000000B0000000000030643415004
:1044D00041434954590000000000000000000F0053
:1044E00000404E450107564F4C54325F50494E0034
:1044F000000000000000001300000080BF04085608
:104500004F4C54325F4D554C5400000000000000E9
:1045100014000000803F00FF0000000000000000C9
:10452000000000000000000000000000000000008B
:10453000FF0000000000000000000000000000007C
:1045400000000000000000000D94172E0D94B62A04
:104550000D94050A0D944E900D9400570D94669796
:104560000D94DD480D94E03A0D94050B0D94240351
:104570000D94C7150D94AB020D940A6B0D94CA4FA0
:104580000D949E1F0D9445140D94DE290D94121167
:104590000D94912C0D94940B0D940F900D94395D06
:1045A0000D94A13D0D94A7160D9486000D943F1413
:1045B0000D9401480D94E24E0D945B630D94943775
:1045C0000D94CE5B0D94BE680D94A5860D94404C61
:1045D0000D9458580D94BE110D9448590D94B8730C
:1045E0000D94C94A0D941B6C0D9457390D94572D99
:1045F0000D94B5140D94DF2B0D94B8100D949E4FAF
:104600000D94EC2F0D940E110D944E410D94AD169A
:104610000D94048F0D94263B0D94272F0D9440503C
:104620000D94C7000D94521C0D94FB5A0D945D5BC4
:104630000D94D4300D94E4530D9444560D94422AB5
:104640000D9452580D94481F0D940A690D94F51A53
:104650000D940C110D949A5E0D94CC680D94CF5668
:104660000D94F2420D945D2D0D94682A0D94E58110
:104670000D9498390D9414500D94A1500D94890BFC
:104680000D94512D0D94FA100D94D1150D94AF0A7F
:104690000D942F180D94B9680D948A540D94427E90
:1046A0000D94002C0D94107B0D942F380D94300731
:1046B0000D94B02E0D9406160D94458E0D94745ADB
:1046C0000D94903B0D949F0B0D9464650D94FC101C
:1046D0000D94C7750D94512F0D943F8A0D94BC5BBA
:1046E0000D94D2250D94C26B0D94F30F0D94655863
:1046F0000D94A50B0D949A160D94AE620D94A042E4
:104700000D944A160D94E10B0D948C170D94DA5A02
:104710000D94C85A0D9493500D94C60A0D94AB187D
:104720000D94F7720D94F8100D94B4680D94EE5733
:104730000D94AB1E0D94D20C0D94938E0D94DB68EA
:104740000D94A90A0D94060D0D946A4F0D947B3EAD
:104750000D940B5A0D946F050D942D330D94024F4B
:104760000D94E24D0D94B67B0D9455010D94D77ABE
:104770000D9450900D94F94E0D94F7710D94119085
:104780000D9445560D947B7C0D94FD8F0D949217DE
:104790000D940A010D946B7A0D94981B0D943917A2
:1047A0000D94D9100D94E2190D94EF6D0D945F30B6
:1047B0000D945E580D94FE4A0D942C0D0D94D61553
:1047C0000D94BB760D94C7530D944C900D947E3F81
:1047D0000D945A340D94417C0D9463610D94C0681E
:1047E0000D944C690D9423820D94FE540D941A116E
:1047F0000D94CC910D94E3790D94DE530D94F369EF
:104800000D9459170D94DF100D942E900D943D3298
:104810000D94A76A0D94E0150D94B3130D9467459C
:104820000D949A040D9442590D9430900D948E1667
:104830000D941A690D94D8680D9410110D94D92B0C
:104840000D94F56D0D949B500D949B3C0D94493146
:104850000D94CC150D94A0160D9438140D94F16898
:104860000D94CB5F0D9476500D9456620D941411F7
:104870000D9443560D94BB8A0D9444650D94805657
:104880000D944A4A0D94F88F0D94660D0D94B8114D
:104890000D9446570D949E1B0D9426190D94055AA0
:1048A0000D94235A0D94F55A0D9415540D94FF4E02
:1048B0000D94D24F0D9483760D94AD130D946087B3
:1048C0000D94726D0D94EC900D948F390D94112E02
:1048D0000D94C4380D94F04B0D948A810D94AE7FE5
:1048E0000D94958E0D943F568D73EE826992269BA2
:1048F000409F439F18A0F6E21E24FA22107711244D
:104900001FBECFEFD1E2DEBFCDBF00E00CBF15E090
:10491000A0E0B2E0E0E5F6E303E00BBF02C00790E1
:104920000D92AC38B107D9F717E1ACE8B5E001C09A
:104930001D92A03FB107E1F718E4CCEFD8E400E006
:1049400006C022970109FE010BBF0F94D898C83EFC
:10495000D10780E00807A9F70E9470730D94179B98
:104960000C9400000895089508950895A0915A1593
:10497000B0915B15ED91FC9111970280F381E02DD0
:10498000CD011995089580915A1590915B15DC0120
:10499000ED91FC910480F581E02D199508958091A9
:1049A0005A1590915B15DC01ED91FC910680F78121
:1049B000E02D199508958091900A9091910A209187
:1049C000AE0A3091AF0A2D3D35404CF4853325E0D9
:1049D00092073CF08338964034F082E0089583E0FB
:1049E000089580E0089581E008958091320D80FF60
:1049F00018C08091BC109091BD10039794F08091E5
:104A0000911081FD0EC08091101183FD0AC090911C
:104A1000171190FD06C085FB882780F991E0892752
:104A2000089580E00895FC01128213821482158299
:104A300016821782108611861286138614861586B2
:104A400016861786108A118A128A138A148A158A82
:104A5000168A178A108E118E128E138E148E158E52
:104A6000168E0895FF920F931F93CF93DF93FC014F
:104A7000868DDF0194E0899FA00DB11D1124F42ED5
:104A8000042F152F262F372F12960D931D932D933C
:104A90003C9315978F5F873010F4868F01C0168E78
:104AA000362F272F642F752F832F922FCDB7DEB788
:104AB000E5E00D946D98A0E0B0E0E1E6F5E20D943C
:104AC0004A988B017A01E90144E951E16CE67EEEF6
:104AD0000E94B8EC6C0144E951E16CE67EEEC8013D
:104AE0000E94B8EC8C0160918D1270918E12643925
:104AF00081E1780731F4F701D182C08219830883FC
:104B000046C08091B1149091B21468177907C1F032
:104B10007093B2146093B114882777FD8095982F15
:104B20000F94CF9320E030EA4CE855E40F9434938F
:104B300060932002709321028093220290932302BB
:104B40008090200290902102A0902202B090230237
:104B5000B601882777FD8095982F0F94CF93A501F4
:104B600094010F94FA950F949C93F70171836083DD
:104B7000B801882777FD8095982F0F94CF93A501D2
:104B800094010F94FA950F949C9379836883CDB721
:104B9000DEB7ECE00D946698A5E0B0E0E2EDF5E25A
:104BA0000D945498FE01319695E0DF011D929A957F
:104BB000E9F793EA998395E99A8393E19B838C8340
:104BC0006D8345E050E0BF0181E19DE00E945BCA3A
:104BD0002596E2E00D947098A6E0B0E0E2EFF5E2F1
:104BE0000D945498BE016F5F7F4F96E0FB011192C8
:104BF0009A95E9F793EA998395E99A8393E09B83E1
:104C00008C838091F8099091F9099E838D8346E009
:104C100050E081E19DE00E945BCA2696E2E00D949F
:104C20007098A0E0B0E0E7E1F6E20D945298FE0142
:104C300038962191319181E08093AA0E8F0142E351
:104C400050E06BEA7EE080915C1590915D150E94CA
:104C5000F38462E170E087EA9EE00E9445A58091BE
:104C60007E0F882379F083E3EAEAFEE0A1E8BFE063
:104C700001900D928A95E1F762E170E08EE79FE086
:104C80000E9445A5E4E00D946E98CF93DF93EC016C
:104C90008091A70E882329F0BE0187EA9EE00E943A
:104CA00045A580917E0F882329F0BE018EE79FE005
:104CB0000E9445A5DF91CF9108958CE190E0E5CF6A
:104CC000A5E2B0E0E6E6F6E20D9452988E010F5FA1
:104CD0001F4F25E2F80111922A95E9F7B8010F94C8
:104CE00011276091360770913707A80181E19DE097
:104CF0000E9408D8A596E4E00D946E98A0E0B0E07C
:104D0000E4E8F6E20D944E98809145149091461493
:104D1000A09147146091C4097091C5099B01442773
:104D200037FD4095281739074A0744F49C014A2F5C
:104D3000552747FD5095CA01B90104C0882777FD62
:104D40008095982F0F94CF938B01D82FC92F88E986
:104D500095E00F94D98880FF2BC02091A505309154
:104D6000A6054091A7055091A80560919D057091F9
:104D70009E0580919F059091A0050F944F9220E091
:104D800030E048EC52E40F94FA956B017C01762FE9
:104D9000272F3D2D4E2D5F2DFE01602F712F8F2F60
:104DA0009E2F0F942D9387FD03C08601DE2DCF2DFE
:104DB0009E01602F712F832F9C2FCDB7DEB7E8E0C7
:104DC0000D946A98CF92DF92EF92FF920F931F9308
:104DD00080915A1590915B15DC01ED91FC91068054
:104DE000F781E02D19952091A4143091A5144091DC
:104DF000E4145091E5142417350779F03093E51445
:104E00002093E4146093E0147093E1148093E2140F
:104E10009093E3141092E6143FC0209108022223DD
:104E2000D9F10091E0141091E1142091E214309135
:104E3000E3146B017C01C01AD10AE20AF30A97015C
:104E4000860141E8C41644E8D4064EE1E406F104C4
:104E5000F8F041E04093E6141BC0013412442F40A7
:104E60003105D0F06093E0147093E1148093E21464
:104E70009093E31480916F0C80FF0EC060E084E695
:104E80009CE00F94B95684E69CE00F943D5804C012
:104E90004091E6144111E1CF1F910F91FF90EF90E7
:104EA000DF90CF9008950F931F93CF93DF93EC0182
:104EB0008B018091A70E882331F0AB01BE0187EAF8
:104EC0009EE00E9404A680917E0F882331F0A80105
:104ED000BE018EE79FE00E9404A6DF91CF911F9153
:104EE0000F9108952F923F924F925F926F927F920F
:104EF0008F929F92AF92BF92CF92DF92EF92FF92EA
:104F00000F93CF93DF93CDB7DEB7A8970FB6F89482
:104F1000DEBF0FBECDBF1C01E09182098CE0E89F8F
:104F2000F0011124E45BF64F80859185A285B3855D
:104F30008D8F9E8FAF8FB8A384819581A681B78115
:104F400089A39AA3ABA3BCA3C080D180E280F380E5
:104F500080907D0790907E07A0907F07B09080079B
:104F60004090790750907A0760907B0770907C079B
:104F70008091750790917607A0917707B091780797
:104F80008DA39EA3AFA3B8A7FEDC69837A838B832E
:104F90009C838DA19EA1AFA1B8A58D839E83AF8375
:104FA000B88749865A866B867C868D869E86AF86B4
:104FB000B88AC98ADA8AEB8AFC8A89A19AA1ABA14C
:104FC000BCA18D8B9E8BAF8BB88F8D8D9E8DAF8D41
:104FD000B8A1898F9A8FAB8FBC8F07E22CE1AE010D
:104FE0004F5F5F4F6EE1C1010E9450AEA8960FB6B1
:104FF000F894DEBF0FBECDBFDF91CF910F91FF9030
:10500000EF90DF90CF90BF90AF909F908F907F9068
:105010006F905F904F903F902F900895AAE2B0E07C
:10502000E4E1F8E20D9444981C018091BC10909149
:10503000BD1002974CF08090B3109090B410A090E7
:10504000B510B090B61003C09EDC4B015C0100911E
:10505000890710918A07C090DB10D090DC10E09097
:10506000DD10F090DE1020E030E048EC52E460917A
:10507000DF107091E0108091E1109091E2100F9498
:10508000FA950F949C936BA37CA38DA39EA3209170
:1050900045143091461440914714552747FD5095CB
:1050A000AAE0B0E00F94CB962B013C012091C510F3
:1050B0003091C6104091C710552747FD50950F9469
:1050C000CB9620914C1430914D1440914E14509138
:1050D0004F142FA338A749A75AA7209148143091FD
:1050E000491440914A1450914B1489829A82AB82A0
:1050F000BC822D833E834F8358872FA138A549A5B5
:105100005AA529873A874B875C876D877E878F876B
:10511000988B498A5A8A6B8A7C8A20E030E048EC76
:1051200052E4C701B6010F94FA950F949C937E8BBD
:105130006D8B4BA15CA1588F4F8B20E030E048EC89
:1051400052ECC701B6010F94FA950F949C937A8F95
:10515000698F1C8F0B8F08E62CE1AE014F5F5F4F0C
:1051600061E2C1010E9450AEAA96E2E10D946098FE
:10517000A4E1B0E0EEEBF8E20D9446987C0160917A
:10518000421470914314882777FD8095982F0F94CF
:10519000CF9320E030E048EC52E40F9434935B016D
:1051A0006C018091451490914614A09147149C0184
:1051B0004A2F552747FD5095CA01B9010F94CF9347
:1051C00020E030E048EC52E40F9434933B014C0172
:1051D00080915A0A90915B0A6AE070E00F940A97F6
:1051E0008B016091890770918A0780918B0790915C
:1051F0008C0724E630E040E050E00F943F97CA016E
:10520000B90128E631E040E050E00F943F9720914B
:10521000D0103091D1104091D2105091D3102983E9
:105220003A834B835C832D833E834F835887462C80
:10523000572C682C792C49865A866B867C868A2C5A
:105240009B2CAC2CBD2C8D869E86AF86B88A7A8B23
:10525000698B0B8B1C8B04E124E1AE014F5F5F4F28
:105260006AE4C7010E9450AE6496E0E10D94629832
:105270000F93CF93DF931F921F92CDB7DEB720918C
:105280003F07309140072F3F4FEF340711F420E0E4
:1052900030E03A8329830CE122E0AE014F5F5F4F9B
:1052A0006AE20E9450AE0F900F90DF91CF910F9164
:1052B00008950F93CF93DF93CDB7DEB728970FB63E
:1052C000F894DEBF0FBECDBF20919A05222349F18D
:1052D000F091BD05F0FF02C0E2E001C0E0E0F1FDA9
:1052E000E3E02091C2053091C3054091BE05509185
:1052F000BF056091C0057091C10549835A836B83D6
:105300007C833E832D8321E0F11101C020E02F83B7
:10531000E8870DEB28E0AE014F5F5F4F62EA0E9425
:1053200050AE28960FB6F894DEBF0FBECDBFDF910A
:10533000CF910F910895A3E0B0E0E1EAF9E20D9476
:1053400050987C0180914A1590914B15DC01ED91AC
:10535000FC910488F589E02D1995182F80914E1540
:1053600090914F15DC01ED91FC910480F581E02DC9
:10537000199520E030E04AE754E40F94FA950F9431
:10538000A1937A8369831B8305E123E0AE014F5F1C
:105390005F4F65EAC7010E9450AE2396E6E00D9488
:1053A0006C988091A70E882331F060E070E087EA66
:1053B0009EE00E942DA680917E0F882331F060E050
:1053C00070E08EE79FE00C942DA60895F4DA20910A
:1053D000C51490912502821308C09F5F9093250207
:1053E000943168F08093AE1407C0915090932502D9
:1053F0009A3028F48093C5148AE080932502D1CF97
:10540000A7E1B0E0E6E0FAE20D9452988E010F5F5A
:105410001F4F87E1D8011D928A95E9F783EA8983B6
:1054200085E98A8381E08B8380915A1590915B1581
:10543000DC01ED91FC910480F581E02D19956C83E0
:105440007D838E839F836091EA067091EB06809145
:10545000EC069091ED060F949C9379876887809174
:105460008107909182079B878A876091EE067091F1
:10547000EF068091F0069091F1060F949C937D8742
:105480006C8780918507909186079F878E876091B2
:10549000F2067091F3068091F4069091F5060F9450
:1054A000A193798B688B8091890790918A079B8B58
:1054B0008A8B83E797E00F94061620E030E048ECF3
:1054C00052E40F94FA950F94A1937D8B6C8B83E734
:1054D00097E00F944A1620E030E048EC52E40F9435
:1054E000FA950F94A1937F8B6E8B47E150E0B80142
:1054F00081E19DE00E945BCA6796E4E00D946E989E
:1055000088E29EE00F945E658EE89EE00D94E26076
:1055100088EC92E10D94BB8D8091D709882321F00E
:1055200085EA91E10C9482E308958091360D982FDD
:105530009B5F923028F48DED92E10F941E7C10C099
:10554000893F51F0853F41F0863F99F4809158148E
:1055500090915914019769F48DED92E10F94077CB5
:105560006093541470935514809356149093571469
:1055700008951092541410925514109256141092CB
:10558000571408958F929F92AF92BF92EF920F930C
:105590001F9380916B14882309F44FC0815080932E
:1055A0006B148091EA1782608093EA1760911E0A5B
:1055B00070911F0A882777FD8095982F0F94CF93BD
:1055C00020E030E04AE755E40F9434930E94DBEC8E
:1055D0004B015C0160913B0A70913C0A882777FD82
:1055E0008095982F0F94CF9320E030E04AE755E460
:1055F0000F9434930E94DBEC8B019C018091A507F2
:1056000082608093A507EE24E39480916B1481114E
:10561000E12CB501A40183E797E00F94AD138091CD
:105620006B1481110AC08091A5078D7F8093A50717
:105630008091EA178D7F8093EA171F910F91EF9069
:10564000BF90AF909F908F9008958091320D87FD0D
:1056500006C08091340D82FB882780F9089581E08F
:1056600008958091101185FF06C08F7D80931011E1
:1056700060E081E191CA08950F931F93CF93DF9368
:105680006091180A7091190A80911A0A90911B0A68
:1056900020916F0C20FF80C02091330D25FD7CC030
:1056A000C1E020E030E0A9010F94AA9518160CF093
:1056B000C0E0CC2309F470C009F47CC083E797E014
:1056C0000F944A162091180A3091190A40911A0A2B
:1056D00050911B0A0F94AA9518160CF06BC06FC05E
:1056E000809116118F5F809316118A3008F44BC099
:1056F0008AE08093161191609093171162E080E127
:105700004BDAC0915A15D0915B15E881F98104807C
:10571000F581E02DCE011995009118111091191104
:1057200020911A1130911B11601B710B820B930B8E
:10573000613375478105910530F16BE671E283E0D5
:1057400090E0B1DBE881F9810480F581E02DCE01A4
:105750001995609318117093191180931A119093F1
:105760001B1111C0982F9150909316118091171111
:1057700080FF09C0911107C08E7F8093171160E0F0
:1057800080E10ADA6EDF909117118091EB1790FBA0
:1057900080F98093EB1718C01092161180911711A1
:1057A0008E7F809317118091EB178E7F8093EB177C
:1057B00058DF0AC0809116118111D4CFE4CF9091A7
:1057C000171190FF8DCFDFCFDF91CF911F910F91F8
:1057D00008958091340D80FF2DC08E7F8093340D0D
:1057E00060E084E69CE00F94B9561092A6141092E3
:1057F000A7141092A8141092A9141092AA1410922F
:10580000AB141092AC141092AD1485EF99E00E9485
:105810009A7D8AEC99E00E949A7D83ED99E00E943E
:105820009A7D84ED99E00E949A7D8091EA178B7FA2
:105830008093EA1708958091360D982F9B5F9230E0
:1058400038F48091E2129091E3120F94154110C048
:10585000893F51F0853F41F0863FA9F4809158146B
:1058600090915914019779F48DED92E10F94D17ACA
:105870000F94A19360935A1470935B1480935C14FB
:1058800090935D14089510925A1410925B14109224
:105890005C1410925D140895CF92DF92EF92FF9204
:1058A0000F931F9300915014109151142091521492
:1058B000309153148091781490917914A0917A14B6
:1058C000B0917B14801B910BA20BB30BB7FF07C0E9
:1058D000B095A095909581959F4FAF4FBF4F853F55
:1058E0009140A105B10594F10093781410937914B7
:1058F00020937A1430937B14C901B801605B794B13
:105900008F4F9F4F24E630E040E050E00F943F97E8
:10591000CA01B9010F94CF930E94DBEC6B017C01AB
:105920000F94319360930D0270930E0280930F02D7
:1059300090931002C701B6010F945D9660937C149A
:1059400070937D1480937E1490937F141F910F9118
:10595000FF90EF90DF90CF900895892B79F480919C
:10596000541590915515DC01ED91FC910088F18959
:10597000E02D1995882311F080E0089581E00895C5
:1059800020E030E0A9016091DD097091DE0980918D
:10599000DF099091E0090F942D9318161CF01092D6
:1059A000B41408958091921490919314DC01ED91B8
:1059B000FC910480F581E02D6091DC0919958091BE
:1059C000921490919314DC01ED91FC910284F38583
:1059D000E02D199520E030E04FE753E40F94FA955D
:1059E0002091DD093091DE094091DF095091E009F5
:1059F0000F9434930F949C93DC01CB014FEF50E054
:105A000060E070E00E94B8EC8093B4140895CF92E7
:105A1000DF92EF92FF92CF93DF93C82F8091120A0B
:105A2000813009F44DC083FF54C04AC0D33009F01F
:105A300050C08091911081FF05C0CC23D1F161EF5E
:105A400071E134C00E94F524811105C0CC2389F195
:105A500064E072E12BC08EEF9DE00E94BCFE6B0102
:105A60007C0120E030E0A9010F942D93882351F0B0
:105A700020E030E048E452E4C701B6010F94AA9553
:105A800018162CF4CC23A9F068E172E10FC0409104
:105A9000D8105091D9102091D5093091D6092417EA
:105AA0003507B8F4CC2329F06DE272E183E090E091
:105AB000FAD98091EA178E7F8093EA1780E00FC0B1
:105AC000D091D30988E995E00F94D98881FDB1CFB1
:105AD000ADCF8091EA1781608093EA1781E0DF9172
