:100000000C94DA250C940B260C940B260C940B26DE
:100010000C940B260C940B260C940B260C946498D1
:100020000C940B260C940B260C940B260C940B268C
:100030000C940B260C940B260C940B260C94F9AA0A
:100040000C940B260C940B260C940B260C940B266C
:100050000C940B260C940B260C940B260C940B265C
:100060000C940B260C940E990C943D990C940B2631
:100070000C940B260C940B260C940B260C940B263C
:100080000C940B260C940B260C940B260C940B262C
:100090000C9478990C94A7990C940B260C94479D7A
:1000A0000C940B260C9426AB0C940B260C940B266C
:1000B0000C940B260C940B260C9453AB0C940B262F
:1000C0000C940B260C940B260C94A2A30C94E2998E
:1000D0000C94119A0C940B260C940B260C940B2662
:1000E0000C940B26184D6A4D754D3C4D574D804D67
:1000F000214ED14DC64DB14DDC4DF34D084E8B4DCB
:100100009C4D8F4E3F4E2C4E5D4E684E8F4E724E24
:100110008F4E864E8F4E524E4552585261526D52FE
:100120005A56B2525A5607530D5316535A565E52E8
:1001300021535A5634533E5307565A565A565A5616
:100140005A565A5616561E5625562E563E56E557A0
:10015000C65A3158FE570F5842587558C65AC65A93
:100160001559C65AB958C65A6458C65AC65A485933
:1001700061597A59C65A2058CA58FC58C65A265945
:100180005358C65AE358C65A9359A459C65AC65A20
:1001900086589758A858C65AB559E5593759FE593F
:1001A000C65AC65AC65A0F5A1A5A2B5A3C5A4D5A50
:1001B0005E5A6F5A21A021A026A026A026A02BA01F
:1001C0002BA02BA03DA030A030A04AA04EA054A050
:1001D00058A05CA062A066A06AA079A070A074A0DC
:1001E00083A087A08DA091A095A09BA09FA0A3A075
:1001F000B2A0A9A0ADA0CBA0D0A0D5A0DAA0DFA0CE
:10020000E4A0E9A0EEA0FCA0F3A0F8A02AA12FA1F1
:1002100034A139A13EA143A148A14DA15CA152A1A5
:1002200057A126AF4BAF4FAF53AF57AF7CAF5BAFCC
:100230007CAF7CAF7CAF5FAF63AF67AF4CBC4CBCF7
:100240005CBC7EBC72BC85BC8CBC9CBCB4BCF1BC30
:100250001DCC18CC24CC28CC33CC4DCC72CC7BCC50
:1002600069D062D072D07DD08ED0A0D0C3D0E5D07E
:10027000EED0ADD1A6D1B5D1BFD1D3D1E9D100D285
:100280001ED22AD23CDFDFDFCAE01DE0CAE0CAE0AE
:1002900064DF8DDFCAE0CAE04AE0ABE072E0CAE0AA
:1002A000CAE0CAE0CAE0CAE0CAE0CAE0CAE0CAE0FE
:1002B000CAE0CAE08DE0CAE0CAE0CAE0CAE0CAE02B
:1002C000CAE0CAE030DFC2DFCAE004E09EDFCAE075
:1002D00057DF7CDFCAE0CAE0CAE0CAE057E0112578
:1002E0005B251725D7247F24F32439245125F724AF
:1002F00035242D249B25D924E524EB234325D12423
:1003000081244125A92311246B2401247D24172451
:1003100009249D23B324472551248B2393237B2435
:100320008D2599255525B1253F25192419242725E3
:100330004B244B244B244B244B244B2419244B2477
:100340004B244B244B2427252725272527252725E4
:1003500027254B244B241924192427251D24C12487
:100360001D24C1241D24C1241D24F923F923F923AC
:10037000F923F923F923F923F923F92329251D2446
:10038000C1241D24C1241D24C1241D24C1241D24D5
:1003900029251D24F923F923C1241D24F923C1246F
:1003A0001D24C1241D24292565257B2565257B2544
:1003B00065257B2565257B2565257B258925892563
:1003C0008925AD23AD23892589258925AD23AD2335
:1003D000892489248924232523258924892489247F
:1003E000232523259F253B259F253B259F253B2511
:1003F0009F253B259F25A123036EDB363D9A9999C6
:10040000993DABAAAA2A3E000000803F084AD73B8C
:100410003BCE016E84BCBFFDC12F3D6C74319ABDD3
:1004200056833DDA3D00C77F11BED9E4BB4C3E91F7
:100430006BAAAABE000000803F072C7AA5BA6CC543
:1004400090DA3B9365FC8BBC53F810FD3C569283CD
:100450004DBD879D3AB63DCBC9BF5BBE73DA0FC9B0
:100460003F05A84CCDB2D44EB93836A9020C50B9CC
:10047000918688083CA6AAAA2ABE000000803F08F0
:10048000000000BE922449123EABAAAA2ABECDCCDF
:10049000CC4C3E00000080BEABAAAAAA3E000000E1
:1004A00000BF000000803F0000000000084178D33A
:1004B000BB4387D1133D190E3CC3BD4282AD2B3ED9
:1004C00068EC8276BED98FE1A93E4C80EFFFBE0179
:1004D000C4FF7F3F00000000000253595349445FAE
:1004E00053575F4D5245560000000000C8090000F8
:1004F00000000153595349445F53575F54595045C5
:100500000000000001CA090000204102535953496C
:10051000445F544849534D41560000000070CB09D8
:100520000000803F0253595349445F4D594743539C
:1005300000000000000071CD0900007F4302534518
:100540005249414C305F42415544000000000031A7
:10055000CF090000E6420253455249414C315F4207
:10056000415544000000000032D1090000644201FE
:1005700054454C454D5F44454C4159000000000036
:100580000073D309000000000252544C5F414C54E8
:1005900000000000000000000000A0D4090080BBA3
:1005A0004404524E47464E445F4741494E000000C6
:1005B0000000001ED609CDCC4C3F0146535F42419E
:1005C00054545F454E41424C45000000C1DA0900D9
:1005D0000000000446535F424154545F564F4C5450
:1005E000414745000097DB09000028410446535F5E
:1005F000424154545F4D414800000000000025DF97
:1006000009000000000146535F4750535F454E41CB
:10061000424C4500000000C3E3090000803F014652
:10062000535F4743535F454E41424C450000000035
:10063000C6E4090000803F024750535F48444F50D2
:100640005F474F4F440000000023E5090000664368
:10065000014D41475F454E41424C450000000000BE
:10066000000092E7090000803F01464C4F575F456C
:100670004E41424C4500000000000096E809000091
:1006800000000153555045525F53494D504C4500B1
:10069000000000009BE909000000000252544C5F7A
:1006A000414C545F46494E414C00000000A3EA090A
:1006B0000000000001525353495F50494E000000B2
:1006C00000000000000018EC09000080BF04525335
:1006D00053495F52414E474500000000000000278B
:1006E000ED090000A0400157505F5941575F424556
:1006F000484156494F5200001AF1090000004003DA
:1007000052544C5F4C4F49545F54494D45000000D2
:1007100000A2F70900409C45024C414E445F5350F3
:1007200045454400000000000000D9FB09000048D6
:10073000420250494C4F545F56454C5A5F4D415808
:100740000000001CFD0900007A430250494C4F5440
:100750005F414343454C5F5A0000000030FF0900F1
:10076000007A43025448525F4D494E000000000099
:100770000000000000B4010A000002430254485285
:100780005F4D415800000000000000000000B5036C
:100790000A00007A440146535F5448525F454E4177
:1007A000424C4500000000B6050A00000000024669
:1007B000535F5448525F56414C55450000000000BD
:1007C000B8060A00C07344025452494D5F5448525F
:1007D0004F54544C4500000000B9080A0000E143A2
:1007E000025448525F4D49440000000000000000E0
:1007F0000000C20A0A0000FA43025448525F445AF9
:100800000000000000000000000000390C0A000099
:10081000C84201464C544D4F444531000000000091
:1008200000000000C80E0A0000000001464C544DB4
:100830004F444532000000000000000000C90F0ACC
:100840000000000001464C544D4F44453300000069
:10085000000000000000CA100A0000000001464C21
:10086000544D4F444534000000000000000000CB10
:10087000110A0000000001464C544D4F444535001C
:100880000000000000000000CC120A00000000017F
:10089000464C544D4F444536000000000000000017
:1008A00000CD130A000000000153494D504C450093
:1008B00000000000000000000000CE140A0000004C
:1008C00000034C4F475F4249544D41534B000000D9
:1008D0000000003C150A00805F44014553430000BE
:1008E000000000000000000000000000BA190A002B
:1008F0000000000154554E450000000000000000BB
:100900000000000000BB1A0A000000000254554E0F
:10091000455F4C4F57000000000000000000BD1D67
:100920000A000000000254554E455F484947480000
:1009300000000000000000BC1B0A00007A440146D1
:1009400052414D4500000000000000000000000082
:10095000951F0A0000803F014348375F4F50540005
:1009600000000000000000000098200A00000000C5
:10097000014348385F4F5054000000000000000061
:1009800000001F210A000000000141524D494E475E
:100990005F434845434B000000000020220A00004E
:1009A000803F02414E474C455F4D415800000000DA
:1009B00000000000229E1200A08C450152435F46B9
:1009C00045454C5F52500000000000000028F2092D
:1009D0000000C8420250484C445F4252414B455FC0
:1009E0005241544500002EF30900000041025048D6
:1009F0004C445F4252414B455F414E474C45002FAE
:100A0000F50900803B45014C414E445F5245504F33
:100A1000534954494F4E000034230A0000803F04DC
:100A2000454B465F434845434B5F54485245534806
:100A30000036240ACDCC4C3F0444434D5F43484527
:100A4000434B5F544852455348003B280ACDCC4C99
:100A50003F085243315F000000000000000000002A
:100A6000000000AA2C0ABB350000085243325F0088
:100A7000000000000000000000000000AB490ABBBD
:100A8000350000085243335F000000000000000002
:100A90000000000000AC660ABB3500000852433479
:100AA0005F00000000000000000000000000AD83B7
:100AB0000ABB350000085243355F0000000000000B
:100AC00000000000000000AEA00A513600000852ED
:100AD00043365F000000000000000000000000003E
:100AE000AFBE0A51360000085243375F00000000D5
:100AF000000000000000000000B0DC0A51360000D9
:100B0000085243385F0000000000000000000000B1
:100B10000000B1FA0A5136000008524331305F003C
:100B20000000000000000000000000B2180B513669
:100B3000000008524331315F000000000000000057
:100B400000000000B3360B513600000252435F53E1
:100B500050454544000000000000000000C0540B58
:100B60000000F543044143524F5F52505F50000074
:100B7000000000000000DD560B00009040044143DF
:100B8000524F5F5941575F5000000000000000F4D1
:100B90005A0B00009040044143524F5F42414C5F6A
:100BA000524F4C4C00000000F25E0B0000803F04EE
:100BB0004143524F5F42414C5F504954434800000B
:100BC00000F3620B0000803F014143524F5F5452DB
:100BD00041494E455200000000001B660B0000001A
:100BE00040044143524F5F4558504F000000000001
:100BF00000000038670B9A99993E08524154455FAE
:100C0000524C4C5F0000000000000000DF6B0B5DE9
:100C100034000008524154455F5049545F000000C1
:100C20000000000000E0890B5D34000008524154D0
:100C3000455F5941575F0000000000000000E1A738
:100C40000B5D340000084C4F495445525F4C4154F1
:100C50005F000000000000E7C50B5D340000084C99
:100C60004F495445525F4C4F4E5F0000000000005A
:100C7000E8E30B5D340000085448525F524154458C
:100C80005F0000000000000000EC010C2B340000AD
:100C9000085448525F414343454C5F000000000048
:100CA0000000F1050C5D340000084F465F524C4CCB
:100CB0005F00000000000000000000ED230C5D3428
:100CC0000000084F465F5049545F000000000000DC
:100CD00000000000EE410C5D340000085354425FF8
:100CE000524C4C5F000000000000000000E2630C6A
:100CF0002B340000085354425F5049545F000000F9
:100D0000000000000000E3670C2B3400000853547F
:100D1000425F5941575F000000000000000000E4FE
:100D20006B0C2B340000085448525F414C545F0058
:100D30000000000000000000EB6F0C2B34000008E6
:100D4000484C445F4C41545F00000000000000002C
:100D500000E55F0C2B3400000843414D5F000000AC
:100D600000000000000000000000A59F0EAA38004F
:100D7000000852454C41595F00000000000000008F
:100D80000000000DC7135F38000008434F4D50416D
:100D900053535F00000000000000000093B61132C2
:100DA0002F000008494E535F0000000000000000C3
:100DB00000000000000349093830000008494E4196
:100DC000565F0000000000000000000000006448C2
:100DD0000D023B00000857504E41565F00000000D6
:100DE0000000000000000065EE12983B0000084380
:100DF0004952434C455F0000000000000000000025
:100E000068C9134D3B0000084154435F00000000D7
:100E100000000000000000000066BB06DA3400009D
:100E200008504F53434F4E5F000000000000000089
:100E3000000067D80589350000085352305F000074
:100E400000000000000000000000006EB80EE20F7D
:100E50000000085352315F00000000000000000055
:100E6000000000006F8F0FE20F000008414852534E
:100E70005F0000000000000000000000009F8307EA
:100E8000E6320000084D4E545F00000000000000F4
:100E9000000000000000A6390E4039000008424161
:100EA00054545F0000000000000000000000002417
:100EB0006A10EF450000084252445F000000000045
:100EC00000000000000000000F0014E946000008C8
:100ED000474E445F000000000000000000000000DA
:100EE000000B2D11F02B0000084750535F0000004D
:100EF0000000000000000000000010C010BA270031
:100F0000000853434845445F000000000000000013
:100F10000000000CB109F84400000846454E434566
:100F20005F000000000000000000000045A8054927
:100F300044000008475053474C495443485F000061
:100F4000000000000046A01029280000084241527D
:100F50004F474C5443485F00000000000000470129
:100F6000144A2D0000084D4F545F0000000000009F
:100F7000000000000000005A740C9C36000008526B
:100F8000434D41505F0000000000000000000000E1
:100F9000C7191472450000084D49535F0000000056
:100FA0000000000000000000002A4107E0330000BC
:100FB00008524E47464E440000000000000000006A
:100FC0000000351D144C3700000000000000000038
:100FD0000000000000000000000000000000000011
:100FE000000002005241575F53454E53000000007D
:100FF0000000000000660000000000020145585497
:101000005F535441540000000000000000006800DD
:1010100000000000020252435F4348414E000000BE
:10102000000000000000006A0000000000020352FF
:1010300041575F4354524C00000000000000000084
:101040006C00000000000204504F534954494F4EB9
:101050000000000000000000006E00000000000220
:1010600005455854524131000000000000000000C6
:101070000000700000000000020645585452413242
:1010800000000000000000000000007200000000EE
:101090000002074558545241330000000000000090
:1010A000000000007400000000000208504152419E
:1010B0004D5300000000000000000000007600001A
:1010C00000000000FF000000000000000000000021
:1010D0000000000000000000000000000A460100BF
:1010E00064007B470200C201733F020084039646FE
:1010F0000A00D0025E560A00320059670A000A0050
:10110000442C0A008C00D33A0A00E803C3650400AB
:1011100020030330010032006B5721005A00DF2802
:101120000200A4010E260200FA00762B02006400E1
:10113000E54A6400A401BE2C0A00140010430A0012
:1011400014002F2C02002602B32764009600B0275B
:101150000200D00217500200B603272C0200C20181
:1011600038310A002C0145320200DC00DC5AE80369
:10117000C8002F2E0A0032000F266400640050457C
:1011800052463A2025752F257520256C750A004199
:10119000726475436F707465722056332E322E312F
:1011A000004672616D653A205155414400507265A8
:1011B00041726D3A205243206E6F742063616C69F6
:1011C0006272617465640050726541726D3A2047C5
:1011D000505320476C697463680050726541726DAA
:1011E0003A204E6565642033442046697800507289
:1011F0006541726D3A204261642056656C6F636987
:1012000074790050726541726D3A204869676820B0
:101210004750532048444F500050726541726D3A18
:10122000204261726F206E6F74206865616C746813
:10123000790050726541726D3A20416C7420646986
:10124000737061726974790050726541726D3A20F1
:10125000436F6D70617373206E6F74206865616C8D
:101260007468790050726541726D3A20436F6D70F9
:10127000617373206E6F742063616C696272617454
:1012800065640050726541726D3A20436F6D706104
:101290007373206F66667365747320746F6F206854
:1012A0006967680050726541726D3A2043686563F2
:1012B0006B206D6167206669656C640050726541E2
:1012C000726D3A20636865636B2066656E636500C6
:1012D00050726541726D3A20494E53206E6F7420F2
:1012E00063616C6962726174656400507265417219
:1012F0006D3A20416363656C73206E6F742068657E
:10130000616C7468790050726541726D3A2047795A
:10131000726F73206E6F74206865616C74687900F9
:1013200050726541726D3A204779726F2063616C2B
:10133000206661696C65640050726541726D3A2087
:10134000436865636B20426F61726420566F6C74F2
:101350006167650050726541726D3A2043683726B7
:10136000436838204F70742063616E6E6F74206222
:10137000652073616D650050726541726D3A20435E
:101380006865636B2046535F5448525F56414C5525
:10139000450050726541726D3A20436865636B2069
:1013A000414E474C455F4D41580050726541726D4A
:1013B0003A204143524F5F42414C5F524F4C4C2FB9
:1013C00050495443480041726D3A204779726F206A
:1013D00063616C206661696C65640043616C69627D
:1013E000726174696E67206261726F6D6574657297
:1013F000006261726F6D657465722063616C696211
:10140000726174696F6E20636F6D706C65746500D6
:1014100047524F554E442053544152540041726D2F
:101420003A204D6F6465206E6F742061726D616249
:101430006C650041726D3A20416C74206469737070
:1014400061726974790041726D3A20546872206249
:10145000656C6F772046530041726D3A204C656190
:101460006E696E670041726D3A20536166657479EA
:1014700020537769746368005472696D20736176D4
:101480006564004175746F54756E653A2053746FCE
:1014900070706564004175746F54756E653A2053C1
:1014A000756363657373004175746F54756E653A47
:1014B000204661696C6564004175746F54756E6592
:1014C0003A2053746172746564004C6F77204261F6
:1014D000747465727921004C6F73742047505321E6
:1014E000000A0A496E69742041726475436F707412
:1014F00065722056332E322E310A0A4672656520F7
:1015000052414D3A2025750A008059464D5400003D
:1015100042426E4E5A000000000000000000000031
:10152000547970652C4C656E6774682C4E616D65DE
:101530002C466F726D61742C436F6C756D6E730009
:10154000000000000000000000000000000000009B
:10155000000000000000000000000000000000008B
:1015600081175041524D004E6600000000000000FF
:10157000000000000000004E616D652C56616C7526
:1015800065000000000000000000000000000000F6
:10159000000000000000000000000000000000004B
:1015A000000000000000000000000000000000003B
:1015B00000000000000000822D4750530000424907
:1015C0004842634C4C6565456566490000005374AC
:1015D000617475732C54696D654D532C5765656B3B
:1015E0002C4E536174732C48446F702C4C61742CD6
:1015F0004C6E672C52656C416C742C416C742C538E
:1016000070642C474372732C565A2C540000831F6D
:10161000494D550000496666666666660000000032
:10162000000000000054696D654D532C47797258D5
:101630002C477972592C4779725A2C416363582C84
:10164000416363592C4163635A00000000000000AD
:10165000000000000000000000000000000000008A
:10166000000000000084434D534700005A00000072
:101670000000000000000000000000004D657373D2
:10168000616765000000000000000000000000002D
:10169000000000000000000000000000000000004A
:1016A000000000000000000000000000000000003A
:1016B00000000000000000000000000085235243ED
:1016C000494E00496868686868686868686868685A
:1016D00068680054696D654D532C43312C43322C9E
:1016E00043332C43342C43352C43362C43372C4383
:1016F000382C43392C4331302C4331312C43313297
:101700002C4331332C433134000000000000000032
:10171000000000861752434F5500496868686868A2
:101720006868680000000000000054696D654D5352
:101730002C4368616E312C4368616E322C436861C2
:101740006E332C4368616E342C4368616E352C43D4
:1017500068616E362C4368616E372C4368616E3861
:101760000000000000000000000088154241524FB8
:10177000004966666366000000000000000000008B
:101780000054696D654D532C416C742C5072657317
:10179000732C54656D702C435274000000000000DF
:1017A0000000000000000000000000000000000039
:1017B0000000000000000000000000000000000029
:1017C00000890D504F575200494343480000000024
:1017D000000000000000000054696D654D532C5658
:1017E00063632C56536572766F2C466C6167730089
:1017F00000000000000000000000000000000000E9
:1018000000000000000000000000000000000000D8
:1018100000000000000000009129434D44000049F1
:1018200048484866666666666666000000000054C2
:10183000696D654D532C43546F742C434E756D2C5C
:101840004349642C50726D312C50726D322C5072A1
:101850006D332C50726D342C4C61742C4C6E672C93
:10186000416C7400000000000000000000000092C5
:10187000105241440000494242424242484800005E
:1018800000000000000054696D654D532C52535305
:10189000492C52656D525353492C54784275662C2D
:1018A0004E6F6973652C52656D4E6F6973652C526E
:1018B000784572726F72732C466978656400000017
:1018C000000000000000941F43414D000049484CB7
:1018D0004C656563634300000000000000475053FF
:1018E00054696D652C4750535765656B2C4C61747A
:1018F0002C4C6E672C416C742C52656C416C742CB2
:10190000526F6C6C2C50697463682C5961770000BD
:101910000000000000000000000000000019194154
:1019200054554E004242666666666600000000003E
:1019300000000000417869732C54756E655374651E
:10194000702C526174654D696E2C526174654D61E5
:10195000782C52504761696E2C52444761696E2C55
:1019600053504761696E0000000000000000000055
:10197000000000001A09415444450063660000005D
:101980000000000000000000000000416E676C6570
:101990002C5261746500000000000000000000008F
:1019A0000000000000000000000000000000000037
:1019B0000000000000000000000000000000000027
:1019C000000000000000000000000009174355520D
:1019D000520049684968686866000000000000001D
:1019E000000054696D654D532C5468724F75742C0A
:1019F000546872496E742C566F6C742C43757272F5
:101A00002C5663632C43757272546F74000000008F
:101A100000000000000000000000000000000000C6
:101A200000000C144F46000000686842636365655F
:101A300000000000000000000044782C44792C5382
:101A40005175616C2C582C592C526F6C6C2C506950
:101A50007463680000000000000000000000000047
:101A60000000000000000000000000000000000076
:101A7000000000000000000000052F4E54554E00ED
:101A80004966666666666666666666000000000011
:101A900054696D654D532C44506F73582C44506FEE
:101AA00073592C506F73582C506F73592C445665D2
:101AB0006C582C4456656C592C56656C582C5665E0
:101AC0006C592C44416363582C44416363590000B2
:101AD00004214354554E004968686866666563632F
:101AE0006868000000000054696D654D532C54680F
:101AF00072496E2C416E674273742C5468724F7534
:101B0000742C44416C742C416C742C426172416C95
:101B1000742C4453416C742C53416C742C444352C8
:101B2000742C43527400000F194D4147000049685E
:101B300068686868686868680000000000005469A8
:101B40006D654D532C4D6167582C4D6167592C4D77
:101B500061675A2C4F6673582C4F6673592C4F6629
:101B6000735A2C4D4F6673582C4D4F6673592C4D3C
:101B70004F66735A000000000000000000000611CC
:101B8000504D0000004848496842484200000000AB
:101B900000000000004E4C6F6E2C4E4C6F6F702C8E
:101BA0004D6178542C504D542C4932434572722C5F
:101BB000494E534572722C494E415645727200008F
:101BC0000000000000000000000000000000000015
:101BD0000000000000011741545400004963636392
:101BE00063434343430000000000000054696D65F7
:101BF0004D532C446573526F6C6C2C526F6C6C2C73
:101C000044657350697463682C50697463682C442C
:101C100065735961772C5961772C45727252502C3B
:101C200045727259617700000000000003064D4FB5
:101C30004445004D68000000000000000000000066
:101C40000000004D6F64652C54687243727300008D
:101C50000000000000000000000000000000000084
:101C60000000000000000000000000000000000074
:101C70000000000000000000000000000000000064
:101C80000000000A035354525400000000000000FA
:101C90000000000000000000000000000000000044
:101CA0000000000000000000000000000000000034
:101CB0000000000000000000000000000000000024
:101CC0000000000000000000000000000000000014
:101CD000000000000000000000000D044556000058
:101CE00000420000000000000000000000000000B2
:101CF0000049640000000000000000000000000037
:101D000000000000000000000000000000000000D3
:101D100000000000000000000000000000000000C3
:101D200000000000000000000000000000000000B3
:101D30000014064431360000426800000000000034
:101D4000000000000000000049642C56616C7565BD
:101D50000000000000000000000000000000000083
:101D60000000000000000000000000000000000073
:101D70000000000000000000000000000000000063
:101D800000000000000000001506445531360042F6
:101D900048000000000000000000000000000049B2
:101DA000642C56616C7565000000000000000000A6
:101DB0000000000000000000000000000000000023
:101DC0000000000000000000000000000000000013
:101DD00000000000000000000000000000000016ED
:101DE0000844333200004269000000000000000097
:101DF00000000000000049642C56616C756500000D
:101E000000000000000000000000000000000000D2
:101E100000000000000000000000000000000000C2
:101E200000000000000000000000000000000000B2
:101E300000000000000017084455333200424900FA
:101E40000000000000000000000000000049642CB9
:101E500056616C7565000000000000000000000085
:101E60000000000000000000000000000000000072
:101E70000000000000000000000000000000000062
:101E800000000000000000000000000000180844EE
:101E9000464C5400426600000000000000000000B4
:101EA0000000000049642C56616C7565000000005C
:101EB0000000000000000000000000000000000022
:101EC0000000000000000000000000000000000012
:101ED0000000000000000000000000000000000002
:101EE000000000001305455252000042420000006D
:101EF00000000000000000000000005375627379CC
:101F0000732C45436F646500000000000000000072
:101F100000000000000000000000000000000000C1
:101F200000000000000000000000000000000000B1
:101F300000000000000000000000004E6F206461FF
:101F40007461666C61736820696E73657274656430
:101F50000045524153494E47204C4F4753000A52C7
:101F60006561647920746F20464C592000496E6980
:101F70007469616C6973696E672041504D2E2E2E15
:101F8000004657205665723A2025640A002D00420B
:101F9000616420766172207461626C650A0042613E
:101FA0006420766172207461626C65004669726DAE
:101FB00077617265206368616E67653A206572615A
:101FC00073696E6720454550524F4D2E2E2E0A00E4
:101FD000646F6E652E008D000100424154545F4DC8
:101FE0004F4E49544F520000000000A8000100422B
:101FF0004154545F564F4C545F50494E000000000E
:10200000A9000100424154545F435552525F504968
:102010004E000000008E000400424154545F564FB1
:102020004C545F4D554C540000008F000400424159
:1020300054545F414D505F504552564F4C5400919F
:10204000000300424154545F4341504143495459B5
:1020500000000000140002004C4F475F4249544DFD
:1020600041534B0000000000006C6F61645F616CC5
:102070006C20746F6F6B20256C7575730A00457248
:102080006173696E67206C6F67730A004C6F67201D
:10209000657261736520636F6D706C6574650A00AD
:1020A000456E746572696E67204553432043616CC9
:1020B0003A20726573746172742041504D2E0A008B
:1020C0004553432043616C3A2070617373696E67B6
:1020D000207468726F74746C65207468726F7567B1
:1020E0006820746F20455343732E0A0045534320E4
:1020F00063616C20696E7075743A202575202575B2
:1021000020257520257520206F75747075743A2010
:1021100025752025752025752025750A00434F4D0E
:102120005041535320494E4954204552524F52007A
:1021300041726475436F707465722056332E322E6F
:1021400031004672616D653A205155414400636F1C
:102150006D706173732064697361626C65640A00F9
:10216000636865636B20636F6D70617373005243C6
:10217000206E6F742063616C6962726174656400C3
:10218000746872206E6F74207A65726F004E6F747F
:10219000206C616E646564005354415254494E474B
:1021A0002043414C4942524154494F4E00435552FD
:1021B00052454E54005448524F54544C45004361CC
:1021C0006C6962726174696F6E20537563636573C5
:1021D0007366756C21004661696C65642100436F0C
:1021E0006D706173730A004D6167204465633A2026
:1021F00025342E34660A004D61672564206F6666BB
:102200003A2025342E34662C2025342E34662C209A
:1022100025342E34660A004D6F746F7220436F6D43
:10222000703A20004F66660A005468726F74746CCE
:10223000650043757272656E74000A436F6D4D6F71
:102240007425643A2025342E32662C2025342E3213
:10225000662C2025342E32660A00656E0064697390
:102260000061626C65640A004D6F746F7220546582
:1022700073743A205243206E6F742063616C6962FC
:102280007261746564004D6F746F7220546573746D
:102290003A2076656869636C65206E6F74206C61A6
:1022A0006E646564004D6F746F7220546573743A88
:1022B00020536166657479205377697463680043BD
:1022C000726173683A2044697361726D696E670068
:1022D00044434D206261642068656164696E6700F3
:1022E0005265616368656420436F6D6D616E642043
:1022F000232569005265616368656420436F6D6DD5
:10230000616E642023256900454550524F4D20667B
:10231000756C6C0025733A2025640A0025733A20F9
:1023200025640A0025733A20256C640A0025733A57
:102330002025660A00556E6B6E6F776E20636F6E98
:1023400076657273696F6E20272553270A004261F4
:102350006420636F6E76657273696F6E2074797036
:102360006520272553270A0000000000000603000F
:10237000000676090200760F5A000100D00F3000E7
:1023800000000000000503000005CA090200CA0E93
:1023900096000100600FA000DCDFE1E3E6E8EBED72
:1023A000EFF2F4F7F9FCFE000305080A0C0F111414
:1023B00016181B1D202224272C76D888674F082347
:1023C000C1DFAE59B1B796E5E453C63A5199769656
:1023D000E6C28426898C9B62407C6FFCBC9C9F403B
:1023E000BAA56FA590055A2A5C936B6C676DC11BEB
:1023F000E0E40D47F520E6B5D0ED902E009435775A
:102400000080841E0000204E000000C833333333A8
:10241000986E128341EF8D21893BE655CFFEE6DBB6
:10242000D1844B38F77C1D90A4BBE4243284725EC7
:102430008100C9F1ECA1E53D6E616E00696E660038
:102440004572726F723A2041505F48414C5F41566D
:10245000523A3A415652416E616C6F67496E206F35
:102460007574206F66206368616E6E656C730D0A0B
:102470000050414E49433A207363686564756C654A
:10248000723A3A73797374656D5F696E69746961E4
:102490006C697A65642063616C6C65646D6F7265EC
:1024A000207468616E206F6E636500474F494E4728
:1024B00020444F574E20464F522041205245424F14
:1024C0004F540D0A0050414E49433A204156525351
:1024D000656D6170686F72653A3A74616B652075FD
:1024E0007365642066726F6D20696E736964652020
:1024F00074696D65722070726F636573730050410B
:102500004E49433A2053504930207472616E7366CD
:10251000657220636F6C6C6973696F6E0050414E19
:1025200049433A20535049302077726974652063DB
:102530006F6C6C6973696F6E0001021020200808CF
:102540001020401020408002010201080402010115
:1025500002040810204080804020100804020180FE
:102560000402018040201008040201080402010155
:10257000020408102040800102040810204080401E
:1025800005050505070508080808020202020A0AEF
:10259000080804040404010101010101010103030D
:1025A000030303030303040707070C0C0C0C0C0CB8
:1025B0000C0C0202020206060606060606060B0BB5
:1025C0000B0B0B0B0B0B0500002000230026002932
:1025D000002C002F00320000010000030106010959
:1025E0000100002200250028002B002E00310034BD
:1025F0000002010000050108010B01000021002478
:102600000027002A002D00300033000101000004E3
:102610000107010A01666C6967687420706C616E5D
:10262000207570646174652072656A6563746564A1
:1026300000666C6967687420706C616E20726563F7
:10264000656976656400327C8900EDD968770000A1
:1026500000590000000000000000D69FDCA81817F9
:10266000AA90437327F6B968EDF4DED409FEE61CA0
:102670001C84DDE80B992927000000000F030000EF
:1026800000000099B7335276941500F37C000026C1
:10269000149E988F0000006A31161D0CF1E900E7C6
:1026A000B73F3600000000000000AF669ED0385DE6
:1026B000D36C20B95400007C77044C80387486EDCC
:1026C000CBFA57CBDC19E2001DDF5506E5CB010044
:1026D0000000000000000000002A310086DBD0BCB2
:1026E0005416131586004E44BD7F9A15159001EAC5
:1026F00049B51653A78AEAF02FBD34AE000000009A
:1027000000000000000000000000000000000000C9
:1027100000000000000000000000000000000000B9
:1027200000000000000000000000000000000000A9
:10273000000000000000000000000000000008CCC5
:1027400031AA2C532E00B5620601030001060112C6
:102750004F24505542582C34312C312C30303033EA
:102760002C303030312C33383430302C302A323663
:102770000D0A245047434D442C31362C302C302C3C
:10278000302C302C302A36410D0A24505352463119
:1027900030302C302C33383430302C382C312C3035
:1027A0002A33430D0A00C01200000096000000C248
:1027B000010000E10000802500000100545950454F
:1027C0000000000000000000000000000002000007
:1027D00000803F01024E415646494C54455200008C
:1027E00000000000000003000000004100FF0000A6
:1027F00000000000000000000000000000000000D9
:1028000000000000002075626C6F782000204D549D
:102810004B31392000204D544B2000205349524663
:102820002000204E4D454120000100454E41424CC4
:102830004500000000000000000000000300000050
:10284000803F0401524144495553000000000000FC
:10285000000000000004000000484304024143431C
:10286000454C0000000000000000000000000800CF
:1028700000007A4400FF000000000000000000009B
:102880000000000000000000000000000024504D87
:10289000544B3232302C3230302A32430D0A24501D
:1028A0004D544B3331332C312A32450D0A24504DCF
:1028B000544B3330312C322A32450D0A24504D54BA
:1028C0004B3339372C302A32330D0A0047505654D7
:1028D00047004750474741004750524D430024505E
:1028E0005352463130332C302C302C312C312A329B
:1028F000350D0A24505352463130332C312C302CB4
:10290000302C312A32350D0A24505352463130339F
:102910002C322C302C302C312A32360D0A245053D4
:1029200052463130332C332C302C302C312A323774
:102930000D0A24505352463130332C342C302C3174
:102940002C312A32300D0A24505352463130332C68
:10295000352C302C312C312A32300D0A2450535270
:10296000463130332C362C302C302C312A32320D7B
:102970000A24505352463130332C382C302C302C12
:10298000312A32430D0A24505352463135312C310D
:102990002A33460D0A24505352463130362C3231F8
:1029A0002A30460D0A24504D544B3331342C302CF0
:1029B000302C312C312C302C302C302C302C302C35
:1029C000302C302C302C302C302C302C302C302A29
:1029D00032380D0A24504D544B3333302C302A32C8
:1029E000450D0A24504D544B3331332C312A324596
:1029F0000D0A24504D544B3330312C322A32450DC0
:102A00000A24505542582C34302C6767612C302CE6
:102A1000312C302C302C302C302A37420D0A2450E7
:102A20005542582C34302C7674672C302C312C3095
:102A30002C302C302C302A37460D0A245055425861
:102A40002C34302C726D632C302C302C302C302CEC
:102A5000302C302A36370D0A00A0A20008A602004A
:102A6000000000000000A8B0B3A0A20008A6002942
:102A7000010000000000D0B0B350414E49433A205D
:102A800044617461466C61736820535049446576B3
:102A9000696365447269766572206E6F7420666F33
:102AA000756E640050414E49433A2044617461465A
:102AB0006C6173682053504944657669636544725C
:102AC000697665722073656D6170686F72652069E3
:102AD00073206E756C6C00554E4B4E2C2025750A7C
:102AE0000025532C20002564002575002564002551
:102AF0007500256C6400256C7500256600252E3256
:102B00006600252E326600252E326600252E32669E
:102B1000002573002573002573002C2000464D54BA
:102B20002C2025752C2025752C2025532C20255351
:102B30002C2025530A00444620706167652C206CC8
:102B40006F672066696C6520232C206C6F6720708E
:102B50006167653A2025752C090025752C0900252B
:102B6000750A004E6F2064617461666C6173682041
:102B7000696E736572746564004D616E756661633C
:102B800074757265723A20307825303278202020B2
:102B90004465766963653A203078253034780A00D8
:102BA0004E756D50616765733A2025752020506120
:102BB000676553697A653A2025750A000A4E6F20C9
:102BC0006C6F67730A0A000A2575206C6F67730AB9
:102BD000004C6F672025752C2020202073746172B3
:102BE000742025752C202020656E642025750A0030
:102BF00004024142535F505245535300000000000D
:102C00000000000C0000000000040354454D50007B
:102C100000000000000000000000000008000000AC
:102C200000000104414C545F4F4646534554000098
:102C3000000000000010000000000000FF00000085
:102C40000000000000000000000000000000000084
:102C50000000000050414E49433A2041505F42611C
:102C6000726F3A3A7265616420756E73756363655D
:102C7000737366756C20666F72206D6F7265207459
:102C800068616E203530306D7320696E2041505F71
:102C90004261726F3A3A63616C6962726174652075
:102CA0005B315D0D0A0050414E49433A2041505F6F
:102CB0004261726F3A3A7265616420756E73756332
:102CC0006365737366756C20666F72206D6F7265D5
:102CD000207468616E203530306D7320696E20413C
:102CE000505F4261726F3A3A63616C6962726174FB
:102CF00065205B325D0D0A0050414E49433A204148
:102D0000505F4261726F3A3A7265616420756E730A
:102D100075636365737366756C20666F72206D6F83
:102D20007265207468616E203530306D7320696E75
:102D30002041505F4261726F3A3A63616C6962721E
:102D4000617465205B335D0D0A000100454E414210
:102D50004C450000000000000000000000030000DF
:102D600000803F040144495354000000000000006B
:102D700000000000000004000000FA430402414388
:102D800043454C0000000000000000000000000867
:102D9000000080BB4400FF000000000000000000B5
:102DA0000000000000000000000000000000504192
:102DB0004E49433A2041505F4261726F5F4D533537
:102DC00036313120646964206E6F74206765742029
:102DD00076616C6964205350492064657669636547
:102DE00020647269766572210050414E49433A2051
:102DF00041505F4261726F5F4D533536313120640F
:102E00006964206E6F74206765742076616C6964F4
:102E1000205350492073656D617068726F652100A1
:102E200050414E49433A206661696C656420746F75
:102E30002074616B65205F7370695F73656D20310D
:102E400030302074696D657320696E206120726F67
:102E5000772C20696E2041505F4261726F5F4D5345
:102E6000353631313A3A5F757064617465005041AE
:102E70004E49433A2041505F4261726F5F4D533576
:102E80003631313A204E554C4C2073657269616C75
:102E9000206472697665720050414E49433A204180
:102EA000505F4261726F5F4D53353631313A206663
:102EB00061696C656420746F2074616B6520736553
:102EC0007269616C2073656D6170686F72652066F0
:102ED0006F7220696E69740050414E49433A204137
:102EE000505F4261726F5F4D533536313120746FE0
:102EF0006F6B206D6F7265207468616E20313030A9
:102F0000306D7320746F20696E697469616C697AC1
:102F100065004661696C656420746F206765742084
:102F2000484D43353834332073656D6170686F7276
:102F3000650005014F46530000000000000000003E
:102F40000000000000170000000000040244454398
:102F5000000000000000000000000000000023004E
:102F60000000000001034C4541524E0000000000EB
:102F70000000000000000008000000803F01045530
:102F800053450000000000000000000000000000A9
:102F900027000000803F01054155544F4445430040
:102FA00000000000000000000028000000803F0139
:102FB000064D4F5443540000000000000000000084
:102FC0000000A4000000000005074D4F5400000061
:102FD0000000000000000000000000A5000000004C
:102FE0000001084F5249454E540000000000000007
:102FF000000000001600000000000109455854457B
:10300000524E414C0000000000000000002900006A
:1030100000000000FF0000000000000000000000B1
:103020000000000000000000000000002D00256CE2
:10303000642E2530376C6400020050524F445543D3
:10304000545F4944000000000000001F0000000021
:103050000005014143435343414C00000000000080
:103060000000000021000000000005024143434F22
:10307000464653000000000000000000002D000044
:1030800000000005034759524F4646530000000018
:1030900000000000000039000000000001044D5055
:1030A00055364B5F46494C544552000000000045E0
:1030B000000000000000FF00000000000000000011
:1030C0000000000000000000000000000000546F3D
:1030D0006F206D616E79206779726F7300546F6F26
:1030E000206D616E7920616363656C7300546F6F4E
:1030F000206D616E7920494E53206261636B656E6D
:103100006473004E6F20494E53206261636B656E9D
:10311000647320617661696C61626C65006F6E201A
:10312000697473204241434B00506C6163652076A3
:10313000656869636C6520255320616E6420707238
:1031400065737320616E79206B65792E0A004F6676
:1031500066736574735B25755D3A20252E32662093
:10316000252E326620252E32660A005363616C6973
:103170006E675B25755D3A20252E326620252E323E
:103180006620252E32660A0043616C6962726174A2
:10319000696F6E207375636365737366756C0A007F
:1031A00043616C6962726174696F6E204641494C7B
:1031B00045440A00496E697420416363656C002AC6
:1031C000002000496E6974204779726F002A0067F9
:1031D00079726F5B25755D20646964206E6F742061
:1031E000636F6E76657267653A20646966663D2531
:1031F00066206470730A006C6576656C006F6E20E3
:10320000697473204C4546542073696465006F6E81
:1032100020697473205249474854207369646500DB
:103220006E6F736520444F574E006E6F7365205567
:1032300050006661696C656420746F20626F6F7402
:10324000204D50553630303020352074696D65730F
:103250000056616C75657320646F65736E2774200A
:103260006D617463683B207772697474656E3A208F
:10327000253032783B20726561643A2025303278FF
:1032800020004D5055363030303A20556E61626C1A
:103290006520746F206765742073656D6170686F59
:1032A0007265004661696C656420746F20626F6F9F
:1032B00074204D50553630303020352074696D659E
:1032C000730054696D6564206F757420776169744B
:1032D000696E6720666F7220757365722072657300
:1032E000706F6E73650004024750535F4741494E4B
:1032F00000000000000000000022000000803F01EC
:10330000034750535F555345000000000000000084
:1033100000002C000000803F04045941575F50001A
:1033200000000000000000000000001A00CDCC4C9E
:103330003E040552505F50000000000000000000F5
:10334000000000001E00CDCC4C3E010657494E4403
:103350005F4D41580000000000000000002D0000FB
:1033600000000005085452494D0000000000000014
:1033700000000000000041000000000001094F5261
:1033800049454E544154494F4E0000000000002E64
:103390000000000000040A434F4D505F4245544175
:1033A00000000000000000002800CDCCCC3D010B47
:1033B0004750535F4D494E534154530000000000A5
:1033C000002F000000C04000FF00000000000000CF
:1033D00000000000000000000000000000000000ED
:1033E0000200544F54414C00000000000000000057
:1033F0000000000500000000000101524553544147
:10340000525400000000000000000000070000000F
:10341000000000FF000000000000000000000000AD
:103420000000000000000000000000040050000048
:10343000000000000000000000000000000000008C
:103440000000000000FF000000000000000000007D
:103450000000000000000000000000000004005018
:10346000000000000000000000000000000000005C
:1034700000000000000004014900000000000000FE
:103480000000000000000000000400000000000434
:1034900002440000000000000000000000000000E6
:1034A00000000800000000000203494D41580000E0
:1034B00000000000000000000000000C0000000000
:1034C0000000FF00000000000000000000000000FD
:1034D00000000000000000000000040052415445BC
:1034E0005F52505F4D415800000000000026000070
:1034F000A08C460401524154455F595F4D4158002C
:103500000000000000002A0000A00C460402534CFA
:1035100045575F5941570000000000000000002E91
:103520000000007A440403414343454C5F52505F1E
:103530004D4158000000000032000000000004046B
:10354000414343454C5F595F4D4158000000000026
:10355000003600000000000105524154455F464618
:103560005F454E414200000000003A0000000000AC
:1035700000FF00000000000000000000000000004C
:1035800000000000000000000004005448525F48A2
:103590004F564552000000000000000017000000D8
:1035A000E14300FF000000000000000000000000F8
:1035B000000000000000000000000002004D494E25
:1035C00000000000000000000000000000000A00F1
:1035D0000080894402015452494D0000000000005F
:1035E000000000000000000C000080BB4402024DFF
:1035F0004158000000000000000000000000000032
:103600000E000080ED44010352455600000000000A
:1036100000000000000000000010000000803F02D9
:1036200005445A00000000000000000000000000F7
:10363000000011000000000000FF0000000000007A
:10364000000000000000000000000000000000007A
:103650000008000000000000000000000000000062
:10366000000000000000BB350000010146554E433C
:1036700054494F4E0000000000000000001D0000F3
:1036800000000000FF00000000000000000000003B
:103690000000000000000000000000000101544391
:1036A00052565F454E41424C450000000000002E3E
:1036B000000000803F0102544352565F4D49445080
:1036C00043540000000000002F000000504201039E
:1036D000544352565F4D415850435400000000007F
:1036E0000030000000BA4202055350494E5F41527B
:1036F0004D454400000000000000310000008C42F5
:1037000000FF0000000000000000000000000000BA
:103710000000000000000000000001020304050694
:103720000741505F4D6F746F72733A206661696C28
:10373000656420746F2063726561746520746872BB
:103740006F74746C652063757276650001005F5458
:10375000595045000000000000000000000000007B
:10376000000000000001015F50494E000000000011
:1037700000000000000000000100000080BF040203
:103780005F5343414C494E470000000000000000D9
:103790000006000000404004035F4F464653455476
:1037A000000000000000000000000A00000000000F
:1037B00001045F46554E4354494F4E00000000003F
:1037C0000000000E000000000002055F4D494E5F42
:1037D000434D000000000000000000000F0000004A
:1037E000A04102065F4D41585F434D0000000000BC
:1037F0000000000000110000002F4401075F535437
:103800004F505F50494E00000000000000000300D0
:10381000000080BF02085F534554544C455F4D5330
:103820000000000000000004000000000001095F2B
:10383000524D455452494300000000000000000072
:1038400002000000803F00FF0000000000000000B8
:103850000000000000000000000000000000000167
:103860000050494E00000000000000000000000071
:103870000000000000005041010150494E3200009C
:1038800000000000000000000000000100000080B7
:10389000BF00FF000000000000000000000000006A
:1038A00000000000000000000000010054524947E1
:1038B000475F545950450000000000000000000020
:1038C00000000001014455524154494F4E00000090
:1038D00000000000000001000000204102025345EA
:1038E00052564F5F4F4E00000000000000000002E3
:1038F000000080A2440203534552564F5F4F464694
:10390000000000000000000004000080894404045E
:1039100054524947475F4449535400000000000097
:103920000009000000000000FF000000000000008F
:103930000000000000000000000000000000000087
:1039400001004D4F44450000000000000000000051
:1039500000000031000000000005015245545241B2
:10396000435400000000000000000000420000007E
:10397000000005024E45555452414C000000000025
:1039800000000000004E00000000000503434F4E01
:1039900054524F4C000000000000000000005A008C
:1039A000000000000104535441425F524F4C4C0050
:1039B000000000000000002E000000000001055380
:1039C0005441425F54494C54000000000000000084
:1039D0002F00000000000106535441425F50414E49
:1039E00000000000000000000030000000000001A6
:1039F0000752435F494E5F524F4C4C00000000009D
:103A000000003200000000000208414E474D494EC0
:103A10005F524F4C00000000000000350000A08CF9
:103A2000C50209414E474D41585F524F4C000000BE
:103A300000000000370000A08C45010A52435F4996
:103A40004E5F54494C540000000000000033000059
:103A5000000000020B414E474D494E5F54494C0057
:103A6000000000000000390000A08CC5020C414E8F
:103A7000474D41585F54494C000000000000003B96
:103A80000000A08C45010D52435F494E5F50414EEE
:103A90000000000000000000340000000000020EE2
:103AA000414E474D494E5F50414E0000000000001E
:103AB000003D0000A08CC5020F414E474D41585FAC
:103AC00050414E000000000000003F0000A08C4567
:103AD00001104A535449434B5F53504400000000C7
:103AE00000000041000000000000FF000000000096
:103AF00000000000000000000000000000000000C6
:103B00000000040154435F58590000000000000009
:103B10000000000000130000002040040254435F36
:103B20005A00000000000000000000000000170024
:103B30000000A04000FF00000000000000000000A6
:103B4000000000000000000000000000000400521F
:103B500041444955530000000000000000000000EF
:103B6000070000007A44040152415445000000005F
:103B70000000000000000000000B000000A0410059
:103B8000FF00000000000000000000000000000036
:103B900000000000000000000400535045454400B0
:103BA00000000000000000000000000F000000FA0C
:103BB00043040152414449555300000000000000F5
:103BC000000000001B00000048430402535045451C
:103BD000445F55500000000000000000001300008A
:103BE000007A43040353504545445F444E000000AF
:103BF00000000000000017000000164304044C4FB2
:103C000049545F5350454544000000000000000740
:103C1000000000FA430405414343454C0000000006
:103C200000000000000000001F000000C842040661
:103C3000414343454C5F5A00000000000000000073
:103C40000023000000C84204074C4F49545F4A4516
:103C5000524B00000000000000000B0000007A44FE
:103C600000FF000000000000000000000000000055
:103C700000000000000000000096918C87827D7893
:103C8000736E69645F5A55504B46413C37322D285C
:103C9000231E19140F0A050004090E13181D2227EC
:103CA0002C31363B40454A4F54595E63686D7277FC
:103CB0007C81868B90959A9FA4A9AEB3AFAAA5A04C
:103CC0009B968F89837E78736E69645F5A55504BDB
:103CD00047423E3935302C27231F1B16120E09058B
:103CE0000103070B1014191D22262B2F34393D42D6
:103CF000474C51565B60656B70757B80868C9297E4
:103D00009DA3A9AFB2ACA6A09A948F827C76706B6B
:103D100065605C57524E4A46413D3936322E2A265E
:103D2000221F1B1713100C08040102060A0E12169C
:103D30001A1E22262B2F33383D41464B4F54595ED5
:103D400064696F747A80878D949BA2AAB1AEA69F96
:103D5000979089826F68635E5955514D4946423F3D
:103D60003C3835322E2B2824211E1A1714100D0A28
:103D70000603000306090D1014181C2024282C30FB
:103D800034393D41464A4F54585D62676D737980BE
:103D9000878F98A2ACB0A59A90867D766F55514DCD
:103DA0004A4744413F3C3A383533312E2B292623AC
:103DB000201D1A1713100D0A070401010306090D2F
:103DC0001013171A1E22262A2E32363A3E42464A2F
:103DD0004E53575B5F64696E757C85909FB2A08D72
:103DE0007D7067605A553E3C3A393736343332304D
:103DF0002F2E2C2A292724221F1C191613100D0AD6
:103E0000070402000305080A0D1013161A1D2125C8
:103E1000292D3135383C4043464A4D505356595B65
:103E20005E6165696F826D544D4A474442403E2E43
:103E30002E2D2C2C2B2A2A292928272625242321FC
:103E40001F1C1A1714100D0A0704010103050709A6
:103E50000C0E1013161A1D2124282C3033373A3D2E
:103E600040424447484A4A4B4A48443D30190216AA
:103E700021282B2D2E2F2E2E06090C0F1215171967
:103E80001B1C1B1811040E2231383C3C3C3A3835BF
:103E9000322F2B2824201C1915110D0905010206AB
:103EA0000A0E1115181C1F222527292A2B2B29261B
:103EB000211911080004080A0A0A0807040200036D
:103EC0000616181A1C1E20211F1712516063625F0C
:103ED0005D5956524E4A46423E3935312C282420EF
:103EE0001B17130E0A060102060A0F13171B1F23C6
:103EF000262A2D313437393C3D3F3F3E3D39352F61
:103F000028211C17151313131416A8ADB2B0ABA6B5
:103F1000A19C97928D88837E79746F6A65605B56E9
:103F2000514C47423D38332E29241F1A15100B06D9
:103F30000103080D12171C21262B30353A3F444946
:103F40004E53585D62676C71767B80858A8F949939
:103F50009EA3A800000001FFFFE000000000000099
:103F600001FFFFF000000000000001FFFFF800006B
:103F70000000000001FFFFFE00000000000003FF42
:103F8000FFFF00000000000003FFFFFFF000000043
:103F900000000FFFFFFFFE00000003FFFFFC00001A
:103FA00007FC00007FFFFFFC000000000000001F76
:103FB000FFFE0000000000241E191512100E0C0B4D
:103FC0000A09090908080807060605040404030489
:103FD0000404000000000000000000002726212348
:103FE000252325242722292A2A1C27282B33322758
:103FF00025222C3331303700000000000000000083
:104000000080114011407132733433321312113277
:104010001112933413145352310021030406080B78
:104020002D0A090705040241C011C05112535473EF
:104030001211125152731473323100210204050619
:1040400007080908060706240302010200012001EF
:104050002011C00111003132137413143312F11204
:10406000D3125100010223250607464423422100B2
:1040700001E0A0313213B4331112110011201100EC
:104080005233121332112001222485042304020327
:1040900042410001E0A051121413151315341332DC
:1040A0005140012011521332310001222304050432
:1040B000050423010382612001E0118011321354B1
:1040C0001514333231402102010031723141022393
:1040D000442302012201220102614001A01180510A
:1040E000121413341514331231400102010302017A
:1040F0002052111220212243042241022102A10058
:1041000001E0201140515374133211402102030287
:104110000302010011121132001141222322210059
:104120004102A18001601160110011323374131239
:1041300011400162030203213112111211400102E8
:104140000102030201000100E121E0A0112012118F
:1041500073343331200162036240121112110011D5
:104160000100010201220001200100E1C001001153
:1041700080110012111312141334522001E2022193
:104180002031121100110001002102010001402123
:104190000002410001E060114011121113121413CA
:1041A00014133211002122034201022100010011E7
:1041B000001211001120010041600100C100014006
:1041C00011200160114051121312131433123100E7
:1041D00001420322010221000140110031001100BF
:1041E0000100010001A0E10001A001801120315275
:1041F0009312110021C22100214031001120110031
:10420000010001E0E16001E0110011727312310060
:1042100021420301020102202140110011201160FE
:104220000140116001000102210200012001400152
:10423000A0513213125332112001020182210021B8
:10424000000100110031E0001100116021000102A5
:10425000010201010021200100016011001152132F
:104260001214135211004182010200010021401179
:1042700000110011A0110031001120812201010064
:1042800002010021000160110052131213141332B5
:10429000310100020122014201002100010001114F
:1042A0002011001120114071001140010221020172
:1042B000020100210221000100010011001211126F
:1042C0003312341332112001020142012201004154
:1042D0000001601120110011001100511231206104
:1042E0000201220200020102812011001211733426
:1042F00013321100410201820100610001801100AE
:1043000011009132314021420102020062614011EC
:104310005214135433310041820122000102004142
:104320000001609112115251200122010301020289
:1043300000826100513354151433310021020122EF
:1043400003424102A1803192133231004122030223
:10435000010300220322010201401112339533317F
:104360000100220103420322212201026100011106
:104370000011521312531231004122032203002371
:1043800002030201022120321314161517161533E9
:104390001120016203020302032201A24140111213
:1043A0005314131413321101000201020302030219
:1043B0000200022302032221203214163718171597
:1043C000131211002122030243024301030203825C
:1043D0002120111213141534151432110001622317
:1043E00002030043020342012012131518193A1761
:1043F00015131100210203026304E3020302030206
:1044000001024012131415171516341220212243ED
:10441000020300A3220100111215181C1E1D1916FB
:1044200013110002010302030423040324030443C1
:104430000423040302034220111214151718361521
:104440001331210203022302030100454E41424C75
:104450004500000000000000000000000200000015
:104460000000010154595045000000000000000008
:1044700000000000000300000040400102414354DE
:10448000494F4E0000000000000000000000040042
:104490000000803F0403414C545F4D415800000030
:1044A0000000000000000005000000C842040452A3
:1044B0004144495553000000000000000000000086
:1044C00009000000964304054D415247494E000043
:1044D0000000000000000000000D0000000040008F
:1044E000FF000000000000000000000000000000CD
:1044F0000000000000000000010044454255470054
:1045000000000000000000000000000000000000AB
:104510000000FF000000000000000000000000009C
:10452000000000000000000000005363686564752F
:104530006C657220736C6970207461736B5B257598
:104540005D202825752F25752F2575290A005363B1
:10455000686564756C6572206F76657272756E2021
:104560007461736B5B25755D202825752F25752972
:104570000A000100524F4C4C0000000000000000F7
:10458000000000000000000000803F01015049547D
:10459000434800000000000000000000000001008F
:1045A0000000004001025448524F54544C45000052
:1045B000000000000000000300000040400103591B
:1045C0004157000000000000000000000000000053
:1045D00002000000804000FF00000000000000001A
:1045E00000000000000000000000000000000001CA
:1045F000004D4F4E49544F52000000000000000093
:1046000000000000000000000101564F4C545F50B4
:10461000494E0000000000000000000100000050B2
:10462000410102435552525F50494E0000000000C4
:10463000000000000200000040410403564F4C54AB
:104640005F4D554C54000000000000000003009A2C
:104650009921410404414D505F504552564F4C54EE
:104660000000000000000700000088410405414DE3
:10467000505F4F4646534554000000000000000BB9
:1046800000000000000306434150414349545900D3
:1046900000000000000000000F0000404E45010730
:1046A000564F4C54325F50494E000000000000004D
:1046B000001300000080BF0408564F4C54325F4D79
:1046C000554C540000000000000014000000803F22
:1046D00000FF0000000000000000000000000000DB
:1046E00000000000000000000000FF0000000000CB
:1046F00000000000000000000000000000000000BA
:1047000000000D949A250D9432270D9465590D944F
:10471000524F0D94A4870D948B0D0D94AB250D94E1
:10472000DD090D94E2910D94A40D0D9403710D9487
:1047300092480D94455B0D9433B10D94490D0D9441
:10474000B6770D940FAA0D9494310D94C3870D94F0
:104750003A9A0D94A20C0D9434740D94D0A90D9432
:104760007F320D94FB2B0D9440750D94E8490D9408
:10477000AF240D94EA140D946A5F0D94012C0D94EE
:10478000816D0D94DD4E0D94DC870D94BA680D9407
:10479000896D0D94CB640D94DF2A0D944B780D94A4
:1047A000F3300D94A8100D94AF560D94E2900D9433
:1047B0003D580D94026D0D9414670D94F5890D9478
:1047C000EC710D94C3300D946E560D94ABAA0D94FC
:1047D00011770D94C8770D94120C0D9437310D9408
:1047E00013340D94604B0D94204C0D94FC0E0D94DD
:1047F0006E950D94C3A80D94AB540D9464A00D94C4
:10480000072C0D94F50C0D9409A00D94B9300D945E
:10481000D06B0D94350D0D94485C0D9447060D94A6
:10482000FEA30D94B10C0D940B250D94C5050D94AC
:104830002F0D0D94E76B0D942F180D9452A80D9425
:1048400092890D9430760D94CC700D94AD8A0D94B0
:10485000BF400D94FB120D94F4070D94BA0B0D9408
:10486000E9100D94C07F0D94500A0D94AC0B0D947B
:104870009A310D94600B0D942E6D0D94CD300D94E6
:104880007F1C0D94E2490D9499810D946B5A0D94FF
:104890001C330D9474130D94F06B0D940A690D94F0
:1048A00051000D94770D0D942C2F0D9446320D94DC
:1048B000CC2B0D94DA8C0D947AA40D94068B0D9468
:1048C00046820D945B990D9498390D9462770D94FE
:1048D0005A4B0D94DD060D94E10C0D9477110D9457
:1048E000664B0D94C19C0D94A7650D94F3760D94C1
:1048F000F54D0D94A9870D94BF0D0D94290D0D94C0
:10490000350B0D94700C0D94D1210D94094A0D9422
:1049100073510D94EDA90D94E92B0D945D8C0D94BC
:104920001A4C0D94DB550D940C270D9494990D940D
:10493000B5700D94DE880D9446500D948F250D941E
:104940008E0F0D9433730D946A7E0D94F9760D9449
:10495000662B0D946C270D9478470D94FD2B0D94C8
:10496000C8670D94F92B0D945C0D0D948B3A0D9442
:10497000A22F0D9493670D94F7570D94D40A0D94BC
:104980008D310D9404A80D949F870D9485360D9458
:10499000B7870D94AA010D94AB2C0D94252F0D947F
:1049A00037880D94500C0D94304D0D94322F0D948A
:1049B000260B0D94D90B0D941FA10D94F9290D947C
:1049C00031730D949A1B0D94F5870D94FE0B0D9485
:1049D000BC5F0D94A7580D945A4D0D9441810D94D0
:1049E000A9800D948C6C0D94560B0D9479020D9446
:1049F0008B0B0D944C750D946C2B0D949A4A0D9461
:104A0000D1160D948B360D94C6470D94C59A0D940E
:104A1000CF340D94A52C0D94A3920D94277A0D9468
:104A20002D730D94E00A0D94140A0D9446550D94BF
:104A3000FA0A0D9479320D94E52B0D9431620D94A0
:104A4000887B0D94B94C0D94EFA90D94BD730D9412
:104A5000ED6B0D9454A80D94B97C0D94646D0D9478
:104A6000EE460D945F090D9428070D94AA780D94D5
:104A7000D2700D94A6950D940DAA0D9498330D94B3
:104A8000370E0D94820C0D94420C0D94A5250D94B7
:104A9000670D0D94E08C0D942F840D94E2350D94E8
:104AA0009A2E0D94850B0D944F840D94000E0D9449
:104AB000E72B0D947B310D94F40A0D9466010D944F
:104AC000B86C0D94A6560D94E9770D94B7A90D9482
:104AD00087310D94185E0D9426320D94C62B0D94DB
:104AE000FF2B0D94A02E0D94684E0D94B4300D94B0
:104AF000D8260D942D9E0D94BCA90D94EE730D94A3
:104B000025210D94E7250D9446750D9432730D946F
:104B1000B2940D94CEA90D94B5240D94D70D0D9497
:104B2000FF9A0D9478710D94586C0D94D06A0D9481
:104B300036760D94E60D0D94CE0B0D94BF150D94A5
:104B40000BAA0D94AB870D94E3770D948BAB0D946A
:104B50003F370D94BE2A0D948F6D0D9452470D94DE
:104B60002C110D941B0E0D946E730D94CE980D9414
:104B700048030D9405880D94401E0D94C6870D942E
:104B8000BC780D94CC240D94C06C0D9453750D9489
:104B90001A420D94353A0D94DC740D94BE308C7B22
:104BA0000D8B889A45A35FA762A737A8ECF2412432
:104BB000B5230F7F11241FBECFEFD1E2DEBFCDBFE3
:104BC00000E00CBF15E0A0E0B2E0EAEEF9E603E099
:104BD0000BBF02C007900D92AC39B107D9F717E1AE
:104BE000ACE9B5E001C01D92AC3FB107E1F71BE4B1
:104BF000C2EBDBE400E006C022970109FE010BBF17
:104C00000F94A5B2CE39D10780E00807A9F70E941A
:104C1000256D0D94E4B40C940000089508958091DE
:104C2000D8149091D9149C012F5F3F4F3093D91421
:104C30002093D814459734F081E090E09093D514F8
:104C40008093D4140895A0916215B0916315ED91ED
:104C5000FC9111970280F381E02DCD011995089503
:104C60008091621590916315DC01ED91FC910480B7
:104C7000F581E02D19950895809162159091631545
:104C8000DC01ED91FC910680F781E02D19950895E6
:104C90008091430D80FF18C08091CD109091CE106F
:104CA000039794F08091A21081FD0EC08091211194
:104CB00083FD0AC09091281190FD06C085FB8827CE
:104CC00080F991E08927089580E00895FC0112821F
:104CD000138214821582168217821086118612861C
:104CE00013861486158616861786108A118A128AEC
:104CF000138A148A158A168A178A108E118E128EBC
:104D0000138E148E158E168E0895FF920F931F9397
:104D1000CF93DF93FC01868DDF0194E0899FA00D86
:104D2000B11D1124F42E042F152F262F372F129684
:104D30000D931D932D933C9315978F5F873010F43F
:104D4000868F01C0168E362F272F642F752F832F45
:104D5000922FCDB7DEB7E5E00D943AB2A0E0B0E017
:104D6000E4EBF6E20D9417B28B017A01E90144E914
:104D700051E16CE67EEE0E94DAFC6C0144E951E1FF
:104D80006CE67EEEC8010E94DAFC8C0160919E12F6
:104D900070919F12643981E1780731F4F701D18273
:104DA000C0821983088346C08091B9149091BA14C7
:104DB00068177907C1F07093BA146093B914882703
:104DC00077FD8095982F0F949CAD20E030EA4CE859
:104DD00055E40F9401AD60932002709321028093FB
:104DE0002202909323028090200290902102A090B2
:104DF0002202B0902302B601882777FD8095982F74
:104E00000F949CADA50194010F94C7AF0F9469ADA9
:104E1000F70171836083B801882777FD8095982F0B
:104E20000F949CADA50194010F94C7AF0F9469AD89
:104E300079836883CDB7DEB7ECE00D9433B2A5E09B
:104E4000B0E0E5E2F7E20D9421B2FE01319695E083
:104E5000DF011D929A95E9F793EA998395E99A8380
:104E600093E19B838C836D8345E050E0BF0181E239
:104E70009DE00E9406DA2596E2E00D943DB2A6E0A0
:104E8000B0E0E5E4F7E20D9421B2BE016F5F7F4F21
:104E900096E0FB0111929A95E9F793EA998395E9D7
:104EA0009A8393E09B838C838091080A9091090AEE
:104EB0009E838D8346E050E081E29DE00E9406DA09
:104EC0002696E2E00D943DB2A0E0B0E0EAE6F7E21B
:104ED0000D941FB2FE0138962191319181E08093AB
:104EE000BB0E8F0142E350E06CEB7EE080916415D5
:104EF000909165150E94128D62E170E088EB9EE052
:104F00000E94F5B180918F0F882379F083E3EBEB5A
:104F1000FEE0A2E9BFE001900D928A95E1F762E11F
:104F200070E08FE89FE00E94F5B1E4E00D943BB2A1
:104F3000CF93DF93EC018091B80E882329F0BE0156
:104F400088EB9EE00E94F5B180918F0F882329F0B5
:104F5000BE018FE89FE00E94F5B1DF91CF910895E7
:104F60008CE190E0E5CF80E090E0E2CFA5E2B0E018
:104F7000ECEBF7E20D941FB28E010F5F1F4F25E29D
:104F8000F80111922A95E9F7B8010F942144609134
:104F9000460770914707A80181E29DE00E94B3E7B0
:104FA000A596E4E00D943BB2A0E0B0E0EAEDF7E2B4
:104FB0000D941BB28091521490915314A0915414EB
:104FC0006091D4097091D5099B01442737FD409524
:104FD000281739074A0744F49C014A2F552747FDF3
:104FE0005095CA01B90104C0882777FD8095982F94
:104FF0000F949CAD8B01D82FC92F88EA95E00F94B0
:1050000098A280FF2BC02091B5053091B605409144
:10501000B7055091B8056091AD057091AE058091CE
:10502000AF059091B0050F941CAC20E030E048EC47
:1050300052E40F94C7AF6B017C01762F272F3D2DD3
:105040004E2D5F2DFE01602F712F8F2F9E2F0F94FD
:10505000FAAC87FD03C08601DE2DCF2D9E01602FA7
:10506000712F832F9C2FCDB7DEB7E8E00D9437B2B8
:10507000CF92DF92EF92FF920F931F938091621570
:1050800090916315DC01ED91FC910680F781E02D94
:1050900019952091AB143091AC144091EC145091BF
:1050A000ED142417350779F03093ED142093EC14A8
:1050B0006093E8147093E9148093EA149093EB14CE
:1050C0001092EE143FC0209108022223D9F10091E2
:1050D000E8141091E9142091EA143091EB146B015B
:1050E0007C01C01AD10AE20AF30A9701860141E85D
:1050F000C41644E8D4064EE1E406F104F8F041E0B9
:105100004093EE141BC0013412442F403105D0F0FF
:105110006093E8147093E9148093EA149093EB146D
:1051200080917F0C80FF0EC060E084E79CE00F94CC
:10513000A77384E79CE00F942B7504C04091EE1494
:105140004111E1CF1F910F91FF90EF90DF90CF9031
:1051500008950F931F93CF93DF93EC018B01809100
:10516000B80E882331F0AB01BE0188EB9EE00E94AF
:10517000B5B280918F0F882331F0A801BE018FE86E
:105180009FE00E94B5B2DF91CF911F910F910895DA
:10519000CF93C82F6BED73E181E090E0DADF8DE211
:1051A00091E1CC2319F00E9412E902C00E94EAEAC0
:1051B00061EF73E181E090E0CCDFCF9108958091C1
:1051C000E709882321F086EB91E10C9478F30895A8
:1051D0002F923F924F925F926F927F928F929F9207
:1051E000AF92BF92CF92DF92EF92FF920F93CF9345
:1051F000DF93CDB7DEB7A8970FB6F894DEBF0FBE2A
:10520000CDBF1C01E09192098CE0E89FF0011124D0
:10521000E45AF64F80859185A285B3858D8F9E8F48
:10522000AF8FB8A384819581A681B78189A39AA302
:10523000ABA3BCA3C080D180E280F38080908D07B7
:1052400090908E07A0908F07B090900740908907AC
:1052500050908A0760908B0770908C07809185072B
:1052600090918607A0918707B09188078DA39EA390
:10527000AFA3B8A7F5DC69837A838B839C838DA168
:105280009EA1AFA1B8A58D839E83AF83B8874986C1
:105290005A866B867C868D869E86AF86B88AC98A3A
:1052A000DA8AEB8AFC8A89A19AA1ABA1BCA18D8B79
:1052B0009E8BAF8BB88F8D8D9E8DAF8DB8A1898F52
:1052C0009A8FAB8FBC8F07E22CE1AE014F5F5F4F2F
:1052D0006EE1C1010E94FBBDA8960FB6F894DEBF37
:1052E0000FBECDBFDF91CF910F91FF90EF90DF9078
:1052F000CF90BF90AF909F908F907F906F905F9076
:105300004F903F902F900895AAE2B0E0EAE8F9E2CA
:105310000D9411B21C018091CD109091CE10029786
:105320004CF08090C4109090C510A090C610B09022
:10533000C71003C095DC4B015C01009199071091E7
:105340009A07C090EC10D090ED10E090EE10F09025
:10535000EF1020E030E048EC52E46091F0107091E2
:10536000F1108091F2109091F3100F94C7AF0F9449
:1053700069AD6BA37CA38DA39EA3209152143091A1
:10538000531440915414552747FD5095AAE0B0E0BE
:105390000F9498B02B013C012091D6103091D7107A
:1053A0004091D810552747FD50950F9498B0209103
:1053B000591430915A1440915B1450915C142FA3EE
:1053C00038A749A75AA720915514309156144091F7
:1053D00057145091581489829A82AB82BC822D83D3
:1053E0003E834F8358872FA138A549A55AA5298701
:1053F0003A874B875C876D877E878F87988B498A32
:105400005A8A6B8A7C8A20E030E048EC52E4C7017B
:10541000B6010F94C7AF0F9469AD7E8B6D8B4BA116
:105420005CA1588F4F8B20E030E048EC52ECC70174
:10543000B6010F94C7AF0F9469AD7A8F698F1C8F37
:105440000B8F08E62CE1AE014F5F5F4F61E2C101B7
:105450000E94FBBDAA96E2E10D942DB2A4E1B0E05A
:10546000E4E3FAE20D9413B27C0160914F14709161
:105470005014882777FD8095982F0F949CAD20E0DD
:1054800030E048EC52E40F9401AD5B016C01809177
:10549000521490915314A09154149C014A2F5527F3
:1054A00047FD5095CA01B9010F949CAD20E030E052
:1054B00048EC52E40F9401AD3B014C0180916A0A23
:1054C00090916B0A6AE070E00F94D7B08B01609105
:1054D000990770919A0780919B0790919C0724E609
:1054E00030E040E050E00F940CB1CA01B90128E669
:1054F00031E040E050E00F940CB12091E110309188
:10550000E2104091E3105091E41029833A834B83D9
:105510005C832D833E834F835887462C572C682C01
:10552000792C49865A866B867C868A2C9B2CAC2CDF
:10553000BD2C8D869E86AF86B88A7A8B698B0B8B45
:105540001C8B04E124E1AE014F5F5F4F6AE4C701A9
:105550000E94FBBD6496E0E10D942FB20F93CF93B0
:10556000DF931F921F92CDB7DEB720914F07309186
:1055700050072F3F4FEF340711F420E030E03A831B
:1055800029830CE122E0AE014F5F5F4F6AE20E9487
:10559000FBBD0F900F90DF91CF910F9108950F9366
:1055A000CF93DF93CDB7DEB728970FB6F894DEBF61
:1055B0000FBECDBF2091AA05222349F1F091CD0560
:1055C000F0FF02C0E2E001C0E0E0F1FDE3E0209185
:1055D000D2053091D3054091CE055091CF05609111
:1055E000D0057091D10549835A836B837C833E83B8
:1055F0002D8321E0F11101C020E02F83E8870DEB1E
:1056000028E0AE014F5F5F4F62EA0E94FBBD289623
:105610000FB6F894DEBF0FBECDBFDF91CF910F91D3
:105620000895A3E0B0E0E7E1FBE20D941DB27C0138
:105630008091521590915315DC01ED91FC910488F5
:10564000F589E02D1995182F8091561590915715D1
:10565000DC01ED91FC910480F581E02D199520E0AD
:1056600030E04AE754E40F94C7AF0F946EAD7A83ED
:1056700069831B8305E123E0AE014F5F5F4F65EA5D
:10568000C7010E94FBBD2396E6E00D9439B2CF938B
:10569000DF93C8E2D0E08091AF099091B009DC01BE
:1056A000ED91FC910284F385E02D6DE87FE1199581
:1056B000219789F78091AF099091B0090E94AC8E33
:1056C000DF91CF910895CF93DF93EC0109C021972B
:1056D00066E372E08091AF099091B0090E94C08E9C
:1056E0001C161D06A4F3DF91CF91089589ED92E178
:1056F0000D947AA78091470D982F9B5F923028F4E4
:105700008EEE92E10F94A29A10C0893F51F0853F2E
:1057100041F0863F99F48091651490916614019749
:1057200069F48EEE92E10F948B9A609361147093FA
:10573000621480936314909364140895109261141A
:105740001092621410926314109264140895A7E1E9
:10575000B0E0EDEAFBE20D941FB28E010F5F1F4F28
:1057600087E1D8011D928A95E9F783EA898385E963
:105770008A8381E08B838091621590916315DC01AF
:10578000ED91FC910480F581E02D19956C837D836A
:105790008E839F836091FA067091FB068091FC06D0
:1057A0009091FD060F9469AD798768878091910784
:1057B000909192079B878A876091FE067091FF0601
:1057C00080910007909101070F9469AD7D876C87E8
:1057D00080919507909196079F878E876091020729
:1057E0007091030780910407909105070F946EADA7
:1057F000798B688B8091990790919A079B8B8A8B04
:1058000083E897E00F94F33020E030E048EC52E476
:105810000F94C7AF0F946EAD7D8B6C8B83E897E0D0
:105820000F94373120E030E048EC52E40F94C7AFDA
:105830000F946EAD7F8B6E8B47E150E0B80181E233
:105840009DE00E9406DA6796E4E00D943BB289E39E
:105850009EE00F9449848FE99EE00D94D07D809165
:10586000B80E882331F060E070E088EB9EE00E9483
:105870001EB480918F0F882331F060E070E08FE8D4
:105880009FE00C941EB408958F929F92AF92BF92A6
:10589000EF920F931F9380917214882309F44FC0E5
:1058A0008150809372148091F61782608093F6176E
:1058B00060912E0A70912F0A882777FD8095982F86
:1058C0000F949CAD20E030E04AE755E40F9401AD21
:1058D0000E94FDFC4B015C0160914B0A70914C0AE7
:1058E000882777FD8095982F0F949CAD20E030E0BD
:1058F0004AE755E40F9401AD0E94FDFC8B019C0129
:105900008091B50782608093B507EE24E39480917F
:1059100072148111E12CB501A40183E897E00F9482
:105920009A2E8091721481110AC08091B5078D7FE3
:105930008093B5078091F6178D7F8093F6171F919E
:105940000F91EF90BF90AF909F908F9008958091AE
:10595000430D87FD06C08091450D82FB882780F9A5
:10596000089581E008958091211185FF06C08F7D03
:105970008093211160E081E162CA08950F931F9323
:10598000CF93DF936091280A7091290A80912A0AA7
:1059900090912B0A20917F0C20FF80C02091440D14
:1059A00025FD7CC0C1E020E030E0A9010F9477AF75
:1059B00018160CF0C0E0CC2309F470C009F47CC0C8
:1059C00083E897E00F9437312091280A3091290A13
:1059D00040912A0A50912B0A0F9477AF18160CF0B9
:1059E0006BC06FC0809127118F5F809327118A3021
:1059F00008F44BC08AE0809327119160909328119E
:105A000062E080E11CDAC0916215D0916315E881F3
:105A1000F9810480F581E02DCE01199500912911BD
:105A200010912A1120912B1130912C11601B710BB8
:105A3000820B930B613375478105910530F160ED61
:105A400072E283E090E085DBE881F9810480F581F2
:105A5000E02DCE0119956093291170932A1180933E
:105A60002B1190932C1111C0982F915090932711C6
:105A70008091281180FF09C0911107C08E7F80930B
:105A8000281160E080E1DBD96EDF909128118091D0
:105A9000F71790FB80F98093F71718C01092271121
:105AA000809128118E7F809328118091F7178E7F27
:105AB0008093F71758DF0AC0809127118111D4CF46
:105AC000E4CF9091281190FF8DCFDFCFDF91CF9160
:105AD0001F910F9108958091450D80FF2DC08E7FFD
