:100000000C94E5260C9416270C9416270C941627AE
:100010000C9416270C9416270C9416270C94BCC12C
:100020000C9416270C9416270C9416270C9416275C
:100030000C9416270C9416270C9416270C9451D464
:100040000C9416270C9416270C9416270C9416273C
:100050000C9416270C9416270C9416270C9416272C
:100060000C9416270C9466C20C9495C20C94162717
:100070000C9416270C9416270C9416270C9416270C
:100080000C9416270C9416270C9416270C941627FC
:100090000C94D0C20C94FFC20C9416270C949FC6EB
:1000A0000C9416270C947ED40C9416270C941627C7
:1000B0000C9416270C9416270C94ABD40C9416278A
:1000C0000C9416270C9416270C94FACC0C943AC373
:1000D0000C9469C30C9416270C9416270C941627BD
:1000E0000C9416277F4CD14CDC4CA34CBE4CE74CF7
:1000F000884D384D2D4D184D434D5A4D6F4DF24C96
:10010000034DF64DA64D934DC44DCF4DF64DD94DF3
:10011000F64DED4DF64DB94D425ADE5B8B5C4B5AB8
:10012000825A7B5ADB5A6D5A095C895A095CE25A39
:10013000095C8B5CEA5A955BAC5B166229623262A1
:100140003E62F7648362F764D862DE62E762F76456
:100150002F62F262F76405630F63A564F764F764C6
:10016000F764F764F764B364BB64C264CB64DB64B4
:10017000E067B76A2C68F9670A683D687068B76A13
:10018000B76A1069B76AB468B76A5F68B76AB76A6E
:1001900043695C697569B76A1B68C568F768B76ABF
:1001A00021694E68B76ADE68B76A8E699F69B76A67
:1001B000B76A81689268A368B76AB069E069326912
:1001C000F969B76AB76AB76A0A6A156A266A376A46
:1001D000486A596A6A6A417C0679527CF77CF17FE9
:1001E0000E7F2182207EE48BB380E48B2582E48B1A
:1001F0003483428440854B8679C979C97EC97EC9DA
:100200007EC983C983C983C995C988C988C9A2C958
:10021000A6C9ACC9B0C9B4C9BAC9BEC9C2C9D1C9D5
:10022000C8C9CCC9DBC9DFC9E5C9E9C9EDC9F3C98A
:10023000F7C9FBC90ACA01CA05CA23CA28CA2DCAF6
:1002400032CA37CA3CCA41CA46CA54CA4BCA50CA43
:1002500082CA87CA8CCA91CA96CA9BCAA0CAA5CAB2
:10026000B4CAAACAAFCA7ED8A3D8A7D8ABD8AFD8C9
:10027000D4D8B3D8D4D8D4D8D4D8B7D8BBD8BFD88A
:10028000A4E5A4E5B4E5D6E5CAE5DDE5E4E5F4E5F5
:100290000CE649E675F570F57CF580F58BF5A5F56E
:1002A000CAF5D3F5C1F9BAF9CAF9D5F9E6F9F8F9F9
:1002B0001BFA3DFA46FA05FBFEFA0DFB17FB2BFB7A
:1002C00041FB58FB76FB82FB70242A26E224F625AC
:1002D000E224E224EC258825E224E2243424F225D9
:1002E0000E26E224E224E224E224E224E224E224B0
:1002F000E224E224E224E2241E25E224E224E22491
:10030000E224E224E224E2245C25B826E224C2238B
:100310006624E2245C24FA25E224E224E224E22496
:100320008024F824EE257A264A25BE26D425B02638
:100330008E255A2452258026FA24B624C623F22379
:100340009426AE254426C02458242024A4243C24EA
:10035000CE230224722650251E2450260C25082464
:10036000B8231226B0251424BA23802524257C2402
:100370007C24BC252C242C242C242C242C242C241C
:100380007C242C242C242C242C24BC25BC25BC25EA
:10039000BC25BC25BC252C242C247C247C24BC25F9
:1003A0008C2440258C2440258C2440258C245424E6
:1003B000542454245424542454245424542454247D
:1003C000A8238C2440258C2440258C2440258C2473
:1003D00040258C24A8238C245424542440258C2488
:1003E000542440258C2440258C24A823E825F82576
:1003F000E825F825E825F825E825F825E825F82555
:100400000C260C260C26562556250C260C260C26CA
:1004100056255625742674267426242424247426EE
:1004200074267426242424240825A2240825A22422
:100430000825A2240825A22408255825036EDB36AA
:100440003D9A9999993DABAAAA2A3E000000803FA7
:10045000084AD73B3BCE016E84BCBFFDC12F3D6C2B
:1004600074319ABD56833DDA3D00C77F11BED9E491
:10047000BB4C3E916BAAAABE000000803F072C7ABD
:10048000A5BA6CC590DA3B9365FC8BBC53F810FDA4
:100490003C5692834DBD879D3AB63DCBC9BF5BBEEE
:1004A00073DA0FC93F05A84CCDB2D44EB93836A97E
:1004B000020C50B9918688083CA6AAAA2ABE000060
:1004C00000803F08000000BE922449123EABAAAA59
:1004D0002ABECDCCCC4C3E00000080BEABAAAAAA5E
:1004E0003E00000000BF000000803F000000000050
:1004F000084178D3BB4387D1133D190E3CC3BD429D
:1005000082AD2B3E68EC8276BED98FE1A93E4C804D
:10051000EFFFBE01C4FF7F3F0000000000025359FF
:100520005349445F53575F4D524556000000000049
:10053000DE09000000000153595349445F53575FDF
:10054000545950450000000001E00900002041021C
:1005500053595349445F544849534D415600000094
:100560000070E1090000803F0253595349445F4D38
:100570005947435300000000000071E30900007F69
:10058000430253455249414C305F424155440000BB
:1005900000000031E5090000E6420253455249419E
:1005A0004C315F42415544000000000032E7090031
:1005B0000064420154454C454D5F44454C4159004F
:1005C000000000000073E909000000000252544CD2
:1005D0005F414C5400000000000000000000A0EA51
:1005E000090080BB4404524E47464E445F47414990
:1005F0004E0000000000001EEC09CDCC4C3F01462F
:10060000535F424154545F454E41424C4500000007
:10061000C1F009000000000446535F424154545F9A
:10062000564F4C54414745000097F10900002841BE
:100630000446535F424154545F4D4148000000005E
:10064000000025F509000000000146535F475053A4
:100650005F454E41424C4500000000C3F9090000CF
:10066000803F0146535F4743535F454E41424C45EF
:1006700000000000C6FA090000803F024750535FA7
:1006800048444F505F474F4F440000000023FB0990
:1006900000006643014D41475F454E41424C4500D5
:1006A00000000000000092FD090000803F01464C60
:1006B0004F575F454E41424C4500000000000096F8
:1006C000FE09000000000153555045525F53494D4B
:1006D000504C4500000000009BFF09000000000294
:1006E00052544C5F414C545F46494E414C0000000F
:1006F00000A3000A0000000001525353495F504913
:100700004E00000000000000000018020A000080F7
:10071000BF04525353495F52414E47450000000009
:1007200000000027030A0000A0400157505F594114
:10073000575F4245484156494F5200001A070A0088
:100740000000400352544C5F4C4F49545F54494D94
:100750004500000000A20D0A00409C45024C414E9D
:10076000445F535045454400000000000000D9118B
:100770000A000048420250494C4F545F56454C5ABB
:100780005F4D41580000001C130A00007A430250DC
:10079000494C4F545F414343454C5F5A00000000B1
:1007A00030150A00007A43025448525F4D494E000A
:1007B000000000000000000000B4170A000002431F
:1007C000025448525F4D41580000000000000000F4
:1007D0000000B5190A00007A440146535F5448529C
:1007E0005F454E41424C4500000000B61B0A000028
:1007F00000000246535F5448525F56414C55450035
:1008000000000000B81C0A00C07344025452494D55
:100810005F5448524F54544C4500000000B91E0A22
:100820000000E143025448525F4D4944000000007B
:10083000000000000000C2200A0000FA43025448F1
:10084000525F445A00000000000000000000003920
:10085000220A0000C84201464C544D4F4445310025
:100860000000000000000000C8240A000000000191
:10087000464C544D4F44453200000000000000003B
:1008800000C9250A0000000001464C544D4F444564
:1008900033000000000000000000CA260A0000002B
:1008A0000001464C544D4F44453400000000000008
:1008B000000000CB270A0000000001464C544D4FB9
:1008C000444535000000000000000000CC280A006C
:1008D00000000001464C544D4F44453600000000D6
:1008E0000000000000CD290A000000000153494D1E
:1008F000504C450000000000000000000000CE2A1F
:100900000A00000000034C4F475F4249544D4153D9
:100910004B0000000000003C2B0A00805F440145B2
:100920005343000000000000000000000000000031
:10093000BA2F0A000000000154554E450000000087
:10094000000000000000000000BB300A00000000B2
:100950000254554E455F4C4F570000000000000008
:100960000000BD330A000000000254554E455F48A8
:100970004947480000000000000000BC310A0000A8
:100980007A44014652414D4500000000000000003D
:100990000000000095350A0000803F014348375FA2
:1009A0004F50540000000000000000000098360A7C
:1009B00000000000014348385F4F50540000000021
:1009C0000000000000001F370A0000000001415233
:1009D0004D494E475F434845434B0000000000200F
:1009E000380A0000803F02414E474C455F4D415858
:1009F000000000000000000022B41200A08C45019D
:100A000052435F4645454C5F5250000000000000D5
:100A10000028080A0000C8420250484C445F425275
:100A2000414B455F5241544500002E090A00000029
:100A3000410250484C445F4252414B455F414E4752
:100A40004C45002F0B0A00803B45014C414E445F52
:100A50005245504F534954494F4E000034390A0013
:100A600000803F04454B465F434845434B5F544835
:100A70005245534800363A0ACDCC4C3F0444434DCE
:100A80005F434845434B5F544852455348003B3E03
:100A90000ACDCC4C3F085243315F000000000000FB
:100AA00000000000000000AA420AF93500000852C8
:100AB00043325F0000000000000000000000000062
:100AC000AB5F0AF9350000085243335F00000000B5
:100AD000000000000000000000AC7C0AF9350000B6
:100AE000085243345F0000000000000000000000D6
:100AF0000000AD990AF9350000085243355F000047
:100B00000000000000000000000000AEB60A8F36B2
:100B10000000085243365F000000000000000000A3
:100B200000000000AFD40A8F360000085243375F40
:100B300000000000000000000000000000B0F20A09
:100B40008F360000085243385F00000000000000AC
:100B5000000000000000B1100B8F36000008524367
:100B600031305F000000000000000000000000B213
:100B70002E0B8F36000008524331315F0000000019
:100B80000000000000000000B34C0B8F3600000294
:100B900052435F53504545440000000000000000F0
:100BA00000C06A0B0000F543044143524F5F5250AE
:100BB0005F500000000000000000DD6C0B000090A2
:100BC00040044143524F5F5941575F5000000000BD
:100BD000000000F4700B00009040044143524F5F4E
:100BE00042414C5F524F4C4C00000000F2740B002D
:100BF00000803F044143524F5F42414C5F50495493
:100C00004348000000F3780B0000803F014143524D
:100C10004F5F545241494E455200000000001B7C7A
:100C20000B00000040044143524F5F4558504F00B5
:100C300000000000000000387D0B9A99993E085290
:100C40004154455F524C4C5F000000000000000022
:100C5000DF810B9B34000008524154455F504954DA
:100C60005F0000000000000000E09F0B9B340000CC
:100C700008524154455F5941575F00000000000091
:100C80000000E1BD0B9B340000084C4F4954455215
:100C90005F4C41545F000000000000E7DB0B9B3419
:100CA0000000084C4F495445525F4C4F4E5F0000C6
:100CB00000000000E8F90B9B340000085448525F24
:100CC000524154455F0000000000000000EC170C8A
:100CD00069340000085448525F414343454C5F006B
:100CE000000000000000F11B0C9B340000084F4680
:100CF0005F524C4C5F00000000000000000000ED5F
:100D0000390C9B340000084F465F5049545F000087
:100D10000000000000000000EE570C9B34000008AB
:100D20005354425F524C4C5F000000000000000032
:100D300000E2790C69340000085354425F50495472
:100D40005F000000000000000000E37D0C6934003B
:100D500000085354425F5941575F000000000000F3
:100D6000000000E4810C69340000085448525F41DF
:100D70004C545F000000000000000000EB850C698F
:100D800034000008484C445F4C41545F00000000B0
:100D90000000000000E5750C693400000843414D77
:100DA0005F00000000000000000000000000A5B58A
:100DB0000EE83800000852454C41595F0000000021
:100DC000000000000000000DDD139D380000084306
:100DD0004F4D504153535F000000000000000000E1
:100DE00093CC11702F000008494E535F00000000A3
:100DF000000000000000000000035F0976300000E2
:100E000008494E41565F000000000000000000004D
:100E10000000645E0D403B00000857504E41565F95
:100E20000000000000000000000000650413D63B35
:100E3000000008434952434C455F00000000000099
:100E40000000000068DF138B3B0000084154435F43
:100E50000000000000000000000000000066D00656
:100E60001835000008504F53434F4E5F00000000FC
:100E700000000000000067ED05C735000008535270
:100E8000305F000000000000000000000000006E65
:100E9000CE0E26100000085352315F000000000003
:100EA00000000000000000006FA50F2610000008E1
:100EB000414852535F0000000000000000000000A5
:100EC000009F990724330000084D4E545F00000036
:100ED00000000000000000000000A64F0E7E390058
:100EE0000008424154545F00000000000000000070
:100EF0000000002480102D460000084252445F008C
:100F00000000000000000000000000000F16142781
:100F100047000008474E445F00000000000000004A
:100F200000000000000B43112E2C00000847505316
:100F30005F0000000000000000000000000010D66C
:100F400010F82700000853434845445F00000000A4
:100F5000000000000000000CC709364500000846EC
:100F6000454E43455F000000000000000000000007
:100F700045BD058744000008475053474C4954433A
:100F8000485F0000000000000046B610672800001F
:100F9000084241524F474C5443485F000000000054
:100FA0000000471714882D0000084D4F545F0000C3
:100FB00000000000000000000000005A8A0CDA3631
:100FC00000000852434D41505F0000000000000047
:100FD00000000000C72F14B0450000084D49535FC2
:100FE000000000000000000000000000002A570779
:100FF0001E34000008524E47464E440000000000D8
:101000000000000000003533148A370000000000A3
:1010100000000000000000000000000000000000D0
:1010200000000000000002005241575F53454E533C
:101030000000000000000000006600000000000248
:10104000014558545F535441540000000000000013
:101050000000680000000000020252435F43484164
:101060004E000000000000000000006A00000000C8
:101070000002035241575F4354524C0000000000ED
:10108000000000006C00000000000204504F5349B3
:1010900054494F4E0000000000000000006E0000A8
:1010A0000000000205455854524131000000000084
:1010B000000000000000700000000000020645581B
:1010C0005452413200000000000000000000007295
:1010D0000000000000020745585452413300000050
:1010E0000000000000000000740000000000020882
:1010F000504152414D53000000000000000000002C
:101100000076000000000000FF000000000000006A
:1011100000000000000000000000000000000000CF
:10112000EE61010064009D450200C20152650200AB
:10113000840397600A00D002FB640A00320009961B
:101140000A000A00B9310A008C008D400A00E80349
:10115000198F04002003843401003200416721000C
:101160005A004B2E0200A40119270200FA00E230B7
:1011700002006400FC4A6400A401695D0A001400D6
:10118000F7470A001400A43102002602832D6400F0
:101190009600802D0200D0027E4F0200B6039C31E3
:1011A0000200C2019C3A0A002C01F1350200DC0069
:1011B000CD6AE803C800F7320A00320050455246B3
:1011C0003A2025752F257520256C750A004172641B
:1011D00075436F707465722056332E322E3100467F
:1011E00072616D653A2051554144005072654172FB
:1011F0006D3A205243206E6F742063616C69627295
:10120000617465640050726541726D3A20475053B5
:1012100020476C697463680050726541726D3A20B2
:101220004E656564203344204669780050726541FC
:10123000726D3A204261642056656C6F63697479FF
:101240000050726541726D3A2048696768204750C6
:10125000532048444F500050726541726D3A20420D
:1012600061726F206E6F74206865616C74687900BC
:1012700050726541726D3A20416C742064697370DC
:1012800061726974790050726541726D3A20436FE2
:101290006D70617373206E6F74206865616C746823
:1012A000790050726541726D3A20436F6D706173C1
:1012B00073206E6F742063616C696272617465641F
:1012C0000050726541726D3A20436F6D70617373A7
:1012D000206F66667365747320746F6F206869672A
:1012E000680050726541726D3A20436865636B20F7
:1012F0006D6167206669656C640050726541726D4E
:101300003A20636865636B2066656E6365005072A2
:101310006541726D3A20494E53206E6F74206361AF
:101320006C696272617465640050726541726D3AF5
:1013300020416363656C73206E6F74206865616C17
:101340007468790050726541726D3A204779726F06
:1013500073206E6F74206865616C746879005072D8
:101360006541726D3A204779726F2063616C206627
:1013700061696C65640050726541726D3A20436822
:1013800065636B20426F61726420566F6C74616795
:10139000650050726541726D3A2043683726436894
:1013A00038204F70742063616E6E6F742062652008
:1013B00073616D650050726541726D3A20436865D6
:1013C000636B2046535F5448525F56414C5545006D
:1013D00050726541726D3A20436865636B20414EDF
:1013E000474C455F4D41580050726541726D3A203F
:1013F0004143524F5F42414C5F524F4C4C2F50493A
:101400005443480041726D3A204779726F206361FE
:101410006C206661696C65640043616C696272612D
:1014200074696E67206261726F6D657465720062C7
:1014300061726F6D657465722063616C696272615F
:1014400074696F6E20636F6D706C657465004752D0
:101450004F554E442053544152540041726D3A202E
:101460004D6F6465206E6F742061726D61626C6592
:101470000041726D3A20416C74206469737061722E
:101480006974790041726D3A205468722062656C0B
:101490006F772046530041726D3A204C65616E694A
:1014A0006E670041726D3A2053616665747920530E
:1014B0007769746368005472696D2073617665643E
:1014C000004175746F54756E653A2053746F707077
:1014D0006564004175746F54756E653A2053756389
:1014E00063657373004175746F54756E653A204679
:1014F00061696C6564004175746F54756E653A205E
:1015000053746172746564004C6F77204261747427
:1015100065727921004C6F73742047505321000A83
:101520000A496E69742041726475436F7074657204
:101530002056332E322E310A0A46726565205241FA
:101540004D3A2025750A008059464D54000042420C
:101550006E4E5A00000000000000000000005479A8
:1015600070652C4C656E6774682C4E616D652C46F9
:101570006F726D61742C436F6C756D6E730000003B
:10158000000000000000000000000000000000005B
:1015900000000000000000000000000000008117B3
:1015A0005041524D004E6600000000000000000057
:1015B00000000000004E616D652C56616C75650081
:1015C000000000000000000000000000000000001B
:1015D000000000000000000000000000000000000B
:1015E00000000000000000000000000000000000FB
:1015F0000000000000822D4750530000424948423D
:10160000634C4C6565456566490000005374617420
:1016100075732C54696D654D532C5765656B2C4E55
:10162000536174732C48446F702C4C61742C4C6E55
:10163000672C52656C416C742C416C742C53706433
:101640002C474372732C565A2C540000831F494D6B
:101650005500004966666666666600000000000088
:1016600000000054696D654D532C477972582C4722
:101670007972592C4779725A2C416363582C416313
:1016800063592C4163635A00000000000000000011
:10169000000000000000000000000000000000004A
:1016A00000000084434D534700005A000000000032
:1016B000000000000000000000004D6573736167CA
:1016C00065000000000000000000000000000000B5
:1016D000000000000000000000000000000000000A
:1016E00000000000000000000000000000000000FA
:1016F0000000000000000000000085235243494E16
:1017000000496868686868686868686868686868E0
:101710000054696D654D532C43312C43322C4333B7
:101720002C43342C43352C43362C43372C43382C54
:1017300043392C4331302C4331312C4331322C434B
:1017400031332C4331340000000000000000000061
:1017500000861752434F5500496868686868686892
:10176000680000000000000054696D654D532C4373
:1017700068616E312C4368616E322C4368616E3350
:101780002C4368616E342C4368616E352C4368616C
:101790006E362C4368616E372C4368616E380000EA
:1017A000000000000000000088154241524F00492F
:1017B0006666636600000000000000000000005440
:1017C000696D654D532C416C742C50726573732C8C
:1017D00054656D702C43527400000000000000003E
:1017E00000000000000000000000000000000000F9
:1017F0000000000000000000000000000000008960
:101800000D504F575200494343480000000000006C
:1018100000000000000054696D654D532C56636351
:101820002C56536572766F2C466C6167730000000E
:1018300000000000000000000000000000000000A8
:101840000000000000000000000000000000000098
:101850000000000000009129434D44000049484821
:101860004866666666666666000000000054696D3C
:10187000654D532C43546F742C434E756D2C434966
:10188000642C50726D312C50726D322C50726D334D
:101890002C50726D342C4C61742C4C6E672C416C46
:1018A00074000000000000000000000000921052D0
:1018B0004144000049424242424248480000000080
:1018C0000000000054696D654D532C525353492C50
:1018D00052656D525353492C54784275662C4E6FA5
:1018E0006973652C52656D4E6F6973652C5278452E
:1018F00072726F72732C4669786564000000000094
:1019000000000000941F43414D000049484C4C65C5
:1019100065636343000000000000004750535469B2
:101920006D652C4750535765656B2C4C61742C4C7E
:101930006E672C416C742C52656C416C742C526F28
:101940006C6C2C50697463682C596177000000003E
:10195000000000000000000000000019194154556B
:101960004E004242666666666600000000000000A7
:101970000000417869732C54756E65537465702C42
:10198000526174654D696E2C526174654D61782C9D
:1019900052504761696E2C52444761696E2C535016
:1019A0004761696E000000000000000000000000B8
:1019B00000001A094154444500636600000000001D
:1019C000000000000000000000416E676C652C52B2
:1019D00061746500000000000000000000000000CD
:1019E00000000000000000000000000000000000F7
:1019F00000000000000000000000000000000000E7
:101A0000000000000000000000091743555252007A
:101A1000496849686868660000000000000000002E
:101A200054696D654D532C5468724F75742C54680D
:101A300072496E742C566F6C742C437572722C56EE
:101A400063632C43757272546F74000000000000D1
:101A50000000000000000000000000000000000086
:101A60000C144F460000006868426363656500001F
:101A70000000000000000044782C44792C5351757C
:101A8000616C2C582C592C526F6C6C2C50697463FF
:101A900068000000000000000000000000000000DE
:101AA0000000000000000000000000000000000036
:101AB00000000000000000052F4E54554E004966FE
:101AC00066666666666666666600000000005469C3
:101AD0006D654D532C44506F73582C44506F73599F
:101AE0002C506F73582C506F73592C4456656C589A
:101AF0002C4456656C592C56656C582C56656C599F
:101B00002C44416363582C44416363590000042111
:101B10004354554E00496868686666656363686843
:101B2000000000000054696D654D532C54687249E3
:101B30006E2C416E674273742C5468724F75742C0E
:101B400044416C742C416C742C426172416C742C55
:101B50004453416C742C53416C742C444352742C88
:101B600043527400000F194D4147000049686868EE
:101B700068686868686800000000000054696D6566
:101B80004D532C4D6167582C4D6167592C4D616741
:101B90005A2C4F6673582C4F6673592C4F66735AE4
:101BA0002C4D4F6673582C4D4F6673592C4D4F6614
:101BB000735A000000000000000000000611504DA4
:101BC0000000004848496842484200000000000008
:101BD0000000004E4C6F6E2C4E4C6F6F702C4D61A0
:101BE00078542C504D542C4932434572722C494E36
:101BF000534572722C494E415645727200000000E6
:101C000000000000000000000000000000000000D4
:101C100000000001174154540000496363636343AB
:101C20004343430000000000000054696D654D53BC
:101C30002C446573526F6C6C2C526F6C6C2C446529
:101C40007350697463682C50697463682C446573BD
:101C50005961772C5961772C45727252502C45721C
:101C60007259617700000000000003064D4F4445A3
:101C7000004D6800000000000000000000000000AF
:101C8000004D6F64652C546872437273000000004D
:101C90000000000000000000000000000000000044
:101CA0000000000000000000000000000000000034
:101CB0000000000000000000000000000000000024
:101CC000000A0353545254000000000000000000BA
:101CD0000000000000000000000000000000000004
:101CE00000000000000000000000000000000000F4
:101CF00000000000000000000000000000000000E4
:101D000000000000000000000000000000000000D3
:101D100000000000000000000D04455600000042D5
:101D2000000000000000000000000000000000496A
:101D3000640000000000000000000000000000003F
:101D40000000000000000000000000000000000093
:101D50000000000000000000000000000000000083
:101D6000000000000000000000000000000000145F
:101D70000644313600004268000000000000000008
:101D800000000000000049642C56616C756500007D
:101D90000000000000000000000000000000000043
:101DA0000000000000000000000000000000000033
:101DB0000000000000000000000000000000000023
:101DC000000000000000150644553136004248006E
:101DD0000000000000000000000000000049642C2A
:101DE00056616C75650000000000000000000000F6
:101DF00000000000000000000000000000000000E3
:101E000000000000000000000000000000000000D2
:101E10000000000000000000000000000016084460
:101E200033320000426900000000000000000000A2
:101E30000000000049642C56616C756500000000CC
:101E40000000000000000000000000000000000092
:101E50000000000000000000000000000000000082
:101E60000000000000000000000000000000000072
:101E700000000000170844553332004249000000BA
:101E8000000000000000000000000049642C5661C2
:101E90006C756500000000000000000000000000FC
:101EA0000000000000000000000000000000000032
:101EB0000000000000000000000000000000000022
:101EC0000000000000000000000000180844464C1C
:101ED0005400426600000000000000000000000006
:101EE000000049642C56616C75650000000000001C
:101EF00000000000000000000000000000000000E2
:101F000000000000000000000000000000000000D1
:101F100000000000000000000000000000000000C1
:101F2000000013054552520000424200000000002C
:101F30000000000000000000005375627379732CEC
:101F400045436F64650000000000000000000000D1
:101F50000000000000000000000000000000000081
:101F60000000000000000000000000000000000071
:101F70000000000000000000004E6F2064617461EA
:101F8000666C61736820696E736572746564004580
:101F9000524153494E47204C4F4753000A52656106
:101FA000647920746F20464C592000496E69746929
:101FB000616C6973696E672041504D2E2E2E00466C
:101FC00057205665723A2025640A002D004261644C
:101FD00020766172207461626C650A00426164203F
:101FE000766172207461626C65004669726D77611A
:101FF0007265206368616E67653A20657261736916
:102000006E6720454550524F4D2E2E2E0A00646FAC
:102010006E652E008D000100424154545F4D4F4EBD
:1020200049544F520000000000A8000100424154F2
:10203000545F564F4C545F50494E00000000A900B9
:102040000100424154545F435552525F50494E0083
:102050000000008E000400424154545F564F4C541F
:102060005F4D554C540000008F0004004241545411
:102070005F414D505F504552564F4C540091000304
:1020800000424154545F4341504143495459000078
:102090000000140002004C4F475F4249544D415329
:1020A0004B0000000000006C6F61645F616C6C208D
:1020B000746F6F6B20256C7575730A0045726173C0
:1020C000696E67206C6F67730A004C6F67206572DA
:1020D00061736520636F6D706C6574650A00456E91
:1020E000746572696E67204553432043616C3A20E2
:1020F000726573746172742041504D2E0A0045530D
:10210000432043616C3A2070617373696E67207479
:1021100068726F74746C65207468726F756768207C
:10212000746F20455343732E0A0045534320636167
:102130006C20696E7075743A2025752025752025F0
:102140007520257520206F75747075743A2025757B
:102150002025752025752025750A00434F4D5041D7
:10216000535320494E4954204552524F5200417218
:102170006475436F707465722056332E322E3100B1
:102180004672616D653A205155414400636F6D7030
:102190006173732064697361626C65640A006368CB
:1021A00065636B20636F6D70617373005243206EC3
:1021B0006F742063616C6962726174656400746835
:1021C00072206E6F74207A65726F004E6F74206C8F
:1021D000616E646564005354415254494E47204334
:1021E000414C4942524154494F4E00435552524589
:1021F0004E54005448524F54544C450043616C694E
:1022000062726174696F6E20537563636573736680
:10221000756C21004661696C65642100436F6D70C7
:102220006173730A004D6167204465633A20253469
:102230002E34660A004D61672564206F66663A2079
:1022400025342E34662C2025342E34662C2025345B
:102250002E34660A004D6F746F7220436F6D703AB2
:1022600020004F66660A005468726F74746C6500D3
:1022700043757272656E74000A436F6D4D6F7425FD
:10228000643A2025342E32662C2025342E32662CDA
:102290002025342E32660A00656E00646973006181
:1022A000626C65640A004D6F746F722054657374BC
:1022B0003A205243206E6F742063616C69627261D0
:1022C000746564004D6F746F7220546573743A20A6
:1022D00076656869636C65206E6F74206C616E64EE
:1022E0006564004D6F746F7220546573743A2053A7
:1022F000616665747920537769746368004372611D
:1023000073683A2044697361726D696E6700444373
:102310004D206261642068656164696E6700526582
:10232000616368656420436F6D6D616E6420232571
:1023300069005265616368656420436F6D6D616E0D
:10234000642023256900454550524F4D2066756C29
:102350006C0025733A2025640A0025733A20256411
:102360000A0025733A20256C640A0025733A20255B
:10237000660A00556E6B6E6F776E20636F6E7665C2
:102380007273696F6E20272553270A00426164200B
:10239000636F6E76657273696F6E207479706520F5
:1023A000272553270A00000000000006030000064E
:1023B00076090200760F5A000100D00F30000000AD
:1023C0000000000503000005CA090200CA0E9600BD
:1023D0000100600FA000DCDFE1E3E6E8EBEDEFF2E7
:1023E000F4F7F9FCFE000305080A0C0F1114161887
:1023F0001B1D202224272C76D888674F0823C1DF95
:10240000AE59B1B796E5E453C63A51997696E6C20D
:102410008426898C9B62407C6FFCBC9C9F40BAA543
:102420006FA590055A2A5C936B6C676DC11BE0E445
:102430000D47F520E6B5D0ED902E0094357700805D
:10244000841E0000204E000000C833333333986EE2
:10245000128341EF8D21893BE655CFFEE6DBD18427
:102460004B38F77C1D90A4BBE4243284725E81005B
:10247000C9F1ECA1E53D6E616E00696E66004572C2
:10248000726F723A2041505F48414C5F4156523A58
:102490003A415652416E616C6F67496E206F757498
:1024A000206F66206368616E6E656C730D0A005064
:1024B000414E49433A207363686564756C65723AAE
:1024C0003A73797374656D5F696E697469616C697B
:1024D0007A65642063616C6C65646D6F72652074ED
:1024E00068616E206F6E636500474F494E47204418
:1024F0004F574E20464F522041205245424F4F5495
:102500000D0A0050414E49433A2041565253656DE1
:102510006170686F72653A3A74616B6520757365B6
:10252000642066726F6D20696E73696465207469DA
:102530006D65722070726F636573730050414E4910
:10254000433A2053504930207472616E736665724D
:1025500020636F6C6C6973696F6E0050414E494324
:102560003A205350493020777269746520636F6C4C
:102570006C6973696F6E000102102020080810203A
:1025800040102040800201020108040201010204FF
:1025900008102040808040201008040201800402BE
:1025A0000180402010080402010804020101020415
:1025B00008102040800102040810204080400505DA
:1025C0000505070508080808020202020A0A0808A9
:1025D00004040404010101010101010103030303D7
:1025E00003030303040707070C0C0C0C0C0C0C0C66
:1025F0000202020206060606060606060B0B0B0B77
:102600000B0B0B0B05000020002300260029002CDB
:10261000002F003200000100000301060109010043
:10262000002200250028002B002E0031003400027B
:10263000010000050108010B010000210024002712
:10264000002A002D003000330001010000040107C2
:10265000010A01666C6967687420706C616E207590
:1026600070646174652072656A6563746564006690
:102670006C6967687420706C616E2072656365694F
:1026800076656400327C8900EDD9687700000059D6
:102690000000000000000000D69FDCA81817AA90D8
:1026A000437327F6B968EDF4DED409FEE61C1C84FA
:1026B000DDE80B992927000000000F03000000004F
:1026C0000099B7335276941500F37C000026149ECF
:1026D000988F0000006A31161D0CF1E900E7B73F42
:1026E0003600000000000000AF669ED0385DD36C5D
:1026F00020B95400007C77044C80387486EDCBFA06
:1027000057CBDC19E2001DDF5506E5CB01000000C8
:10271000000000000000002A310086DBD0BC541607
:10272000131586004E44BD7F9A15159001EA49B5F0
:102730001653A78AEAF02FBD34AE00000000000057
:102740000000000000000000000000000000000089
:102750000000000000000000000000000000000079
:102760000000000000000000000000000000000069
:1027700000000000000000000000000008CC31AAAA
:102780002C532E00B56206010300010601124F24EE
:10279000505542582C34312C312C303030332C30C1
:1027A0003030312C33383430302C302A32360D0A68
:1027B000245047434D442C31362C302C302C302CB7
:1027C000302C302A36410D0A2450535246313030D5
:1027D0002C302C33383430302C382C312C302A33F8
:1027E000430D0A00C01200000096000000C2010064
:1027F00000E1000080250000010054595045000010
:102800000000000000000000000000020000008046
:102810003F01024E415646494C54455200000000CB
:102820000000000003000000004100FF0000000065
:102830000000000000000000000000000000000098
:102840000000002075626C6F782000204D544B31E1
:10285000392000204D544B2000205349524620007F
:10286000204E4D454120000100454E41424C45005F
:102870000000000000000000000003000000803F96
:10288000040152414449555300000000000000007B
:102890000000000400000048430402414343454C4B
:1028A0000000000000000000000000000800000020
:1028B0007A4400FF0000000000000000000000005B
:1028C000000000000000000000000024504D544BA8
:1028D0003232302C3230302A32430D0A24504D54DB
:1028E0004B3331332C312A32450D0A24504D544B91
:1028F0003330312C322A32450D0A24504D544B339B
:1029000039372C302A32330D0A00475056544700CD
:102910004750474741004750524D430024505352BF
:10292000463130332C302C302C312C312A32350DBD
:102930000A24505352463130332C312C302C302C59
:10294000312A32350D0A24505352463130332C325D
:102950002C302C302C312A32360D0A24505352465A
:102960003130332C332C302C302C312A32370D0AB5
:1029700024505352463130332C342C302C312C31EE
:102980002A32300D0A24505352463130332C352C24
:10299000302C312C312A32300D0A2450535246311A
:1029A00030332C362C302C302C312A32320D0A2484
:1029B000505352463130332C382C302C302C312AA5
:1029C00032430D0A24505352463135312C312A33CB
:1029D000460D0A24505352463130362C32312A30BB
:1029E000460D0A24504D544B3331342C302C302CAE
:1029F000312C312C302C302C302C302C302C302CF5
:102A0000302C302C302C302C302C302C302A3238DA
:102A10000D0A24504D544B3333302C302A32450D9F
:102A20000A24504D544B3331332C312A32450D0A90
:102A300024504D544B3330312C322A32450D0A2468
:102A4000505542582C34302C6767612C302C312C77
:102A5000302C302C302C302A37420D0A245055426D
:102A6000582C34302C7674672C302C312C302C3090
:102A70002C302C302A37460D0A24505542582C341D
:102A8000302C726D632C302C302C302C302C302CB0
:102A9000302A36370D0A00A0A20008A60200000066
:102AA00000000000A8B0B3A0A20008A60029010001
:102AB00000000000D0B0B350414E49433A20446179
:102AC0007461466C6173682053504944657669634C
:102AD00065447269766572206E6F7420666F756EDC
:102AE000640050414E49433A2044617461466C6130
:102AF000736820535049446576696365447269760A
:102B000065722073656D6170686F726520697320EE
:102B10006E756C6C00554E4B4E2C2025750A0025A9
:102B2000532C2000256400257500256400257500C0
:102B3000256C6400256C7500256600252E32660024
:102B4000252E326600252E326600252E326600259F
:102B500073002573002573002C2000464D542C2053
:102B600025752C2025752C2025532C2025532C2011
:102B700025530A00444620706167652C206C6F67FE
:102B80002066696C6520232C206C6F67207061675C
:102B9000653A2025752C090025752C090025750A34
:102BA000004E6F2064617461666C61736820696EA9
:102BB000736572746564004D616E756661637475EA
:102BC0007265723A203078253032782020204465B2
:102BD000766963653A203078253034780A004E757E
:102BE0006D50616765733A202575202050616765D7
:102BF00053697A653A2025750A000A4E6F206C6F7A
:102C000067730A0A000A2575206C6F67730A004C07
:102C10006F672025752C202020207374617274202A
:102C200025752C202020656E642025750A0004027D
:102C30004142535F505245535300000000000000D2
:102C4000000C0000000000040354454D500000003B
:102C5000000000000000000000000800000000006C
:102C60000104414C545F4F46465345540000000058
:102C700000000010000000000000FF000000000045
:102C80000000000000000000000000000000000044
:102C9000000050414E49433A2041505F4261726FFB
:102CA0003A3A7265616420756E7375636365737318
:102CB00066756C20666F72206D6F72652074686136
:102CC0006E203530306D7320696E2041505F426157
:102CD000726F3A3A63616C696272617465205B314C
:102CE0005D0D0A0050414E49433A2041505F426118
:102CF000726F3A3A7265616420756E7375636365CD
:102D0000737366756C20666F72206D6F72652074C8
:102D100068616E203530306D7320696E2041505FE0
:102D20004261726F3A3A63616C69627261746520E4
:102D30005B325D0D0A0050414E49433A2041505FDD
:102D40004261726F3A3A7265616420756E737563A1
:102D50006365737366756C20666F72206D6F726544
:102D6000207468616E203530306D7320696E2041AB
:102D7000505F4261726F3A3A63616C69627261746A
:102D800065205B335D0D0A000100454E41424C4514
:102D900000000000000000000000000300000080B0
:102DA0003F040144495354000000000000000000AB
:102DB0000000000004000000FA43040241434345C0
:102DC0004C000000000000000000000000080000AF
:102DD00080BB4400FF000000000000000000000075
:102DE00000000000000000000000000050414E49BB
:102DF000433A2041505F4261726F5F4D5335363127
:102E00003120646964206E6F742067657420766178
:102E10006C69642053504920646576696365206459
:102E20007269766572210050414E49433A20415003
:102E30005F4261726F5F4D53353631312064696492
:102E4000206E6F74206765742076616C696420530E
:102E500050492073656D617068726F652100504143
:102E60004E49433A206661696C656420746F207432
:102E7000616B65205F7370695F73656D2031303001
:102E80002074696D657320696E206120726F772CE4
:102E900020696E2041505F4261726F5F4D5335363D
:102EA00031313A3A5F7570646174650050414E4942
:102EB000433A2041505F4261726F5F4D5335363166
:102EC000313A204E554C4C2073657269616C206418
:102ED00072697665720050414E49433A2041505F15
:102EE0004261726F5F4D53353631313A2066616908
:102EF0006C656420746F2074616B65207365726902
:102F0000616C2073656D6170686F726520666F72A9
:102F100020696E69740050414E49433A2041505F28
:102F20004261726F5F4D533536313120746F6F6B74
:102F3000206D6F7265207468616E20313030306DA5
:102F40007320746F20696E697469616C697A6500B9
:102F50004661696C656420746F2067657420484D14
:102F600043353834332073656D6170686F72650066
:102F700005014F4653000000000000000000000063
:102F80000000001700000000000402444543000058
:102F9000000000000000000000000000230000000E
:102FA000000001034C4541524E00000000000000AB
:102FB000000000000008000000803F010455534558
:102FC00000000000000000000000000000002700DA
:102FD0000000803F01054155544F44454300000027
:102FE0000000000000000028000000803F01064DA6
:102FF0004F54435400000000000000000000000097
:10300000A4000000000005074D4F54000000000020
:10301000000000000000000000A50000000000010A
:10302000084F5249454E54000000000000000000C7
:103030000000160000000000010945585445524E9A
:10304000414C0000000000000000002900000000CA
:103050000000FF0000000000000000000000000071
:10306000000000000000000000002D00256C642E10
:103070002530376C6400020050524F445543545F72
:103080004944000000000000001F0000000000058F
:10309000014143435343414C000000000000000045
:1030A000000021000000000005024143434F464656
:1030B00053000000000000000000002D0000000090
:1030C0000005034759524F464653000000000000D8
:1030D0000000000039000000000001044D5055368A
:1030E0004B5F46494C54455200000000004500002B
:1030F00000000000FF0000000000000000000000D1
:10310000000000000000000000000000546F6F206D
:103110006D616E79206779726F7300546F6F206DE7
:10312000616E7920616363656C7300546F6F206D0D
:10313000616E7920494E53206261636B656E6473E2
:10314000004E6F20494E53206261636B656E64735D
:1031500020617661696C61626C65006F6E206974D4
:1031600073204241434B00506C6163652076656873
:1031700069636C6520255320616E642070726573ED
:103180007320616E79206B65792E0A004F66667335
:103190006574735B25755D3A20252E326620252ED9
:1031A000326620252E32660A005363616C696E67B1
:1031B0005B25755D3A20252E326620252E3266204D
:1031C000252E32660A0043616C6962726174696F10
:1031D0006E207375636365737366756C0A00436173
:1031E0006C6962726174696F6E204641494C454456
:1031F0000A00496E697420416363656C002A0020EF
:1032000000496E6974204779726F002A00677972ED
:103210006F5B25755D20646964206E6F7420636F39
:103220006E76657267653A20646966663D2566203C
:103230006470730A006C6576656C006F6E2069744B
:1032400073204C4546542073696465006F6E206995
:1032500074732052494748542073696465006E6F47
:10326000736520444F574E006E6F736520555000B4
:103270006661696C656420746F20626F6F74204DA5
:1032800050553630303020352074696D65730056E6
:10329000616C75657320646F65736E2774206D6152
:1032A0007463683B207772697474656E3A202530C8
:1032B00032783B20726561643A20253032782000F4
:1032C0004D5055363030303A20556E61626C652075
:1032D000746F206765742073656D6170686F7265C7
:1032E000004661696C656420746F20626F6F7420A2
:1032F0004D50553630303020352074696D6573007F
:1033000054696D6564206F75742077616974696EA6
:103310006720666F72207573657220726573706FB7
:103320006E73650004024750535F4741494E0000E9
:103330000000000000000022000000803F01034761
:1033400050535F555345000000000000000000008E
:103350002C000000803F04045941575F50000000DA
:103360000000000000000000001A00CDCC4C3E041C
:103370000552505F500000000000000000000000F7
:1033800000001E00CDCC4C3E010657494E445F4D17
:1033900041580000000000000000002D0000000067
:1033A0000005085452494D000000000000000000D4
:1033B0000000000041000000000001094F52494593
:1033C0004E544154494F4E0000000000002E0000B2
:1033D000000000040A434F4D505F42455441000035
:1033E0000000000000002800CDCCCC3D010B475070
:1033F000535F4D494E534154530000000000002FCD
:10340000000000C04000FF000000000000000000BD
:1034100000000000000000000000000000000200AA
:10342000544F54414C000000000000000000000018
:103430000005000000000001015245535441525460
:103440000000000000000000000007000000000075
:1034500000FF00000000000000000000000000006D
:103460000000000000000000000400500000000008
:10347000000000000000000000000000000000004C
:10348000000000FF0000000000000000000000003D
:1034900000000000000000000000000400500000D8
:1034A000000000000000000000000000000000001C
:1034B00000000000040149000000000000000000BE
:1034C00000000000000000040000000000040244AE
:1034D00000000000000000000000000000000000EC
:1034E0000800000000000203494D415800000000A0
:1034F0000000000000000000000C000000000000C0
:10350000FF000000000000000000000000000000BC
:1035100000000000000000000400524154455F52CA
:10352000505F4D4158000000000000260000A08CB4
:10353000460401524154455F595F4D415800000017
:10354000000000002A0000A00C460402534C45571E
:103550005F5941570000000000000000002E0000ED
:10356000007A440403414343454C5F52505F4D4150
:103570005800000000003200000000000404414335
:1035800043454C5F595F4D41580000000000003634
:1035900000000000000105524154455F46465F456A
:1035A0004E414200000000003A000000000000FF11
:1035B000000000000000000000000000000000000B
:1035C0000000000000000004005448525F484F56BD
:1035D0004552000000000000000017000000E14319
:1035E00000FF0000000000000000000000000000DC
:1035F00000000000000000000002004D494E0000E5
:103600000000000000000000000000000A00008030
:10361000894402015452494D00000000000000009E
:1036200000000000000C000080BB4402024D415825
:1036300000000000000000000000000000000E007C
:103640000080ED44010352455600000000000000D8
:103650000000000000000010000000803F02054450
:103660005A00000000000000000000000000000000
:1036700011000000000000FF00000000000000003A
:103680000000000000000000000000000000000832
:10369000000000000000000000000000000000002A
:1036A00000000000F9350000010146554E43544921
:1036B0004F4E0000000000000000001D0000000050
:1036C0000000FF00000000000000000000000000FB
:1036D00000000000000000000000010154435256A9
:1036E0005F454E41424C450000000000002E0000A6
:1036F00000803F0102544352565F4D4944504354A9
:103700000000000000002F0000005042010354435D
:1037100052565F4D415850435400000000000030A5
:10372000000000BA4202055350494E5F41524D45D8
:103730004400000000000000310000008C4200FF47
:103740000000000000000000000000000000000079
:10375000000000000000000001020304050607410C
:10376000505F4D6F746F72733A206661696C656467
:1037700020746F20637265617465207468726F7461
:10378000746C652063757276650001005F54595052
:1037900045000000000000000000000000000000E4
:1037A00000000001015F50494E00000000000000D1
:1037B0000000000000000100000080BF04025F5311
:1037C00043414C494E470000000000000000000645
:1037D000000000404004035F4F464653455400003C
:1037E00000000000000000000A00000000000104CA
:1037F0005F46554E4354494F4E0000000000000004
:10380000000E000000000002055F4D494E5F434D71
:10381000000000000000000000000F000000A041B8
:1038200002065F4D41585F434D000000000000005C
:10383000000000110000002F4401075F53544F5057
:103840005F50494E0000000000000000030000002F
:1038500080BF02085F534554544C455F4D530000F0
:10386000000000000004000000000001095F524D4C
:1038700045545249430000000000000000000200CF
:103880000000803F00FF000000000000000000007A
:1038900000000000000000000000000000010050D7
:1038A000494E000000000000000000000000000081
:1038B000000000005041010150494E32000000005C
:1038C0000000000000000000000100000080BF00B8
:1038D000FF000000000000000000000000000000E9
:1038E0000000000000000000010054524947475FFB
:1038F0005459504500000000000000000000000086
:103900000001014455524154494F4E00000000004F
:103910000000000001000000204102025345525601
:103920004F5F4F4E0000000000000000000200004A
:1039300080A2440203534552564F5F4F4646000053
:103940000000000000000400008089440404545278
:103950004947475F444953540000000000000009F4
:10396000000000000000FF00000000000000000058
:103970000000000000000000000000000000010046
:103980004D4F444500000000000000000000000012
:1039900000310000000000050152455452414354DB
:1039A00000000000000000000000420000000000D5
:1039B00005024E45555452414C00000000000000E5
:1039C0000000004E00000000000503434F4E54521B
:1039D0004F4C000000000000000000005A000000F2
:1039E00000000104535441425F524F4C4C00000010
:1039F00000000000002E00000000000105535441AB
:103A0000425F54494C5400000000000000002F00A9
:103A1000000000000106535441425F50414E000037
:103A2000000000000000003000000000000107520C
:103A3000435F494E5F524F4C4C00000000000000B5
:103A40003200000000000208414E474D494E5F52CF
:103A50004F4C00000000000000350000A08CC502A3
:103A600009414E474D41585F524F4C000000000045
:103A70000000370000A08C45010A52435F494E5FA9
:103A800054494C54000000000000003300000000C6
:103A900000020B414E474D494E5F54494C00000017
:103AA00000000000390000A08CC5020C414E474DBB
:103AB00041585F54494C000000000000003B0000EA
:103AC000A08C45010D52435F494E5F50414E0000AE
:103AD000000000000000340000000000020E414E13
:103AE000474D494E5F50414E000000000000003D30
:103AF0000000A08CC5020F414E474D41585F504118
:103B00004E000000000000003F0000A08C450110A6
:103B10004A535449434B5F53504400000000000097
:103B20000041000000000000FF0000000000000055
:103B30000000000000000000000000000000000085
:103B4000040154435F5859000000000000000000C9
:103B5000000000130000002040040254435F5A009C
:103B6000000000000000000000000000170000003E
:103B7000A04000FF00000000000000000000000066
:103B8000000000000000000000000004005241445A
:103B9000495553000000000000000000000007002D
:103BA00000007A4404015241544500000000000026
:103BB000000000000000000B000000A04100FF001A
:103BC00000000000000000000000000000000000F5
:103BD0000000000000000400535045454400000070
:103BE0000000000000000000000F000000FA430485
:103BF00001524144495553000000000000000000FC
:103C000000001B0000004843040253504545445F38
:103C10005550000000000000000000130000007A72
:103C200043040353504545445F444E0000000000E8
:103C30000000000017000000164304044C4F4954D4
:103C40005F5350454544000000000000000700009D
:103C500000FA430405414343454C000000000000C6
:103C60000000000000001F000000C842040641439D
:103C700043454C5F5A000000000000000000002394
:103C8000000000C84204074C4F49545F4A45524B5C
:103C900000000000000000000B0000007A4400FF5C
:103CA0000000000000000000000000000000000014
:103CB0000000000000000096918C87827D78736E72
:103CC00069645F5A55504B46413C37322D28231EBC
:103CD00019140F0A050004090E13181D22272C3190
:103CE000363B40454A4F54595E63686D72777C811C
:103CF000868B90959A9FA4A9AEB3AFAAA5A09B96D8
:103D00008F89837E78736E69645F5A55504B474242
:103D10003E3935302C27231F1B16120E09050103CF
:103D2000070B1014191D22262B2F34393D42474C06
:103D300051565B60656B70757B80868C92979DA3F6
:103D4000A9AFB2ACA6A09A948F827C76706B6560A6
:103D50005C57524E4A46413D3936322E2A26221FA2
:103D60001B1713100C08040102060A0E12161A1E65
:103D700022262B2F33383D41464B4F54595E646900
:103D80006F747A80878D949BA2AAB1AEA69F9790FC
:103D900089826F68635E5955514D4946423F3C38B0
:103DA00035322E2B2824211E1A1714100D0A060353
:103DB000000306090D1014181C2024282C30343957
:103DC0003D41464A4F54585D62676D737980878FD5
:103DD00098A2ACB0A59A90867D766F55514D4A4712
:103DE00044413F3C3A383533312E2B292623201DC0
:103DF0001A1713100D0A070401010306090D101309
:103E0000171A1E22262A2E32363A3E42464A4E5370
:103E1000575B5F64696E757C85909FB2A08D7D70E5
:103E200067605A553E3C3A393736343332302F2E9C
:103E30002C2A292724221F1C191613100D0A0704E7
:103E400002000305080A0D1013161A1D2125292D3D
:103E50003135383C4043464A4D505356595B5E61BC
:103E600065696F826D544D4A474442403E2E2E2D67
:103E70002C2C2B2A2A2929282726252423211F1CDC
:103E80001A1714100D0A07040101030507090C0E87
:103E90001013161A1D2124282C3033373A3D404286
:103EA0004447484A4A4B4A48443D301902162128A3
:103EB0002B2D2E2F2E2E06090C0F121517191B1C39
:103EC0001B1811040E2231383C3C3C3A3835322F55
:103ED0002B2824201C1915110D09050102060A0EB4
:103EE0001115181C1F222527292A2B2B29262119B9
:103EF00011080004080A0A0A08070402000306164B
:103F0000181A1C1E20211F1712516063625F5D5931
:103F100056524E4A46423E3935312C2824201B1732
:103F2000130E0A060102060A0F13171B1F23262A67
:103F30002D313437393C3D3F3F3E3D39352F282127
:103F40001C17151313131416A8ADB2B0ABA6A19C81
:103F500097928D88837E79746F6A65605B56514C49
:103F600047423D38332E29241F1A15100B06010332
:103F7000080D12171C21262B30353A3F44494E5369
:103F8000585D62676C71767B80858A8F94999EA359
:103F9000A800000001FFFFE000000000000001FF9A
:103FA000FFF000000000000001FFFFF8000000002B
:103FB000000001FFFFFE00000000000003FFFFFF04
:103FC00000000000000003FFFFFFF0000000000001
:103FD0000FFFFFFFFE00000003FFFFFC000007FCD7
:103FE00000007FFFFFFC000000000000001FFFFE3C
:103FF0000000000000241E191512100E0C0B0A09F7
:104000000909080808070606050404040304040453
:1040100000000000000000000000272621232523C7
:1040200025242722292A2A1C27282B333227252218
:104030002C33313037000000000000000000008009
:104040001140114071327334333213121132111294
:10405000933413145352310021030406080B2D0A24
:10406000090705040241C011C051125354731211C3
:1040700012515273147332310021020405060708ED
:10408000090806070624030201020001200120118D
:10409000C00111003132137413143312F112D31210
:1040A000510001022325060746442342210001E076
:1040B000A0313213B4331112110011201100523308
:1040C00012133211200122248504230402034241E9
:1040D0000001E0A05112141315131534133251408E
:1040E000012011521332310001222304050405047A
:1040F00023010382612001E0118011321354151451
:104100003332314021020100317231410223442314
:1041100002012201220102614001A011805112140A
:1041200013341514331231400102010302012052ED
:10413000111220212243042241022102A10001E0A8
:104140002011405153741332114021020302030223
:1041500001001112113200114122232221004102DB
:10416000A1800160116011001132337413121140EB
:1041700001620302032131121112114001020102F6
:10418000030201000100E121E0A0112012117334AB
:10419000333120016203624012111211001101003B
:1041A000010201220001200100E1C0010011801183
:1041B0000012111312141334522001E20221203193
:1041C0001211001100010021020100014021000232
:1041D000410001E060114011121113121413141365
:1041E00032110021220342010221000100110012BC
:1041F00011001120010041600100C10001401120A7
:104200000160114051121312131433123100014294
:1042100003220102210001401100310011000100C0
:10422000010001A0E10001A0018011203152931290
:10423000110021C221002140310011201100010094
:1042400001E0E16001E011001172731231002142BE
:1042500003010201022021401100112011600140E0
:104260001160010001022102000120014001A05162
:104270003213125332112001020182210021000168
:1042800000110031E0001100116021000102010263
:1042900001010021200100016011001152131214CC
:1042A000135211004182010200010021401100114E
:1042B0000011A01100310011208122010100020132
:1042C0000021000160110052131213141332310146
:1042D0000002012201420100210001000111201110
:1042E0000011201140710011400102210201020160
:1042F00000210221000100010011001211123312ED
:104300003413321120010201420122010041000157
:1043100060112011001100110051123120610201C1
:1043200022020002010281201100121173341332A3
:1043300011004102018201006100018011001100A1
:104340009132314021420102020062614011521457
:104350001354333100418201220001020041000167
:1043600060911211525120012201030102020082C8
:1043700061005133541514333100210201220342EC
:104380004102A18031921332310041220302010324
:104390000022032201020140111233953331010042
:1043A00022010342032221220102610001110011B6
:1043B000521312531231004122032203002302033D
:1043C000020102212032131416151716153311207D
:1043D000016203020302032201A24140111253149D
:1043E000131413321101000201020302030202003E
:1043F0000223020322212032141637181715131234
:1044000011002122030243024301030203822120FF
:104410001112131415341514321100016223020312
:104420000043020342012012131518193A171513FD
:104430001100210203026304E302030203020102EA
:1044400040121314151715163412202122430203AB
:1044500000A3220100111215181C1E1D191613119C
:10446000000201030203042304032403044304237E
:1044700004030203422011121415171836151331C4
:10448000210203022302030100454E41424C450034
:10449000000000000000000000000200000000001A
:1044A00001015459504500000000000000000000C8
:1044B0000000000300000040400102414354494F06
:1044C0004E0000000000000000000000040000009A
:1044D000803F0403414C545F4D41580000000000F0
:1044E000000000000005000000C8420404524144DE
:1044F00049555300000000000000000000000900C2
:104500000000964304054D415247494E000000000B
:10451000000000000000000D000000004000FF004F
:10452000000000000000000000000000000000008B
:104530000000000000000100444542554700000013
:10454000000000000000000000000000000000006B
:10455000FF0000000000000000000000000000005C
:1045600000000000000000005363686564756C651E
:104570007220736C6970207461736B5B25755D20AC
:104580002825752F25752F2575290A005363686521
:1045900064756C6572206F76657272756E207461D9
:1045A000736B5B25755D202825752F2575290A00FD
:1045B0000100524F4C4C00000000000000000000C1
:1045C00000000000000000803F01015049544348B2
:1045D00000000000000000000000000001000000DA
:1045E000004001025448524F54544C450000000012
:1045F0000000000000030000004040010359415743
:1046000000000000000000000000000000000200A8
:104610000000804000FF00000000000000000000DB
:104620000000000000000000000000000001004D3C
:104630004F4E49544F52000000000000000000009F
:104640000000000000000101564F4C545F50494EDD
:1046500000000000000000000001000000504101C7
:1046600002435552525F50494E00000000000000C6
:1046700000000200000040410403564F4C545F4DBF
:10468000554C54000000000000000003009A9921DE
:10469000410404414D505F504552564F4C54000068
:1046A000000000000700000088410405414D505FF4
:1046B0004F4646534554000000000000000B000028
:1046C0000000000306434150414349545900000093
:1046D0000000000000000F0000404E450107564F4B
:1046E0004C54325F50494E0000000000000000139F
:1046F00000000080BF0408564F4C54325F4D554CAB
:10470000540000000000000014000000803F00FF83
:104710000000000000000000000000000000000099
:104720000000000000000000FF000000000000008A
:104730000000000000000000000000000000000079
:104740000D94BDA20D94E36B0D942A870D946D75A5
:104750000D940BE40D94199F0D945D5D0D9421064D
:104760000D9496400D94A2300D9494B90D94A79198
:104770000D9469370D94C5370D94AE550D9400D73F
:104780000D947DBB0D945C090D94D04E0D94C335F2
:104790000D94A2330D9437A70D9402860D94EE3636
:1047A0000D94F7580D94080C0D94ED0F0D941CA565
:1047B0000D94DA020D94B6D10D9470120D948818F0
:1047C0000D94F7170D9492060D94CDC20D94CD0D56
:1047D0000D9448BE0D945F450D94405B0D946C9F05
:1047E0000D94551C0D94D7350D94C7A60D94ED303E
:1047F0000D94C7B90D944D1C0D94A2070D944C5BFC
:104800000D945E030D94F4360D94F13A0D94EF730C
:104810000D9450370D94C6760D946B870D945064AB
:104820000D94795A0D948A2F0D94AB370D942B5516
:104830000D9431550D94AC550D9467850D94213729
:104840000D9476360D94E2780D94A6E50D94458A84
:104850000D94CA790D9415180D94DB9D0D942B7B46
:104860000D9449160D9400050D94A2090D94AEB94E
:104870000D9473750D9431A70D94BA360D94CD191E
:104880000D94AF3E0D94EEA20D94393D0D948CC560
:104890000D946A4F0D94B7D30D949E060D94508BD2
:1048A0000D94727E0D94B0C90D947AE40D943AB6CD
:1048B0000D9467360D9450350D94AF080D94420851
:1048C0000D94D6DC0D949A1D0D94B1B90D94F60893
:1048D0000D94D5050D9462E60D944A600D94A8A53B
:1048E0000D9494080D94A7740D94DD160D946558DD
:1048F0000D945A0B0D9483540D94D29D0D944F1C1E
:104900000D94AF090D9431B40D94CEA90D94BF163A
:104910000D944F100D94E4A80D9409E40D9463A335
:104920000D9426010D9436AA0D94FB160D94B7A292
:104930000D94ABCE0D940B5C0D94FA630D9449006D
:104940000D940F180D94C4E50D94A6360D94162AF7
:104950000D944F9F0D942BA70D94D85D0D941D229F
:104960000D94744E0D94308D0D9498BC0D949E351D
:104970000D9405480D941BA80D942BD10D94CF05D3
:104980000D9447360D944B1C0D9423D50D94A59A88
:104990000D945F580D94540B0D948D110D94925AF3
:1049A0000D94595B0D941AB60D94A2B90D9496B955
:1049B0000D94C2550D94FA040D949F720D947A4E85
:1049C0000D9499340D94220A0D94AC4F0D949D16BC
:1049D0000D9415340D94A1A90D948F710D94E424B8
:1049E0000D9405CE0D941EA50D944D0F0D94F0B9A8
:1049F0000D94A5340D9493350D941BDC0D941FA6D6
:104A00000D943EA70D9431E00D9463890D94557972
:104A10000D94C2E50D94D8110D943C370D94843F4C
:104A20000D94C6550D94C0550D9455B00D9499D75D
:104A30000D940C300D94945E0D942CB30D94E509F7
:104A40000D945BD70D9403900D94FC370D94B3A98E
:104A50000D9467750D9492970D94EB5B0D94150270
:104A60000D94FC5A0D9497160D94E0250D94A7AA69
:104A70000D94A75F0D94EA4A0D94E0B90D949D50F2
:104A80000D94BBE30D9459A50D94FCA80D94568C80
:104A90000D9408800D94EB340D941B020D941F7C33
:104AA0000D940E370D9471350D94885A0D9487E549
:104AB0000D94C6E50D943A220D9488080D943F009C
:104AC0000D94ED9E0D943F7A0D941C940D9418A5B1
:104AD0000D94F0D10D94D4A90D94A4540D94C45503
:104AE0000D945F4F0D946D3A0D945F5B0D947A9F1A
:104AF0000D94590D0D9462870D9427760D94E15C09
:104B00000D94E0370D94FF980D94B3880D948A2787
:104B10000D94E5080D9467770D94439E0D944A35E6
:104B20000D9421250D943F240D9444460D94533942
:104B30000D943E2C0D9497860D94D8CC0D9494B280
:104B40000D94846A0D94B6100D94C1380D943E5C9A
:104B50000D9453230D947E5A0D94621F0D941536B7
:104B60000D949C370D94D9330D9455910D94EB22EF
:104B70000D9403180D9432070D94D89D0D94DEA862
:104B80000D945D630D9470560D94EB0A0D94F988A5
:104B90000D9402780D944DC60D94D61C0D940461AD
:104BA0000D94CC550D945D040D941B350D9460CD82
:104BB0000D94EAEC0D94AE3A0D948AB90D9412ACB2
:104BC0000D94D9A50D94BE550D946A560D94E50A21
:104BD0000D946EE50D94F9C60D94BC080D94B9348E
:104BE0000D943F180D94030A0D9431510D947509DD
:104BF0000D9473E50D94D4080D94D01C0D94F750CA
:104C00000D9467590D94F00C0D94BB9D0D945B0EA3
:104C10000D94835A0D949A010D9485E50D94CA095B
:104C20000D94BB1A0D9484370D943D770D943D2758
:104C30000D9424330D94B9310D9442E70D942B2B30
:104C40000D94B3990D9413040D94338E0D94298211
:104C50000D9478C90D9437090D94F1580D94020CF8
:104C60000D941DA50D949C070D94D4020D94C9BA02
:104C70000D94544F0D942D760D94CBBE0D94167457
:104C80000D944DA90D94A39E0D9435360D946F2B64
:104C90000D941B710D94EA580D94AB0B0D9421A843
:104CA0000D942C370D94AA550D9457040D94E0BB28
:104CB0000D9484B30D943C3B0D94B85A0D94BE539F
:104CC0000D94F1BC0D94C5160D94D1500D94B00007
:104CD0000D94BB9C0D94A01D0D9463140D94CCCD2C
:104CE0000D94AB9E0D94FA360D94A4E50D94F44109
:104CF0000D94A0A20D94BF340D94B7700D948CC484
:104D00000D947F350D947E990D94681F0D94779EB8
:104D10000D9422BA0D94D30C0D94914E0D94704FB6
:104D20000D94441C0D948B550D9407360D94BCC8FE
:104D30000D94B5DF0D94445C0D94C5BE0D94111116
:104D40000D94E0270D94F5730D94D7A30D94F59A67
:104D50000D94E3100D94525B0D94C03C0D9495AAF4
:104D60000D9425350D9491550D94B9290D94ED06AA
:104D70000D941A090D948FB90D94EE160D94FA3412
:104D80000D94ABB10D9441710D94F9800D9473ADF8
:104D90000D94749F0D94A4AE0D94B6960D943B158E
:104DA0000D94A0010D948F140D9450600D940D2D51
:104DB0000D94964BE4A465B4E0C39DCCB7D0BAD0B3
:104DC0008FD190260624A22667A811241FBECFEFFC
:104DD000D1E2DEBFCDBF00E00CBF15E0A0E0B2E045
:104DE000E8E5F1EE03E00BBF02C007900D92AA3A8E
:104DF000B107D9F718E1AAEAB5E001C01D92A233C4
:104E0000B107E1F71DE4C8ECDDE400E006C022973D
:104E10000109FE010BBF0F945CEEC43BD10780E09B
:104E20000807A9F70E948A940D949BF00C94000047
:104E300008950895A0919815B0919915ED91FC9160
:104E400011970280F381E02DCD011995089580918D
:104E5000981590919915DC01ED91FC910480F581F4
:104E6000E02D199508958091981590919915DC0180
:104E7000ED91FC910680F781E02D199508958F92B0
:104E80009F92AF92BF92CF92DF92EF92FF92C0902B
:104E9000CF12D090D012E090D112F090D21220E038
:104EA00030E0A901C701B6010F94B1E8882309F4E5
:104EB00082C08090DF129090E012A090E112B0903A
:104EC000E21220E030E0A901C501B4010F94B1E87D
:104ED000882309F470C0C092810BD092820BE092BB
:104EE000830BF092840B8091D3129091D412A091F5
:104EF000D512B091D6128093850B9093860BA09318
:104F0000870BB093880B8091D7129091D812A09103
:104F1000D912B091DA128093890B90938A0BA093E7
:104F20008B0BB0938C0B8091DB129091DC12A091D3
:104F3000DD12B091DE128093790C90937A0CA093DD
:104F40007B0CB0937C0C80929F0B9092A00BA09254
:104F5000A10BB092A20B8091E3129091E412A09168
:104F6000E512B091E6128093A30B9093A40BA0934B
:104F7000A50BB093A60B8091E7129091E812A09137
:104F8000E912B091EA128093A70B9093A80BA0931B
:104F9000A90BB093AA0B8091EB129091EC12A09107
:104FA000ED12B091EE1280937D0C90937E0CA09345
:104FB0007F0CB093800CFF90EF90DF90CF90BF906C
:104FC000AF909F908F900895A0E0B0E0EAEEF7E2F6
:104FD0000D94CAEDEC018B0128813981FB018081A0
:104FE0009181121613061CF497FF08C0BFC021154B
:104FF000310521F0181619060CF4B8C0AC0197FF62
:1050000004C044275527481B590B493057400CF022
:10501000ADC0B901882777FD8095982F1216130629
:105020000CF052C00F9453E94B015C012DEC3CECA9
:105030004CE45DE30F947EEB2B013C016091090A87
:1050400070910A0A16161706B4F4882777FD809522
:10505000982F0F9453E96B017C01762F272F3D2D5C
:105060004E2D5F2D642D752D862D972D0F942EEBD3
:105070001816ACF012C020E030E040E85FE3642D89
:10508000752D972D0F942EEB18164CF0412C512CAA
:1050900020E8622E3FE3732E02C026013701242D43
:1050A000352D462D572DC501B4010F94D3E70F942C
:1050B00020E968837983F80120813181CB0162176F
:1050C00073070CF053C051C00F9453E94B015C01BE
:1050D00090582DEC3CEC4CE45DE30F947EEB2B01FF
:1050E0003C016091090A70910A0A16161706B4F479
:1050F000882777FD8095982F0F9453E96B017C01E9
:10510000762F272F3D2D4E2D5F2D642D752D862D4D
:10511000972D0F942EEB1816ACF012C020E030E063
:1051200040E85FE3642D752D972D0F942EEB181634
:105130004CF0412C512C80E8682E9FE3792E02C060
:1051400026013701242D352D462D572DC501B401DB
:105150000F94D4E70F9420E968837983F8012081C4
:105160003181CB01261737070CF4C9019983888355
:10517000CDB7DEB7E0E10D94E6EDECE6F4E1808139
:10518000887F8560808382E390E09093851480938C
:10519000841410926F1410926E1480919B1490914D
:1051A0009C1490938914809388140895ECE6F4E19C
:1051B0008081877C8862808382E390E0909387146B
:1051C00080938614109271141092701480919D1423
:1051D00090919E1490938B1480938A1408958091DB
:1051E000590D80FF18C08091E3109091E41003974F
:1051F00094F08091B81081FD0EC08091371183FD2D
:105200000AC090913E1190FD06C085FB882780F969
:1052100091E08927089580E00895FC0112821382AD
:1052200014821582168217821086118612861386C2
:105230001486158616861786108A118A128A138A92
:10524000148A158A168A178A108E118E128E138E62
:10525000148E158E168E0895FF920F931F93CF9381
:10526000DF93FC01868DDF0194E0899FA00DB11DC5
:105270001124F42E042F152F262F372F12960D935D
:105280001D932D933C9315978F5F873010F4868F75
:1052900001C0168E362F272F642F752F832F922F44
:1052A000CDB7DEB7E5E00D94F1EDA0E0B0E0EBE5C1
:1052B000F9E20D94D2ED8091551490915614A0917D
:1052C00057146091EA097091EB099B01442737FD5F
:1052D0004095281739074A0744F49C014A2F55275F
:1052E00047FD5095CA01B90104C0882777FD809514
:1052F000982F0F9453E98B01D82FC92F8DEB95E090
:105300000F944FDE80FF2BC02091CA053091CB0552
:105310004091CC055091CD056091C2057091C305B7
:105320008091C4059091C5050F94D3E720E030E04B
:1053300048EC52E40F947EEB6B017C01762F272F13
:105340003D2D4E2D5F2DFE01602F712F8F2F9E2F33
:105350000F94B1E887FD03C08601DE2DCF2D9E019D
:10536000602F712F832F9C2FCDB7DEB7E8E00D940F
:10537000EEEDA0E0B0E0EFEBF9E20D94CEED5A01D6
:10538000E901E12CF12C00E81FE320E030E0A90165
:105390000F94DA256B017C01B501882777FD809594
:1053A000982F0F9453E99B01AC01C701B6010F94EC
:1053B0007EEB4B015C01A701960160E070E080E8A4
:1053C0009FE30F94D3E76B017C01BE01882777FD33
:1053D0008095982F0F9453E99B01AC01C701B6014A
:1053E0000F947EEB9B01AC01C501B4010F94D4E78F
:1053F0000F9420E9CB01CDB7DEB7ECE00D94EAEDD8
:10540000A8E0B0E0E6E0FAE20D94C8ED1C012A0144
:105410003B01680179011BDD4B015C0180911E1588
:1054200090911F15A0912015B0912115A50194010F
:10543000281B390B4A0B5B0BDA01C901893E9340EB
:10544000A105B10588F16091C4147091C514882735
:1054500077FD8095982F0F9453E9A30192010F9443
:10546000D4E769837A838B839C83809155149091D0
:105470005614A09157149C014A2F552747FD50956B
:10548000CA01B9010F9453E99B01AC0169817A818A
:105490008B819C810F94D3E76093CB147093CC14D1
:1054A0008093CD149093CE1480921E1590921F1568
:1054B000A0922015B09221154101AA2497FCA09436
:1054C000BA2C37FE05C08091940C82FF08C023C01F
:1054D0002114310401F18091940C83FD1CC0C5019D
:1054E000B4010F9453E9A70196010F947EEB9B0141
:1054F000AC016091CB147091CC148091CD1490913B
:10550000CE140F94D4E76093CB147093CC14809393
:10551000CD149093CE146091C4147091C514882753
:1055200077FD8095982F0F9453E96B017C012091B2
:1055300034063091350640913606509137060F9467
:10554000D4E769837A838B839C83209130063091E2
:1055500031064091320650913306C701B6010F94CF
:10556000D3E79B01AC016091CB147091CC14809176
:10557000CD149091CE14E980FA800B811C810F9498
:10558000DA256B017C016093CB147093CC1480936B
:10559000CD149093CE146091C4147091C5148827D3
:1055A00077FD8095982F0F9453E99B01AC01C701BB
:1055B000B6010F94D3E76B017C0180915514909153
:1055C0005614A09157149C014A2F552747FD50951A
:1055D000CA01B9010F9453E99B01AC01C301B201A7
:1055E0000F94D3E79B01AC01C701B6010F94D3E739
:1055F0002091EC093091ED094091EE095091EF09AD
:105600000F947EEBE12CF12C06E113E420E030E076
:1056100046E153EC0F94DA259B01AC01C501B401BE
:105620002D833E834F8358870F9453E92D813E810C
:105630004F8158850F94D4E72896E2E10D94E4ED6C
:10564000A5E0B0E0E6E2FBE20D94D8EDFE01319674
:1056500095E0DF011D929A95E9F793EA998395E920
:105660009A8393E19B838C836D8345E050E0BF0177
:1056700087E39DE00F945E032596E2E00D94F4ED40
:105680008F929F92AF92BF92CF92DF92EF92FF9252
:105690008090CF129090D012A090D112B090D212E0
:1056A00020E030E0A901C501B4010F94B1E88823DE
:1056B00009F483C0C090DF12D090E012E090E112B4
:1056C000F090E21220E030E0A901C701B6010F948A
:1056D000B1E8882309F471C08092810B9092820B0B
:1056E000A092830BB092840B2DEC3CEC4CEC5DE370
:1056F000C501B4010F947EEB6093850B7093860B0C
:105700008093870B9093880B8091D7129091D81239
:10571000A091D912B091DA128093890B90938A0BE1
:10572000A0938B0BB0938C0B8091DB129091DC12C9
:10573000A091DD12B091DE128093790C90937A0CD7
:10574000A0937B0CB0937C0CC0929F0BD092A00BCB
:10575000E092A10BF092A20B2DEC3CEC4CEC5DE343
:10576000C701B6010F947EEB6093A30B7093A40B5B
:105770008093A50B9093A60B8091E7129091E8126D
:10578000A091E912B091EA128093A70B9093A80B15
:10579000A093A90BB093AA0B8091EB129091EC12FD
:1057A000A091ED12B091EE1280937D0C90937E0C3F
:1057B000A0937F0CB093800C03C062E08EE040DFCA
:1057C000FF90EF90DF90CF90BF90AF909F908F9021
:1057D0000895A9E1B0E0EFEEFBE20D94D0ED99E180
:1057E000FE013196DF01792F1D927A95E9F773EA70
:1057F000798375E97A839B838C836D832E833F83C2
:1058000048875987EA86FB860C871D87AE86BF8648
:10581000C88AD98A8FA198A5A9A5BAA58A8B9B8B7E
:10582000AC8BBD8B8BA59CA5ADA5BEA58E8B9F8B90
:10583000A88FB98F49E150E0BF0187E39DE00F9445
:105840005E036996EAE00D94ECEDA6E0B0E0EBE2D1
:10585000FCE20D94D8EDBE016F5F7F4F96E0FB0137
:1058600011929A95E9F793EA998395E99A8393E0DF
:105870009B838C8380911E0A90911F0A9E838D8347
:1058800046E050E087E39DE00F945E032696E2E059
:105890000D94F4EDA0E0B0E0E0E5FCE20D94CEED77
:1058A0008B017A01E90144E951E16CE67EEE0F9447
:1058B00032266C0144E951E16CE67EEEC8010F949A
:1058C00032268C016091B4127091B512643981E175
:1058D000780731F4F701D182C0821983088346C06A
:1058E00080911C1590911D1568177907C1F0709370
:1058F0001D1560931C15882777FD8095982F0F94B0
:1059000053E920E030EA4CE855E40F94B8E860939E
:1059100021027093220280932302909324028090AC
:10592000210290902202A0902302B0902402B6019E
:10593000882777FD8095982F0F9453E9A50194014E
:105940000F947EEB0F9420E9F70171836083B80117
:10595000882777FD8095982F0F9453E9A50194012E
:105960000F947EEB0F9420E979836883CDB7DEB77F
:10597000ECE00D94EAEDA0E0B0E0E1ECFCE20D9487
:10598000CEEDEC016A017B010091090A10910A0A2F
:1059900020E030E0A901C701B6010F942EEB409141
:1059A000721450917314609174147091751487FD82
:1059B00012C0CB01BA019058A70196010F947EEB5B
:1059C0004B015C0120E030E040E752E4C701B60142
:1059D0000F94D4E711C0CB01BA019058A7019601EA
:1059E0000F947EEB4B015C01A701960160E070E033
:1059F00080E792E40F94D3E79B01AC0160E070E094
:105A00008AEF93E40F94B8E820E030E040E85FE3E9
:105A10000F94D4E79B01AC01C501B4010F947EEB58
:105A2000288139817901E00EF11EA901401B510B3B
:105A30008A010F9420E9DC01CB01A701B8010F9482
:105A400032269983888340910B0A50910C0A66276D
:105A50007727641B750B0F94322699838883CDB703
:105A6000DEB7ECE00D94EAEDA0E0B0E0EAE3FDE2A1
:105A70000D94D6EDFE0138962191319181E080930D
:105A8000D10E8F0142E350E062ED7EE080919A15E5
:105A900090919B150E946AB662E170E08EEC9EE0E8
:105AA0000E944DDB8091A50F882379F083E3E1ED1F
:105AB000FEE0A8EABFE001900D928A95E1F762E16D
:105AC00070E085EA9FE00E944DDBE4E00D94F2ED8A
:105AD000CF93DF93EC018091CE0E882329F0BE0195
